:020000040800F2
:1000000000200020410200084902000851020008B7
:1000100000000000000000000000000000000000E0
:10002000000000000000000000000000770200084F
:1000300000000000000000007F02000871110008AD
:10004000870200088702000887020008870200086C
:10005000870200088702000887020008870200085C
:10006000870200088702000887020008870200084C
:10007000870200088702000887020008870200083C
:1000800087020008870200080000000087020008BD
:10009000870200088702000887020008870200081C
:1000A000870200088702000887020008870200080C
:1000B000870200080000000087020008000000001E
:1000C0005FF808F180B58EB000AF00F011F94A4B2F
:1000D0004A4A1A604A4B494A1A604A4B3B634A4BA8
:1000E000FB624A4BBB62FB6A7B6207E03A6B131D03
:1000F0003B637B6A191D796212681A60BA6A7B6A6F
:100100009A42F3D83C4B1B68414A934204D13C4B82
:100110001B68404A934200D0FEE73F4B374A1A60C3
:100120003E4B364A1A603E4B3B623E4BFB613B6A9C
:10013000BB6104E0BB691A1DBA6100221A60FA694A
:10014000BB699A42F6D8344B1B68002B03D1334B62
:100150001B68002B00D0FEE700F0D0F83A003B1DF2
:100160001100180000F0B4F82F4A304BD31A9B103E
:10017000FB600023BB6007E02C4BBA689200D358A9
:100180009847BB680133BB60FA68BB689A42F3DCEE
:10019000274A284BD31A9B10FB600023BB6007E063
:1001A000244BBA689200D3589847BB680133BB60B0
:1001B000FA68BB689A42F3DC7B683A681100180061
:1001C00000F0A8FE03007B631B4A1C4BD31A9B1054
:1001D0007B617B693B6108E03B695A1E174B9200CB
:1001E000D35898473B69013B3B613B69002BF3DCEB
:1001F0007B6B180000F066F800000020BABADECA77
:100200008C000020C0180008000000209000002092
:100210007856341232547698900000202C02002038
:100220009000002030020020BC020008BC02000840
:10023000C0020008BC020008C4020008C002000896
:1002400080B500AFFFF73EFF80B500AF00BEFEE710
:1002500004207146084202D0EFF3098001E0EFF379
:10026000088071460A4A104780B582B000AF7860B6
:10027000396000BEFEE780B500AF00BEFEE780B586
:1002800000AF00BEFEE780B500AF00BEFEE7000095
:0402900069020008F7
:10029400C01800080000002090000020C0180008CA
:1002A4000000000000000000900000203002002048
:1002B40000000000000000009D16000885160008DC
:1002C40080B582B000AF7860FEE7000080B582B0F0
:1002D40000AF786039607B6801221A603B68024A8B
:1002E4001A60BD4602B080BD0400002080B500AF96
:1002F40000F008F8BD4680BD80B500AF00F048F8B6
:10030400BD4680BD80B500AF1B4B1A681A4B012156
:100314000A431A60184B5A68174B18490A405A6026
:10032400154B1A68144B16490A401A60124B1A6886
:10033400114B14490A401A600F4B5A680E4B12496C
:100344000A405A600C4BDA6A0B4B0F218A43DA627B
:10035400094B1A6B084B0D490A401A63064B5A6B3A
:10036400054B01218A435A63034B00229A6000F033
:100374007FF8BD4680BDC046001002400CB8FFF8AF
:10038400FFFFF6FEFFFFFBFFFFFFC0FFACFEFFFF1A
:1003940080B584B000AF0023FB600023BB60002362
:1003A4007B6000233B602E4B5B680C221340FB6098
:1003B400FB68042B09D0FB68082B0AD0FB68002BD0
:1003C40038D1284B284A1A6037E0264B264A1A604F
:1003D40033E0234B5A68F0239B031340BB60204B4C
:1003E4005A68C0235B0213407B60BB689B0C0233DA
:1003F400BB607B68002B0CD1B9680A005201521A09
:1004040093019B1ADB005B181B021A00154B1A6040
:1004140013E0134BDB6A0F22134001333B6039684E
:10042400114801F0B7F903001A00BB685A430D4B99
:100434001A6002E00B4B0C4A1A60094B5B681B09FB
:100444000F221340094AD35CDBB2FB60054B1A68E8
:10045400FB68DA40034B1A60BD4604B080BDC04659
:10046400001002400C00002000127A00100000204E
:1004740080B582B000AF00237B6000233B60304B2B
:100484001A682F4B802149020A431A602C4B1A68C0
:1004940080239B0213403B607B6801337B603B6895
:1004A400002B04D17A68A023DB019A42EED1244BBD
:1004B4001A6880239B02134002D001233B6001E0B1
:1004C40000233B603B68012B36D11E4B11221A607E
:1004D4001B4A1B4B52685A60194A194B52685A609E
:1004E400174B5A68164B18490A405A60144B5A68FD
:1004F400134B882149030A435A60114B1A68104B65
:10050400802149040A431A600D4B1A6880239B0416
:100514001340F9D00A4B5A68094B03218A435A60A5
:10052400074B5A68064B02210A435A60044B5B6826
:100534000C221340082BF9D1BD4602B080BDC04641
:100544000010024000200240FF7FC0FF90B583B03E
:1005540000AF02003960FB1D1A70FB1D1B785BB2F3
:10056400002B36DA314AFB1D1B785BB219000F23CE
:100574000B40083B9B0806339B00D31804331B68CD
:10058400FA1D127852B2110003220A40D200FF2150
:1005940091400A00D2431A4011003B689B01FF229C
:1005A4001A40FB1D1B785BB2180003230340DB00D9
:1005B4009A401E48FB1D1B785BB21C000F2323408E
:1005C400083B9B080A4306339B00C31804331A6094
:1005D40029E0174AFB1D1B785BB29B08C0339B00C4
:1005E4009B58FA1D127852B2110003220A40D2001D
:1005F400FF2191400A00D2431A4011003B689B013D
:10060400FF221A40FB1D1B785BB218000323034032
:10061400DB009A400648FB1D1B785BB29B080A432B
:10062400C0339B001A50BD4603B090BD00ED00E0FE
:1006340000E100E080B582B000AF78607B68013BE8
:100644000C4A934201D9012310E00B4B7A68013A1A
:100654005A6001235B4203211800FFF777FF064B22
:1006640000229A60044B07221A6000231800BD463A
:1006740002B080BDFFFFFF0010E000E080B582B053
:1006840000AF0200FB1D1A70FB1D1B78012B02D06A
:10069400022B00D1FEE7BD4602B080BD80B582B01A
:1006A40000AF7860396001231800BD4602B080BDF8
:1006B40080B582B000AF00237B60074B5A69064BBC
:1006C400802189020A435A61034B5B697B607B6822
:1006D400BD4602B080BDC0460010024080B500AFE8
:1006E400BD4680BD80B500AF114A124B1100180001
:1006F400FFF7D4FFFFF74CFEFFF7DAFF0E4B1A6843
:10070400FA239900100001F045F803001800FFF7E0
:1007140091FF03005A1E9341DBB2002B02D002204A
:10072400FFF7ACFFFFF7DAFF00F008F8BD4680BD25
:100734000048E80100127A000C00002080B500AFE8
:10074400BD4680BD80B582B000AF7860080011005E
:10075400FB1C021C1A70BB1C0A1C1A707B681B68E9
:10076400FA1C12785200032191400A00D2431A4025
:100774007B681A607B681A68BB1C1978FB1C1B78A1
:100784005B0099400B001A437B681A60BD4602B0B7
:1007940080BD80B582B000AF786008001100FB1CFA
:1007A400021C1A70BB1C0A1C1A707B689B68FA1C1A
:1007B40012785200032191400A00D2431A407B6808
:1007C4009A607B689A68BB1C1B781900FB1C1B7819
:1007D4005B0099400B001A437B689A60BD4602B0E7
:1007E40080BD80B582B000AF786008001100FB1CAA
:1007F400021C1A70BB1C0A1C1A707B68DB68FA1C8A
:1008040012785200032191400A00D2431A407B68B7
:10081400DA607B68DA68BB1C1978FB1C1B785B0008
:1008240099400B001A437B68DA60BD4602B080BD74
:1008340080B582B000AF786008001100FB1C021C78
:100844001A70BB1C0A1C1A707B689B889BB2FA1C2A
:100854001278110001228A4092B2D24392B213401C
:100864009AB27B689A807B689B889AB2BB1C1B787F
:10087400F91C09788B409BB213439AB27B689A8027
:10088400BD4602B080BD80B584B000AF78600A0078
:10089400FB1C1A707B681A68FB1C1B785B00DA402F
:1008A4001300FB60FB68DBB203221340DBB21800C9
:1008B400BD4604B080BD80B584B000AF78600A0046
:1008C400FB1C1A707B68DA68FB1C1B785B00DA403F
:1008D4001300FB60FB68DBB203221340DBB2180099
:1008E400BD4604B080BD80B584B000AF78600A0016
:1008F400FB1C1A707B689A68FB1C1B785B00DA404F
:100904001300FB60FB68DBB203221340DBB2180068
:10091400BD4604B080BD80B584B000AF78600A00E5
:10092400FB1C1A707B689B889BB21A00FB1C1B780B
:100934001A411300FB60FB68DBB201221340DBB2F7
:100944001800BD4604B080BDB0B584B000AFF860F7
:1009540008007A6019000B243B19021C1A700A253E
:100964007B190A1C1A707B191A787B68110018000D
:10097400FFF789FF03001A003B191978FB68180078
:10098400FFF7E0FE7B191A787B6811001800FFF767
:10099400C2FF03001A003B191978FB681800FFF71F
:1009A40047FF7B191A787B6811001800FFF783FF53
:1009B40003001A003B191978FB681800FFF711FFB0
:1009C4007B191A787B6811001800FFF78CFF03006D
:1009D4001A003B191978FB681800FFF7DAFEBD46C8
:1009E40004B0B0BD80B582B000AF78600A00FB1CD3
:1009F4001A707B6818687B681979FB1C1B781A00CD
:100A0400FFF7A0FEBD4602B080BD80B582B000AF46
:100A140078600A00FB1C1A707B6818687B68197977
:100A2400FB1C1B781A00FFF7B4FEBD4602B080BD64
:100A340080B582B000AF78600A00FB1C1A707B6836
:100A440018687B681979FB1C1B781A00FFF7C9FE2C
:100A5400BD4602B080BD80B582B000AF78600A00A8
:100A6400FB1C1A707B6818687B681979FB1C1B785F
:100A74001A00FFF7DDFEBD4602B080BD90B583B01D
:100A840000AF78600C0010001900FB1C221C1A70C7
:100A9400BB1C021C1A707B1C0A1C1A70FB1C1A78E3
:100AA4007B6811001800FFF79DFFBB1C1A787B6858
:100AB40011001800FFF7CFFF7B1C1A787B68110028
:100AC4001800FFF7B5FF1823FB181A787B6811008C
:100AD4001800FFF79AFFBD4603B090BD80B582B001
:100AE40000AF786039607B6818687B6819793B6867
:100AF4001A683B681B79FFF727FFBD4602B080BD2B
:100B040080B586B002AFF860B960FB1D1A70FB684F
:100B1400BA681A60FB68FA1D12781A71F868002323
:100B24000093002301220321FFF7A8FFFB681800AC
:100B3400BD4604B080BD000080B586B002AF7860C9
:100B4400804B5A697F4B9C21C9030A435A617D4BF0
:100B54005B69FB60FB687B68103318000223009319
:100B6400002300220121FFF789FF7B6808331A0064
:100B74007B68103319001000FFF7B0FF7A687B68B8
:100B8400103319001000FFF7A9FF7B6818331A000F
:100B94007B68103319001000FFF7A0FF7B68203337
:100BA4001A007B68103319001000FFF797FF7B6869
:100BB40028331A007B68103319001000FFF78EFFEA
:100BC4007B6830331A007B68103319001000FFF77C
:100BD40085FF7B6838331A007B68103319001000D6
:100BE400FFF77CFF7B6840331A007B6810331900E1
:100BF4001000FFF773FF7B6848331A007B681033DB
:100C040019001000FFF76AFF7B6850331A007B68F5
:100C1400103319001000FFF761FF7B6858331A0086
:100C24007B68103319001000FFF758FF7B686033AE
:100C34001A007B68103319001000FFF74FFF7B6820
:100C440068331A007B68103319001000FFF746FF61
:100C54007B6870331A007B68103319001000FFF7AB
:100C64003DFF7B6878331A007B681033190010004D
:100C7400FFF734FF7B6880331A007B681033190058
:100C84001000FFF72BFF7B6888331A007B68103352
:100C940019001000FFF722FF7B6890331A007B686D
:100CA400103319001000FFF719FF7B6898331A00FE
:100CB4007B68103319001000FFF710FF7B68A03326
:100CC400180000230093012301220021FFF7D6FE20
:100CD4007B68A8331A007B68103319001000FFF7F3
:100CE400FDFE7B68B0331A007B68103319001000D6
:100CF400FFF7F4FE7B68B8331A007B6810331900E1
:100D04001000FFF7EBFE7B68C0331A007B681033DA
:100D140019001000FFF7E2FE7B68C8331A007B68F5
:100D2400103319001000FFF7D9FE7B68D0331A0086
:100D34007B68103319001000FFF7D0FEBD4604B0E5
:100D440080BDC0460010024080B582B000AF78601C
:100D540078689023DB050C221900FFF7D1FE7B682D
:100D64000833684906221800FFF7CAFE7B6810336F
:100D7400644907221800FFF7C3FE7B6818336249F1
:100D84000D221800FFF7BCFE7B6820331800902367
:100D9400DB050F221900FFF7B3FE7B6828335B499C
:100DA40003221800FFF7ACFE7B6830335749042256
:100DB4001800FFF7A5FE7B68383354490522180054
:100DC400FFF79EFE7B684033504906221800FFF768
:100DD40097FE7B6848334D4907221800FFF790FEC1
:100DE4007B685033494908221800FFF789FE7B6865
:100DF4005833464909221800FFF782FE7B686033A6
:100E040042490C221800FFF77BFE7B6868333F4998
:100E14000D221800FFF774FE7B6870333B490E22E5
:100E24001800FFF76DFE7B68783338490F221800ED
:100E3400FFF766FE7B68803318009023DB050822E9
:100E44001900FFF75DFE7B68883318009023DB05EB
:100E540009221900FFF754FE7B6890331800902391
:100E6400DB050A221900FFF74BFE7B689833180054
:100E74009023DB0500221900FFF742FE7B68A033B4
:100E840018009023DB0501221900FFF739FE7B6867
:100E9400A83318009023DB0502221900FFF730FE67
:100EA4007B68B03318009023DB0503221900FFF799
:100EB40027FE7B68B83318009023DB050422190051
:100EC400FFF71EFE7B68C03318009023DB05052264
:100ED4001900FFF715FE7B68C83318009023DB0563
:100EE40006221900FFF70CFE7B68D033180090230C
:100EF400DB0507221900FFF703FE7B681800BD46D7
:100F040002B080BD001400480008004800040048F6
:100F140080B582B000AF78603960054B1B6818005B
:100F2400FFF70AFEFFF7DEFB00F09CF8FCE7C04683
:100F34002000002080B582B000AF786039607B6803
:100F4400012B0ED13B68084A93420AD1074B180083
:100F5400D8231A00002100F015FC044B1800FFF7F9
:100F6400F3FEBD4602B080BDFFFF000098000020E4
:100F740080B500AF034B19000120FFF7DBFFBD462E
:100F840080BDC046FFFF000080B584B000AFF860AC
:100F9400B9607A60FB687A681A60FB68BA68DA60DC
:100FA400FB6800229A60FB6800225A60FB68180004
:100FB400BD4604B080BD000080B582B000AF78604B
:100FC400034A7B681A607B681800BD4602B080BD86
:100FD400B818000880B582B000AF78607B6818004C
:100FE400FFF7EAFF7B681C21180000F05DFB7B68BB
:100FF4001800BD4602B080BD80B584B000AF7860F3
:10100400164B1A687B68D218144B1A60144B1B6871
:10101400FB60FB68002B1DD0FB685B7C022B15D1A9
:10102400FB681B687A689A429B415B42DBB2002BE7
:1010340006D0FB681A687B68D21AFB681A6005E060
:10104400FB6801225A74FB6800221A60FB689B68E3
:10105400FB60DEE7BD4604B080BDC04674010020DD
:101064007001002080B582B000AF174B1B78DBB253
:10107400002B24D1154B1B687B607B68002B1FD091
:101084007B685B7C012B16D17B681B7C012B0CD00D
:10109400022B10D17B685A687B681A607B68022235
:1010A4005A747B68DB68984705E07B6800225A74B1
:1010B4007B68DB6898477B689B687B60DDE7C0469C
:1010C400BD4602B080BDC04624000020700100204F
:1010D40080B586B000AFF8607A603B600B203B18A7
:1010E4000A1C1A70FB6800225A74FB683A181278BA
:1010F4001A74FB687A68DA60FB683A685A601A4BBB
:101104001B68002B0AD1184BFA681A60164B1B682F
:1011140000229A60FB6802225A741FE0124B1B687B
:101124007B617B699B68002B07D07A69FB689A42D4
:1011340011D07B699B687B61F3E77A69FB689A420B
:101144000BD0FB6800229A607B69FA689A60FB689E
:1011540002225A7402E0C04600E0C046FB68180050
:10116400BD4606B080BDC0467001002080B500AF0A
:101174000120FFF741FFBD4680BD80B582B000AFBE
:1011840078600A00FB1C1A70FB1C1B7801229A4031
:1011940013001A007B689A61BD4602B080BD80B519
:1011A40082B000AF78600A00FB1C1A70FB1C1B782D
:1011B400103301229A4013001A007B689A61BD46DD
:1011C40002B080BD80B582B000AF78600800110025
:1011D400FB1C021C1A70BB1C0A1C1A70BB1C1B785B
:1011E400002B07D0FB1C1A787B6811001800FFF74E
:1011F400C4FF06E0FB1C1A787B6811001800FFF797
:10120400CEFFBD4602B080BD80B582B000AF78602D
:101214000A00FB1C1A707B689B8A9BB21A00FB1C99
:101224001B781A411300012213405A1E9341DBB26A
:101234001800BD4602B080BD80B582B000AF7860B2
:101244007B681A687B681B7919001000FFF795FF0B
:10125400BD4602B080BD80B582B000AF78607B68C7
:101264001A687B681B7919001000FFF798FFBD46C8
:1012740002B080BD80B582B000AF78600A00FB1C6C
:101284001A707B6818687B681979FB1C1B781A0034
:10129400FFF798FFBD4602B080BD80B582B000AFB5
:1012A40078607B681A687B681B7919001000FFF767
:1012B400ABFF03001800BD4602B080BD80B584B00A
:1012C40000AFF860B9607A603B60104AFB681A604E
:1012D400FB68BA689A60FB687A68DA60FB683A6807
:1012E4005A61FB68DA68FB689B685A43FB681A61B9
:1012F400FB6800225A60FB6800221A76FB68002211
:101304005A76FB681800BD4604B080BDB8180008C2
:1013140080B582B000AF78607B685B691800BD4619
:1013240002B080BD90B585B000AF78600A00FB1CA8
:101334001A700F23FB1800221A700F243B191B7814
:10134400072B1AD87B68DB683A1912789200D058B8
:10135400FB1C1B78012213405A1E9341DBB2190077
:10136400FFF788FFFB1C1B785A10FB1C1A703B19F3
:101374001A783B1901321A70DFE7BD4605B090BDFB
:1013840080B582B000AF78600A00FB1C1A70FB1CA9
:101394001A787B6811001800FFF7C4FF7B689B680C
:1013A40000211800FFF766FF7B685B6800211800C6
:1013B400FFF760FFBD4602B080BD80B582B000AFCC
:1013C40078600A00FB1C1A70FB1C1A787B681100F9
:1013D4001800FFF7A7FF7B689B6801211800FFF73F
:1013E40049FF7B685B6800211800FFF743FFBD4697
:1013F40002B080BD80B582B000AF78607B68002207
:101404001A607B6800225A607B6800229A607B68BD
:1014140000221A617B6800225A617B6800221A76D6
:101424007B6801225A767B681800BD4602B080BDF5
:1014340080B584B000AF786008001100FB1C021C6A
:101444001A70BB1C0A1C1A70FB1C1B78102B01D9C8
:1014540000231EE00023FB60BB1C1B78022B06D07C
:10146400032B07D0012B08D14023FB6007E0102396
:10147400FB6004E05023FB6001E00023FB60FB6899
:10148400DAB2FB1C1B781343DBB2802252421343B3
:10149400DBB21800BD4604B080BD000080B500AFCB
:1014A400014B1800BD4680BD7801002080B500AF17
:1014B400FFF7F4FF0300180000F039F8BD4680BDC3
:1014C40080B582B000AF7860024B1800BD4602B010
:1014D40080BDC046CC01002080B586B000AF7860E6
:1014E4007B681800FFF7ECFF03007B617B69180041
:1014F400FFF70EFF03003B617B685B691F2B02D97A
:101504007B6800225A617B685B693A69D2180F21B3
:101514007B1812781A707B685B695A1C7B685A6165
:101524007B181B785BB21800BD4606B080BDB0B511
:1015340084B000AF78607B681B681800FFF7ADFECD
:10154400031E05D07B681B681800FFF784FE47E084
:101554007B685B690F22134023D17B685B691A099E
:101564000F217B181A700E257C197B181A787B685A
:1015740000211800FFF75CFF030023707B685B7E8B
:10158400002B22D07B191B78802252421343DAB2FB
:101594007B6811001800FFF7F3FE7B6800225A767F
:1015A40014E00D257C197B681800FFF795FF0300F4
:1015B40023707B1900229A567B6811001800FFF7EC
:1015C400FCFE7B6801225A7600E0C0467B681B68FB
:1015D4001800FFF731FE0C23FB187A68127E1A708C
:1015E400BD4604B0B0BD000080B582B000AF7860E5
:1015F40039607B68012B19D13B68134A934215D19A
:10160400124B1800FFF7F6FE114A124896230221E6
:10161400FFF75EFD104B114802221021FFF74EFE2A
:101624000F49104B21221800FFF7AEFC7B68002BFA
:1016340007D13B68044A934203D1084B1800FFF7D3
:10164400BBFCBD4602B080BDFFFF00007801002056
:10165400B114000894010020A8010020CC0100204E
:10166400E80100200C02002080B500AF034B1900F4
:101674000120FFF7B9FFBD4680BDC046FFFF000053
:1016840080B500AF034B19000020FFF7ADFFBD4646
:1016940080BDC046FFFF000080B500AFFFF7E4FF48
:1016A400FFF766FCBD4680BD10B500F001F810BD23
:1016B40010B500F001F810BD10B5034B0100186817
:1016C40000F004F810BDC0462800002070B50500E5
:1016D400002910D00C1F2368002B00DAE41828001E
:1016E40000F03EF81D4A1368002B05D163601460B6
:1016F400280000F03DF870BDA34209D921686018A4
:101704008342F3D118685B6841182160EEE7130047
:101714005A68002A01D0A242F9D919685818A0427F
:101724000BD120680918581819608242E0D110685A
:101734005268411819605A60DAE7A04202D90C23B2
:101744002B60D5E721686018824203D11068526883
:101754004118216062605C60CAE7C0461C02002038
:1017640010B5024800F00CF810BDC0462402002059
:1017740010B5024800F005F810BDC0462402002050
:101784007047704703001218934200D170471970D4
:101794000133F9E7002243088B4274D303098B42D7
:1017A4005FD3030A8B4244D3030B8B4228D3030C2D
:1017B4008B420DD3FF22090212BA030C8B4202D3CF
:1017C4001212090265D0030B8B4219D300E0090AF7
:1017D400C30B8B4201D3CB03C01A5241830B8B4200
:1017E40001D38B03C01A5241430B8B4201D34B03E9
:1017F400C01A5241030B8B4201D30B03C01A52414E
:10180400C30A8B4201D3CB02C01A5241830A8B42D2
:1018140001D38B02C01A5241430A8B4201D34B02BB
:10182400C01A5241030A8B4201D30B02C01A52411F
:10183400CDD2C3098B4201D3CB01C01A52418309D3
:101844008B4201D38B01C01A524143098B4201D30D
:101854004B01C01A524103098B4201D30B01C01A38
:101864005241C3088B4201D3CB00C01A52418308B2
:101874008B4201D38B00C01A524143088B4201D3DF
:101884004B00C01A5241411A00D20146524110463F
:101894007047FFE701B5002000F006F802BDC0461E
:1018A4000029F7D076E770477047C0460000000073
:0C18B40000000000BD0F0008D90F000864
:1018C000785634129400002000000000006CDC0206
:1018D00000000000000000000102030406070809E0
:1018E0009800002001FFFFFF2C00002000000000F6
:1018F00000000000000000000000000000000000E8
:1019000000000000000000000000000000000000D7
:1019100000000000000000000000000000000000C7
:1019200000000000000000000000000000000000B7
:1019300000000000000000000000000000000000A7
:101940000000000000000000000000003254769803
:04000005080000C52A
:00000001FF
