:020000040800F2
:1000000000200020410200084902000851020008B7
:1000100000000000000000000000000000000000E0
:10002000000000000000000000000000770200084F
:1000300000000000000000007F020008912100087D
:10004000870200088702000887020008870200086C
:10005000870200088702000887020008870200085C
:10006000870200088702000887020008870200084C
:10007000870200088702000887020008870200083C
:1000800087020008870200080000000087020008BD
:10009000870200088702000887020008870200081C
:1000A000870200088702000887020008870200080C
:1000B000870200080000000087020008000000001E
:1000C0005FF808F180B58EB000AF00F031F94A4B0F
:1000D0004A4A1A604A4B494A1A604A4B3B634A4BA8
:1000E000FB624A4BBB62FB6A7B6207E03A6B131D03
:1000F0003B637B6A191D796212681A60BA6A7B6A6F
:100100009A42F3D83C4B1B68414A934204D13C4B82
:100110001B68404A934200D0FEE73F4B374A1A60C3
:100120003E4B364A1A603E4B3B623E4BFB613B6A9C
:10013000BB6104E0BB691A1DBA6100221A60FA694A
:10014000BB699A42F6D8344B1B68002B03D1334B62
:100150001B68002B00D0FEE700F0F0F83A003B1DD2
:100160001100180000F0D4F82F4A304BD31A9B101E
:10017000FB600023BB6007E02C4BBA689200D358A9
:100180009847BB680133BB60FA68BB689A42F3DCEE
:10019000274A284BD31A9B10FB600023BB6007E063
:1001A000244BBA689200D3589847BB680133BB60B0
:1001B000FA68BB689A42F3DC7B683A681100180061
:1001C00001F056FD03007B631B4A1C4BD31A9B10A6
:1001D0007B617B693B6108E03B695A1E174B9200CB
:1001E000D35898473B69013B3B613B69002BF3DCEB
:1001F0007B6B180000F07CF800000020BABADECA61
:10020000940000204C3900080000002098000020D5
:100210007856341232547698980000207C030020DF
:100220009800002080030020BC020008BC020008E7
:10023000D0020008BC020008DC020008D00200085E
:1002400080B500AFFFF73EFF80B500AF00BEFEE710
:1002500004207146084202D0EFF3098001E0EFF379
:10026000088071460A4A104780B582B000AF7860B6
:10027000396000BEFEE780B500AF00BEFEE780B586
:1002800000AF00BEFEE780B500AF00BEFEE7000095
:0402900069020008F7
:100294004C39000800000020980000204C39000868
:1002A40000000000000000009800002080030020EF
:1002B400000000000000000035100008D114000800
:1002C400851700089D1E00082D2A0008E91400085F
:0802D4009D170008452A0008EF
:1002DC0080B582B000AF024B7B6000F009F8C046DD
:1002EC009437000880B582B000AF7860FEE700005C
:1002FC0080B582B000AF024B7B600120FFF7F2FFAC
:10030C00A837000880B582B000AF786039607B6890
:10031C0001221A603B68024A1A60BD4602B080BDD9
:10032C000400002080B500AF00F008F8BD4680BD89
:10033C0080B500AF00F048F8BD4680BD80B500AF79
:10034C001B4B1A681A4B01210A431A60184B5A6846
:10035C00174B18490A405A60154B1A68144B16492A
:10036C000A401A60124B1A68114B14490A401A6061
:10037C000F4B5A680E4B12490A405A600C4BDA6A02
:10038C000B4B0F218A43DA62094B1A6B084B0D4950
:10039C000A401A63064B5A6B054B01218A435A6378
:1003AC00034B00229A6000F07DF8BD4680BDC0462C
:1003BC00001002400CB8FFF8FFFFF6FEFFFFFBFF3A
:1003CC00FFFFC0FFACFEFFFF80B584B000AF002381
:1003DC00FB600023BB6000237B6000233B602D4B44
:1003EC005B680C221340FB60FB68042B07D0082BC6
:1003FC0009D0002B38D1284B284A1A6037E0264BFD
:10040C00264A1A6033E0234B5A68F0239B031340AF
:10041C00BB60204B5A68C0235B0213407B60BB68F7
:10042C009B0C0233BB607B68002B0CD1B9680A00B3
:10043C005201521A93019B1ADB005B181B021A0023
:10044C00154B1A6013E0134BDB6A0F221340013378
:10045C003B603968114803F003F903001A00BB68CC
:10046C005A430D4B1A6002E00B4B0C4A1A60094BB5
:10047C005B681B090F221340094AD35CDBB2FB609B
:10048C00054B1A68FB68DA40034B1A60BD4604B092
:10049C0080BDC046001002400C00002000127A0003
:1004AC001000002080B582B000AF00237B600023D9
:1004BC003B60304B1A682F4B802149020A431A606B
:1004CC002C4B1A6880239B0213403B607B680133E2
:1004DC007B603B68002B04D17A68A023DB019A4235
:1004EC00EED1244B1A6880239B02134002D00123C7
:1004FC003B6001E000233B603B68012B36D11E4B77
:10050C0011221A601B4A1B4B52685A60194A194B2C
:10051C0052685A60174B5A68164B18490A405A6071
:10052C00144B5A68134B882149030A435A60114BE8
:10053C001A68104B802149040A431A600D4B1A6843
:10054C0080239B041340F9D00A4B5A68094B0321B2
:10055C008A435A60074B5A68064B02210A435A6079
:10056C00044B5B680C221340082BF9D1BD4602B03A
:10057C0080BDC0460010024000200240FF7FC0FF3B
:10058C0090B583B000AF02003960FB1D1A70FB1DE3
:10059C001B785BB2002B36DA314AFB1D1B785BB241
:1005AC0019000F230B40083B9B0806339B00D31804
:1005BC0004331B68FA1D127852B2110003220A4050
:1005CC00D200FF2191400A00D2431A4011003B682F
:1005DC009B01FF221A40FB1D1B785BB21800032302
:1005EC000340DB009A401E48FB1D1B785BB21C00CD
:1005FC000F232340083B9B080A4306339B00C31878
:10060C0004331A6029E0174AFB1D1B785BB29B0868
:10061C00C0339B009B58FA1D127852B21100032272
:10062C000A40D200FF2191400A00D2431A40110027
:10063C003B689B01FF221A40FB1D1B785BB2180024
:10064C0003230340DB009A400648FB1D1B785BB27A
:10065C009B080A43C0339B001A50BD4603B090BDA3
:10066C0000ED00E000E100E080B582B000AF786002
:10067C007B68013B0C4A934201D9012310E00B4BE0
:10068C007A68013A5A6001235B4203211800FFF794
:10069C0077FF064B00229A60044B07221A60002356
:1006AC001800BD4602B080BDFFFFFF0010E000E067
:1006BC0080B582B000AF0200FB1D1A70FB1D1B78C9
:1006CC00012B02D0022B01D1FEE7C046BD4602B081
:1006DC0080BD000080B584B000AF78607B68084AAC
:1006EC009A429B415B42DBB2FB60064BFA681A6094
:1006FC00044BFA6810210A431A60BD4604B080BD51
:10070C0000366E010020024080B582B000AF7860E8
:10071C003960284B1A68274B01210A431A60254B74
:10072C001B68022213405A425341DBB2002BF6D114
:10073C00204B5A681F4B03218A435A601D4B5B6840
:10074C000C2213405A1E9341DBB2002BF6D13B68AE
:10075C001800FFF7BFFF174BA02292035A60154BEE
:10076C000022DA62134B1A68124B802149040A43A7
:10077C001A60104B1A6880239B0413405A42534151
:10078C00DBB2002BF5D10B4B5A680A4B02210A4302
:10079C005A60084B5B680C221340083B5A1E93416D
:1007AC00DBB2002BF5D1FFF70FFE01231800BD467D
:1007BC0002B080BD0010024080B582B000AF0023B3
:1007CC007B60074B5A69064B802189020A435A61A8
:1007DC00034B5B697B607B68BD4602B080BDC04645
:1007EC000010024080B500AFBD4680BD80B500AFA3
:1007FC00104A114B11001800FFF786FFFFF7DCFFC2
:10080C000E4B1A68FA239900100002F029FF03001E
:10081C001800FFF729FF03005A1E9341DBB2002B8F
:10082C0002D00220FFF744FFFFF7DCFF00F008F8CE
:10083C00BD4680BD0048E80100127A000C00002083
:10084C0080B500AFBD4680BD80B582B000AF78608A
:10085C0008001100FB1C021C1A70BB1C0A1C1A702D
:10086C007B681B68FA1C12785200032191400A0025
:10087C00D2431A407B681A607B681A68BB1C1978D3
:10088C00FB1C1B785B0099400B001A437B681A60B9
:10089C00BD4602B080BD80B582B000AF7860080064
:1008AC001100FB1C021C1A70BB1C0A1C1A707B6802
:1008BC009B68FA1C12785200032191400A00D24323
:1008CC001A407B689A607B689A68BB1C1B7819007D
:1008DC00FB1C1B785B0099400B001A437B689A60E9
:1008EC00BD4602B080BD80B582B000AF7860080014
:1008FC001100FB1C021C1A70BB1C0A1C1A707B68B2
:10090C00DB68FA1C12785200032191400A00D24392
:10091C001A407B68DA607B68DA68BB1C1978FB1CB0
:10092C001B785B0099400B001A437B68DA60BD466C
:10093C0002B080BD80B582B000AF786008001100B5
:10094C00FB1C021C1A70BB1C0A1C1A707B689B884F
:10095C009BB2FA1C1278110001228A4092B2D24347
:10096C0092B213409AB27B689A807B689B889AB249
:10097C00BB1C1B78F91C09788B409BB213439AB2B1
:10098C007B689A80BD4602B080BD80B584B000AF54
:10099C0078600A00FB1C1A707B681A68FB1C1B78B9
:1009AC005B00DA401300FB60FB68DBB203221340F0
:1009BC00DBB21800BD4604B080BD80B584B000AF7A
:1009CC0078600A00FB1C1A707B68DA68FB1C1B78C9
:1009DC005B00DA401300FB60FB68DBB203221340C0
:1009EC00DBB21800BD4604B080BD80B584B000AF4A
:1009FC0078600A00FB1C1A707B689A68FB1C1B78D9
:100A0C005B00DA401300FB60FB68DBB2032213408F
:100A1C00DBB21800BD4604B080BD80B584B000AF19
:100A2C0078600A00FB1C1A707B689B889BB21A00CA
:100A3C00FB1C1B781A411300FB60FB68DBB2012224
:100A4C001340DBB21800BD4604B080BD80B582B047
:100A5C0000AF78600A00FB1C1A70FB1C1B7801228B
:100A6C009A4013001A007B689A61BD4602B080BDA3
:100A7C0080B582B000AF78600A00FB1C1A70FB1CBA
:100A8C001B78103301229A4013001A007B689A617C
:100A9C00BD4602B080BD80B582B000AF7860080062
:100AAC001100FB1C021C1A70BB1C0A1C1A70BB1C0C
:100ABC001B78002B07D0FB1C1A787B6811001800E0
:100ACC00FFF7C4FF06E0FB1C1A787B6811001800C6
:100ADC00FFF7CEFFBD4602B080BD80B582B000AF3F
:100AEC0078600A00FB1C1A707B689B8A9BB21A0008
:100AFC00FB1C1B781A411300012213405A1E934110
:100B0C00DBB21800BD4602B080BDB0B584B000AFFA
:100B1C00F86008007A6019000B243B19021C1A704B
:100B2C000A257B190A1C1A707B191A787B6811002C
:100B3C001800FFF72AFF03001A003B191978FB680D
:100B4C001800FFF781FE7B191A787B6811001800DA
:100B5C00FFF763FF03001A003B191978FB681800B4
:100B6C00FFF7E8FE7B191A787B6811001800FFF775
:100B7C0024FF03001A003B191978FB681800FFF7D3
:100B8C00B2FE7B191A787B6811001800FFF72DFF55
:100B9C0003001A003B191978FB681800FFF77BFE5D
:100BAC00BD4604B0B0BD80B582B000AF78600A001D
:100BBC00FB1C1A707B6818687B681979FB1C1B7806
:100BCC001A00FFF741FEBD4602B080BD80B582B071
:100BDC0000AF78600A00FB1C1A707B6818687B6891
:100BEC001979FB1C1B781A00FFF755FEBD4602B0A5
:100BFC0080BD80B582B000AF78600A00FB1C1A7013
:100C0C007B6818687B681979FB1C1B781A00FFF746
:100C1C006AFEBD4602B080BD80B582B000AF786080
:100C2C000A00FB1C1A707B6818687B681979FB1C1E
:100C3C001B781A00FFF77EFEBD4602B080BD80B562
:100C4C0082B000AF78607B681A687B681B791900EA
:100C5C001000FFF7FBFEBD4602B080BD80B582B030
:100C6C0000AF78607B681A687B681B7919001000EC
:100C7C00FFF7FEFEBD4602B080BD80B582B000AF6E
:100C8C0078600A00FB1C1A707B6818687B681979FD
:100C9C00FB1C1B78013B5A425341DBB21A00FFF795
:100CAC00FAFEBD4602B080BD80B582B000AF786060
:100CBC007B681A687B681B7919001000FFF70DFF21
:100CCC00031E01D0012300E000231800BD4602B032
:100CDC0080BD90B583B000AF78600C001000190097
:100CEC00FB1C221C1A70BB1C021C1A707B1C0A1CDD
:100CFC001A70FB1C1A787B6811001800FFF753FF61
:100D0C00BB1C1A787B6811001800FFF785FF7B1C51
:100D1C001A787B6811001800FFF76BFF1823FB187B
:100D2C001A787B6811001800FFF750FFBD4603B01E
:100D3C0090BD80B582B000AF786039607B68186870
:100D4C007B6819793B681A683B681B79FFF7DDFEF5
:100D5C00BD4602B080BD80B582B000AF78600A009D
:100D6C00FB1C1A70FB1C1B7801225340DBB2002BBE
:100D7C0008D07B6800221A767B689B681800FFF706
:100D8C005EFF07E07B689B681800FFF767FF7B68D6
:100D9C0001221A76BD4602B080BD000080B500AFBE
:100DAC00024B1B681800BD4680BDC04628000020C1
:100DBC0080B500AFFFF7F2FF0300180000F002F857
:100DCC00BD4680BD80B584B000AF78607B68DB69C0
:100DDC005A425341DBB2002B05D07B68002118002E
:100DEC00FFF7B9FF60E07B681B681800FFF75CFF3A
:100DFC000300013B5A425341DBB2002B35D07B68D8
:100E0C001B6800211800FFF738FF7B68DB692A2B71
:100E1C0004D97B68DB692A3B1A0000E000227B685E
:100E2C00DA617B681B6A2A331A007B681A627B685A
:100E3C00DA697B681B6A9A4202D27B68DB6901E043
:100E4C007B681B6AFB60FB681721180002F008FC2A
:100E5C000300BB60BB68092B03D8BB680A22D21AFB
:100E6C0000E000227B685A621EE07B685B6A0A2203
:100E7C009A429B415B42DBB2002B02D07B680A2278
:100E8C005A627B685B6A5A425341DBB2002B06D034
:100E9C007B681B6801211800FFF7EFFE04E07B68FC
:100EAC005B6A5A1E7B685A62BD4604B080BD80B531
:100EBC0084B002AF78607B685868022300930023EB
:100ECC0000220121FFF705FF7B681A687B685B68CD
:100EDC0019001000FFF72DFF7B689A687B685B6830
:100EEC0019001000FFF725FF7B681A697B685B68A7
:100EFC0019001000FFF71DFF7B685A697B685B685F
:100F0C0019001000FFF715FF7B68DA687B685B68D7
:100F1C0019001000FFF70DFF7B681B681800FFF726
:100F2C009DFE7B685B681800FFF798FE7B689B68EA
:100F3C001800FFF784FE7B68DB681800FFF78EFE55
:100F4C007B680321180000F00BF87B680022DA6143
:100F5C007B6800221A6201231800BD4602B080BDD6
:100F6C0080B582B000AF78600A00FB1C1A70FB1CC5
:100F7C001B78012B13D002DC002B05D030E0022BA8
:100F8C0018D0032B21D02BE07B681B691800FFF7CE
:100F9C0065FE7B685B691800FFF760FE22E07B68EA
:100FAC001B691800FFF74BFE7B685B691800FFF7A5
:100FBC0055FE17E07B681B691800FFF74FFE7B6836
:100FCC005B691800FFF73BFE0CE07B681B6918009F
:100FDC00FFF735FE7B685B691800FFF730FE01E018
:100FEC00002300E001231800BD4602B080BD0000C4
:100FFC0080B582B000AF786039607B68012B09D175
:10100C003B68064A934205D1054A06480123022152
:10101C0001F06EF8BD4602B080BDC046FFFF000077
:10102C00BD0D0008A000002080B500AF034B1900D7
:10103C000120FFF7DDFFBD4680BDC046FFFF00006D
:10104C0080B582B000AF78607B685A687B689B681B
:10105C00D31A5A425341DBB21800BD4602B080BDD0
:10106C0080B582B000AF78607B681800FFF7E8FFAE
:10107C0003001A0001235340DBB21800BD4602B036
:10108C0080BD80B584B000AF78607B6824331800D5
:10109C00FFF7E6FF031E11D07B682433180000F025
:1010AC0051FF03001A000F217B181A707B181B7854
:1010BC00002BEAD00F23FB181B7800E0002318004C
:1010CC00BD4604B080BD000080B582B000AF786032
:1010DC003960084A7B681A607B6800225A603A685B
:1010EC007B681100180000F031F87B681800BD46D1
:1010FC0002B080BD2038000880B582B000AF7860A7
:10110C00034A7B681A607B681800BD4602B080BD3C
:10111C002038000880B582B000AF78607B6818007A
:10112C00FFF7EAFF7B680821180002F0E2F97B6800
:10113C001800BD4602B080BD80B582B000AF7860AB
:10114C007B685B681800BD4602B080BD80B582B07C
:10115C0000AF786039603A687B685A60BD4602B06F
:10116C0080BD80B582B000AF786039607B685B6809
:10117C003A681100180000F003F8BD4602B080BDBB
:10118C0080B582B000AF7860396039687B680A221C
:10119C00180002F0CEF9BD4602B080BD80B584B017
:1011AC0000AFF860B9607A60FB687A6811001800CB
:1011BC00FFF78AFF094AFB681A60FB68084A9A60C5
:1011CC00FB6800221A73BA68FB681100180000F063
:1011DC002DF8FB681800BD4604B080BD043800082B
:1011EC00C837000880B582B000AF7860054A7B68CC
:1011FC001A607B681800FFF77FFF7B681800BD46FC
:10120C0002B080BD0438000880B582B000AF7860B1
:10121C007B681800FFF7E6FF7B681021180002F0CE
:10122C0068F97B681800BD4602B080BD80B582B0FD
:10123C0000AF786039607B683A689A60BD4602B04E
:10124C0080BD80B584B000AF78607B685B68FB6064
:10125C007B685A687B681B691900100002F086FADB
:10126C000B001A007B685A607B685B68FA689A42CC
:10127C0006D07B681B6808331B687A681000984797
:10128C00BD4604B080BD80B582B000AF78607B688D
:10129C001B6808331B687A68100098477B685B688A
:1012AC005A1C7B685A607B6859687B681A690023F2
:1012BC0091425B41DBB2002B02D07B6800225A606A
:1012CC00BD4602B080BD80B586B000AFF860B96095
:1012DC007A60FB68DB687A689A4201D300231EE0CF
:1012EC00FB689B68BA689A4201D3002317E0FB683D
:1012FC005B687B61FB689B687A685A43BB68D21851
:10130C00FB685A60FB685B687A699A4206D0FB6896
:10131C001B6808331B68FA681000984701231800F3
:10132C00BD4606B080BD80B582B000AF78600A00C3
:10133C00FB1C1A707B681800FFF783FF7B685A69E7
:10134C007B685B68D318FA1C12781A707B681800DB
:10135C00FFF799FF7B681B6808331B687A681000DD
:10136C009847BD4602B080BD80B582B000AF7860B2
:10137C0039603B681B785BB2002B0AD03B685A1C67
:10138C003A6000229A567B6811001800FFF7CBFFD9
:10139C00EFE7BD4602B080BD80B584B000AFF86009
:1013AC00B9607A603B607A68B968FB681800FFF72F
:1013BC008AFF3A68FB6811001800FFF7D5FFBD469D
:1013CC0004B080BD80B584B000AF78600023FB60B2
:1013DC007B681B69FA689A4209D87B685A69FB6872
:1013EC00D31820221A70FB680133FB60F0E77B688E
:1013FC001B6808331B687A6810009847BD4604B018
:10140C0080BD000080B582B000AF786039607B6829
:10141C00012B23D13B68204A93421FD11F49204BFB
:10142C0032221800FFF7BAFEFA239A001D491E4B10
:10143C001800FFF7B3FEFA239A001C491C4B180046
:10144C00FFF7ACFE1B491C4B01221800FFF7A6FE50
:10145C001A491B4B01221800FFF7A0FE7B68002BDA
:10146C0017D13B680C4A934213D1154B1800FFF768
:10147C00B9FE114B1800FFF7B5FE0D4B1800FFF726
:10148C00B1FE094B1800FFF7ADFE054B1800FFF736
:10149C00A9FEBD4602B080BDFFFF00003438000835
:1014AC00B400002048380008C40000205C38000854
:1014BC00D400002070380008E400002078380008C0
:1014CC00F400002080B500AF034B19000120FFF79A
:1014DC0099FFBD4680BDC046FFFF000080B500AF40
:1014EC00034B19000020FFF78DFFBD4680BDC046A1
:1014FC00FFFF000080B582B000AF78607B685A684F
:10150C000449002391425B41DBB21800BD4602B096
:10151C0080BDC0468713000080B582B000AF0200CA
:10152C00FB1D1A70FB1D1B780C2B1CD89A00104B42
:10153C00D3181B689F462A2316E0232314E030237C
:10154C0012E0312310E032230EE033230CE034237D
:10155C000AE0352308E0362306E0372304E038237D
:10156C0002E0392300E000231800BD4602B080BD24
:10157C0084380008B0B584B000AF78600F257C19B2
:10158C007B681800FFF77DFD030023707B191B7827
:10159C001800FFF7C1FF03001800BD4604B0B0BD32
:1015AC0080B582B000AF78607B685B7F1800BD4669
:1015BC0002B080BD80B582B000AF78600A00FB1C21
:1015CC001A707B68FA1C12789A76BD4602B080BD00
:1015DC0080B500AF014B1800BD4680BD0401002052
:1015EC0080B500AFFFF7F4FF0300180000F040F8DF
:1015FC00BD4680BD80B582B000AF78600B4A7B6879
:10160C001A607B6800225A607B6800229A607B68B3
:10161C000022DA607B6800221A617B6800225A6122
:10162C007B681800BD4602B080BDC046C0380008BB
:10163C0080B582B000AF7860034A7B681A607B6823
:10164C001800BD4602B080BDC038000880B582B01D
:10165C0000AF78607B681800FFF7EAFF7B68182101
:10166C00180001F046FF7B681800BD4602B080BD33
:10167C00B0B584B000AF7860264B1B680F257C1981
:10168C001800FFF777FF030023707B191B785BB200
:10169C00002B09D0204B1A680F23FB181B785BB268
:1016AC0019001000FFF73FFE7B681800FFF722FFC0
:1016BC00031E05D07B685B680C331A007B685A608C
:1016CC00144B1B681800FFF76BFF03005A1E934165
:1016DC00DBB2002B02D07B6800229A607B689B688F
:1016EC000E4A93420CD87B689B680C331A007B68BB
:1016FC009A60094B1B6801211800FFF75BFF05E09E
:10170C00054B1B6800211800FFF754FFBD4604B0C1
:10171C00B0BDC0462400002040020020BFD4010010
:10172C0080B582B000AF786039607B68012B0DD139
:10173C003B680D4A934209D10C4B1800FFF75AFF36
:10174C000B4A0C480C23022100F0D2FC7B68002BC6
:10175C0007D13B68044A934203D1044B1800FFF7AE
:10176C0067FFBD4602B080BDFFFF000004010020F2
:10177C00ED1500081C01002080B500AF034B1900CB
:10178C000120FFF7CDFFBD4680BDC046FFFF000026
:10179C0080B500AF034B19000020FFF7C1FFBD4619
:1017AC0080BDC046FFFF000080B582B000AF0200D4
:1017BC00FB1D1A70034BFA1D12781A70BD4602B04D
:1017CC0080BDC0462C00002080B586B002AFF8600A
:1017DC00B960FB1D1A70FB68BA681A60FB68FA1DC9
:1017EC0012781A71F8680023009300230122032158
:1017FC00FFF76FFAFB681800BD4604B080BD80B5DA
:10180C0082B000AF78600A00FB1C1A70FB1C1B78BE
:10181C00002B08D07B6824331A00FB1C1B781900A2
:10182C00100000F058FBBD4602B080BD80B586B0FC
:10183C0000AFF860B9607A603B60FB68BA681A6008
:10184C00FB687A685A60FB683A689A60FB683A6A87
:10185C00DA60FB687A6A1A61FB68BA6A5A61FB68DB
:10186C00FA6A9A61FB6800221A77FB6800225A77A1
:10187C00FB6824331800FB681E330422190000F0A7
:10188C0013FB1623FB1800221A801623FB181B8847
:10189C00032B0CD816217B181B88FA68D31800224E
:1018AC009A777B181A887B1801321A80EDE7FB684F
:1018BC001800BD4606B080BD80B584B002AF78601C
:1018CC007B68186802230093002300220121FFF794
:1018DC0000FA7B685A687B681B6819001000FFF7D8
:1018EC0028FA7B689A687B681B6819001000FFF760
:1018FC0020FA7B68D868022300930123012200217F
:10190C00FFF7E7F97B681A697B68DB681900100040
:10191C00FFF70FFA7B685A697B68DB6819001000C7
:10192C00FFF707FA7B689A697B68DB68190010007F
:10193C00FFF7FFF9BD4602B080BDB0B584B000AF73
:10194C0078600F257C197B681800FFF729FE0300CF
:10195C0023707B681B7F7A1912789A4210D07B68AF
:10196C000F217A1812781A777B181B78002B07D066
:10197C000F23FB181A787B6811001800FFF73FFF44
:10198C00BD4604B0B0BD80B582B000AF78607B6856
:10199C001B6808331B687A6810009847BD4602B074
:1019AC0080BD80B582B000AF78607B685B68002B2F
:1019BC0006D07B681B6808331B687A681000984750
:1019CC007B6800225A60BD4602B080BD80B586B0EF
:1019DC0002AF7860104B5A690F4B9C21C9030A4324
:1019EC005A610D4B5B69FB60FB687B6898331A008E
:1019FC007B68103319001000FFF79BF97B68A0334C
:101A0C00180000230093012301220021FFF761F944
:101A1C00BD4604B080BDC0460010024080B584B005
:101A2C0000AFF860B9607A603B60FB68BA681A6016
:101A3C00FB687A685A60FB683A689A60FB68BA6916
:101A4C00DA60FB68FA691A61FB683A6A5A61FB68EA
:101A5C0000221A76FB680022DA61FB6800221A6207
:101A6C00FB6800225A62FB681800BD4604B080BDBA
:101A7C0080B582B000AF786001231800BD4602B07B
:101A8C0080BD000080B582B000AF7860786890238C
:101A9C00DB050C221900FFF797FE7B6808336849B9
:101AAC0006221800FFF790FE7B681033644907226A
:101ABC001800FFF789FE7B68183362490D22180065
:101ACC00FFF782FE7B68203318009023DB050F2282
:101ADC001900FFF779FE7B6828335B490322180055
:101AEC00FFF772FE7B683033574904221800FFF76A
:101AFC006BFE7B683833544905221800FFF764FEEF
:101B0C007B684033504906221800FFF75DFE7B6866
:101B1C0048334D4907221800FFF756FE7B685033B7
:101B2C00494908221800FFF74FFE7B685833464995
:101B3C0009221800FFF748FE7B68603342490C22EB
:101B4C001800FFF741FE7B6868333F490D221800EF
:101B5C00FFF73AFE7B6870333B490E221800FFF703
:101B6C0033FE7B68783338490F221800FFF72CFEC0
:101B7C007B68803318009023DB0508221900FFF7DF
:101B8C0023FE7B68883318009023DB05092219009B
:101B9C00FFF71AFE7B68903318009023DB050A22AE
:101BAC001900FFF711FE7B68983318009023DB05B2
:101BBC0000221900FFF708FE7B68A0331800902361
:101BCC00DB0501221900FFF7FFFD7B68A833180025
:101BDC009023DB0502221900FFF7F6FD7B68B0337A
:101BEC0018009023DB0503221900FFF7EDFD7B683D
:101BFC00B83318009023DB0504221900FFF7E4FD2D
:101C0C007B68C03318009023DB0505221900FFF711
:101C1C00DBFD7B68C83318009023DB050622190016
:101C2C00FFF7D2FD7B68D03318009023DB05072229
:101C3C001900FFF7C9FD7B681800BD4602B080BDD6
:101C4C0000140048000800480004004880B500AFAC
:101C5C00034B1B681800FFF770FEBD4680BDC046E5
:101C6C002400002090B585B002AF78603960FEF793
:101C7C00BDFD0120FFF798FD00F092FA204B1B6888
:101C8C001800FFF7A3FE1F4B18681D4B1B68103381
:101C9C0019001B4B1B6808331A00194B1B681C00DE
:101CAC00174B1B6818330193174B0093230000F05C
:101CBC0003FD164B1B681800FFF7FEFDFFF788FCB1
:101CCC0003001800FFF7D4FE114B1B681800FFF738
:101CDC00EEF80020FFF768FD0E4B18680E4B002243
:101CEC000021FFF759FB0B4B1B681800FFF759FE3F
:101CFC00084B1B681800FFF746FE00F0C5F9FCE71F
:101D0C00200000203C0200206C0200202400002057
:101D1C002800002040020020C8380008F0B587B029
:101D2C0004AF786039607B68012B00D099E03B6888
:101D3C004D4A934200D094E04C4B1800D8231A0023
:101D4C00002101F019FD494B1800FFF79BFE484B91
:101D5C001B6880331D00464B1B6888331E00444BA8
:101D6C001B68902294469C44414B1B6860331A00BC
:101D7C003F4B1B68683319003D4B1B6870331800D0
:101D8C003B4B1B6878333B4C0393029001910092C0
:101D9C006346320029002000FFF748FD00F062FC8A
:101DAC000200354B1A60344B1B68180000F06CFCB9
:101DBC000200324B1A602E4B1B68C8331C002C4B94
:101DCC001B68D0331D002A4B1B68A8331E00284B00
:101DDC001B68C0331A00264B1B68B0331900244B08
:101DEC001B68B833264802930191009233002A00F5
:101DFC002100FFF713FE1E4B1B6820331A00214BEA
:101E0C001A601B4B1B6828331A001E4B5A60184B68
:101E1C001B6830331A001B4B9A60154B1B68383308
:101E2C001A00184BDA60124B1B6840331A00154B22
:101E3C001A610F4B1B6848331A00124B5A610C4B3A
:101E4C001B6850331A000F4B9A61094B1B685833AF
:101E5C001A000C4BDA610C4A0C480523022100F0E5
:101E6C0047F9BD4603B0F0BDFFFF00003001002074
:101E7C0020000020080200203C020020400200202C
:101E8C00440200206C020020591C00088C02002027
:101E9C0080B500AF034B19000120FFF73FFFBD4693
:101EAC0080BDC046FFFF000080B584B000AFF86075
:101EBC00B9607A60FB687A681A60FB68BA68DA60A5
:101ECC00FB6800229A60FB6800225A60FB681800CD
:101EDC00BD4604B080BD80B584B000AF78600A0008
:101EEC00FB1C1A707B685B68FB607B689B68BB6043
:101EFC00FB680133BA689A4201D100231EE0BB682B
:101F0C00002B07D17B681B68013BFA689A4201D110
:101F1C00002313E07B68DA68FB68591CF960D3185E
:101F2C00FA1C12781A707B681B68FA689A4201D204
:101F3C00FA6800E000227B685A6001231800BD4655
:101F4C0004B080BD80B586B000AF78607B689B68BC
:101F5C007B617B685B683B617A693B699A4202D121
:101F6C00FF231B0217E07B68DA687B69591C7961D7
:101F7C00D2180F23FB1812781A707B681B687A69C9
:101F8C009A4201D27A6900E000227B689A600F23A2
:101F9C00FB181B789BB21800BD4606B080BD80B5FF
:101FAC0082B000AF78607B6800225A76BD4602B0E2
:101FBC0080BD80B582B000AF7860BD4602B080BDF8
:101FCC0080B582B000AF78607B6801225A76BD463E
:101FDC0002B080BD80B582B000AF78607B685B7E5C
:101FEC00DBB21800BD4602B080BD80B582B000AF38
:101FFC0078607B685B691800BD4602B080BD00004C
:10200C0080B582B000AF7860034A7B681A607B6849
:10201C001800BD4602B080BDDC38000880B584B025
:10202C0000AF7860164B1A687B68D218144B1A6094
:10203C00144B1B68FB60FB68002B1DD0FB685B7CA2
:10204C00022B15D1FB681B687A689A429B415B4254
:10205C00DBB2002B06D0FB681A687B68D21AFB68CF
:10206C001A6005E0FB6801225A74FB6800221A60B2
:10207C00FB689B68FB60DEE7BD4604B080BDC046D4
:10208C00A4020020A002002080B582B000AF164B45
:10209C001B78DBB2002B24D1144B1B687B607B6854
:1020AC00002B1ED07B685B7C012B16D17B681B7CC4
:1020BC00012B0CD0022B10D17B685A687B681A60FC
:1020CC007B6802225A747B68DB68984705E07B6862
:1020DC0000225A747B68DB6898477B689B687B603E
:1020EC00DDE7BD4602B080BD2C000020A002002020
:1020FC0080B586B000AFF8607A603B600B203B186F
:10210C000A1C1A70FB6800225A74FB683A18127881
:10211C001A74FB687A68DA60FB683A685A60184B84
:10212C001B68002B0AD1164BFA681A60144B1B68FB
:10213C0000229A60FB6802225A741BE0104B1B6849
:10214C007B617B699B68002B07D07A69FB689A429C
:10215C0010D07B699B687B61F3E77A69FB689A42D4
:10216C0008D0FB6800229A607B69FA689A60FB6869
:10217C0002225A74FB681800BD4606B080BDC046EA
:10218C00A002002080B500AF0120FFF747FFBD463D
:10219C0080BD80B500AF01231800BD4680BD000096
:1021AC0090B583B000AF01F0B1F8FB1D01221A709D
:1021BC0000F04EFC03001A00FB1D043A51424A4148
:1021CC001A7001F0B9F83B1D00221A803B1D1B88C8
:1021DC00062B33D8BB1C00221A803B1D1B885A00CF
:1021EC00194BD218BC1C3B1D1B881100180000F0A9
:1021FC0019FE03002380BB1C1B88012B11D13B1D36
:10220C001B88DBB20021180000F020F803001A0034
:10221C0001235340DBB2002B0AD0FB1D00221A70A5
:10222C0006E0BB1C1B88012B02D9FB1D00221A7077
:10223C003B1D1A883B1D01321A80C7E7FB1D1B781A
:10224C001800BD4603B090BDBC02002080B584B020
:10225C0000AF0200FB1D1A703B1D0A1C1A80FB1DEF
:10226C001B780A2B01D9002340E0FB1D1B78072BA0
:10227C0001D900233AE0FB1D1A781E4B5200D35AA9
:10228C003A1D12889A4201D101232FE00F23FB182B
:10229C0001221A70FFF77DFF031E20D001F036F8E3
:1022AC00FB1D1B789AB23B1D1B881900100000F017
:1022BC001DFE0300043B5A1E9341DBB2002B04D0DD
:1022CC000F23FB1800221A7006E0FB1D1A78094B2D
:1022DC005200391D0988D15201F02EF803E00F236A
:1022EC00FB1800221A700F23FB181B781800BD4630
:1022FC0004B080BDBC02002080B582B000AF786015
:10230C000A00FB1C1A707B6818687B681979FB1C27
:10231C001B781A00FEF7BFFBBD4602B080BD000063
:10232C0080B584B000AFF860B9607A603B60144A45
:10233C00FB681A60FB6800229A76FB68BA689A60A0
:10234C00FB687A68DA60FB683A685A61FB68DA689D
:10235C00FB689B685A43FB681A61FB6800225A6051
:10236C00FB6800221A76FB681800FFF72BF8FB6855
:10237C0001225A76FB681800BD4604B080BDC046E9
:10238C00DC38000880B584B000AFF860B9607A60C2
:10239C003B60F8683B687A68B968FFF7C1FF044A8C
:1023AC00FB681A60FB681800BD4604B080BDC046CF
:1023BC000439000880B582B000AF7860054A7B68AC
:1023CC001A607B681800FFF71BFE7B681800BD467F
:1023DC0002B080BD0439000880B582B000AF7860CF
:1023EC007B681800FFF7E6FF7B681C21180001F0E2
:1023FC0080F87B681800BD4602B080BD80B582B005
:10240C0000AF78607B681800FFF7EFFD0300180041
:10241C00BD4602B080BD80B582B000AF78607B68ED
:10242C001800FFF7D7FD03001800BD4602B080BDB1
:10243C0080B582B000AF78607B681800FFF7B9FDFB
:10244C00BD4602B080BD80B582B000AF78607B68BD
:10245C001800FFF7A4FDBD4602B080BD80B582B068
:10246C0000AF78607B689B7E1800BD4602B080BDD3
:10247C0090B585B000AF78600A00FB1C1A700F2372
:10248C00FB1800221A700F23FB181B78072B1BD884
:10249C007B68DB680F243A1912789200D058FB1C29
:1024AC001B78012213405A1E9341DBB21900FFF72F
:1024BC0023FFFB1C1B785A10FB1C1A703B191A7853
:1024CC003B1901321A70DEE7BD4605B090BD80B5F0
:1024DC0082B000AF78600A00FB1C1A70FB1C1A78E3
:1024EC007B6811001800FFF7C3FF7B689B68002115
:1024FC001800FFF701FF7B685B6800211800FFF7ED
:10250C00FBFEBD4602B080BD80B582B000AF7860E6
:10251C000A00FB1C1A70FB1C1A787B68110018004F
:10252C00FFF7A6FF7B689B6801211800FFF7E4FE0C
:10253C007B685B6800211800FFF7DEFEBD4602B029
:10254C0080BD80B582B000AF78607B6800221A60D5
:10255C007B6800225A607B6800229A607B680022AC
:10256C00DA607B6800221A617B6800225A617B6802
:10257C0001221A767B681800BD4602B080BD80B57A
:10258C0082B000AF78600A00FB1C1A707B681A6975
:10259C00FB1C1B7819001000FFF7AEFEBD4602B005
:1025AC0080BD80B584B000AF786008001100FB1CC2
:1025BC00021C1A70BB1C0A1C1A70FB1C1B78102BFB
:1025CC0001D900231EE00023FB60BB1C1B78022BEF
:1025DC0006D0032B07D0012B08D14023FB6007E06A
:1025EC001023FB6004E05023FB6001E00023FB6040
:1025FC00FB68DAB2FB1C1B781343DBB2802252421D
:10260C001343DBB21800BD4604B080BD80B500AFEB
:10261C00024B1B681800BD4680BDC046A4020020BA
:10262C0080B584B000AF7860FFF7F0FF0300FB606B
:10263C00FFF7ECFF0200FB68D21A7B689A429B41C1
:10264C005B42DBB2002BF3D1BD4604B080BD80B53C
:10265C0082B000AF78607B681800FFF7E1FFBD46E1
:10266C0002B080BD80B500AF014B1800BD4680BDE7
:10267C00D002002080B500AFFFF7F4FF0300180074
:10268C0000F0F8F8BD4680BD80B582B000AF786030
:10269C00024B1800BD4602B080BDC046240300208A
:1026AC0080B582B000AF786039603B681800FFF7E6
:1026BC00CEFFBD4602B080BD80B584B000AFF860DF
:1026CC00B9607A603B60FB68BA681A60FB687A682C
:1026DC005A60FB683A689A60FB68BA69DA60FB6812
:1026EC00FA691A61FB68180000F005F8030018007D
:1026FC00BD4604B080BD90B587B002AF78607B68F2
:10270C00186802230093002300220121FEF7E1FA4E
:10271C007B685A687B681B6819001000FEF709FB80
:10272C007B681A697B681B6819001000FEF701FBB7
:10273C007B689A687B681B6819001000FEF7F9FA31
:10274C000F23FB1800221A700F23FB181B78072B82
:10275C0012D87B68DB680F243A1912789200D25891
:10276C007B681B6819001000FEF7E3FA3B191A7816
:10277C003B1901321A70E7E77B6801211800FFF75B
:10278C00FEFE7B6832211800FFF78AFF7B6864210C
:10279C001800FFF785FF96235A007B683821180034
:1027AC0000F03BF896235A007B683921180000F0A2
:1027BC0034F87B6864221421180000F02EF87B6832
:1027CC001E227421180000F028F87B681E22542168
:1027DC00180000F022F87B681E226F21180000F010
:1027EC001CF87B6864220C21180000F016F87B683A
:1027FC0064220121180000F010F87B686422382153
:10280C00180000F00AF87B6800211800FFF7B7FEEB
:10281C0001231800BD4605B090BD80B584B000AF53
:10282C00F8607A600B203B180A1C1A703B181A7857
:10283C00FB6811001800FFF74AFEFB681B680121BA
:10284C001800FFF759FDFB6802211800FFF728FF5D
:10285C00FB681B6800211800FFF74EFD7A68FB68C7
:10286C0011001800FFF71CFF01231800BD4604B02F
:10287C0080BD0000B0B586B000AF78607B681C6985
:10288C00464B1800FFF7EAFD031E01D0012300E0C0
:10289C00002319002000FEF7F0F97B681B68180074
:1028AC00FEF702FA0300013B5A425341DBB2002B04
:1028BC0005D07B681B681800FEF7D0F96AE0374B2F
:1028CC001800FFF7A8FD03001A0001235340DBB2E8
:1028DC00002B5FD17B685B690F2213402BD17B6887
:1028EC001B7E002B27D07B685B69002B03D12B4B05
:1028FC001800FFF7A8FD7B685B691A0917217B1884
:10290C001A7016257C197B181A787B680021180020
:10291C00FFF747FE030023707B191B78802252427D
:10292C001343DAB27B6811001800FFF7D0FD7B6807
:10293C0000221A7629E0194B1800FFF75FFD0300FF
:10294C003B617B685B693A69D2180F23FB181278DC
:10295C001A707B685B695A1C7B685A617B685B697F
:10296C001F2B06D97B6800225A610C4B1800FFF70D
:10297C005FFD0F23FB1800229A567B68110018008C
:10298C00FFF7C2FD7B6801221A767B681B68180072
:10299C00FEF755F9BD4606B0B0BDC0462403002075
:1029AC0080B582B000AF786039607B68012B19D19B
:1029BC003B68134A934215D1124B1800FFF7C1FD27
:1029CC00114A124802230221FFF792FB104B1148C7
:1029DC0002221021FFF7D6FC0F49104B21221800C0
:1029EC00FFF762FA7B68002B07D13B68044A9342DD
:1029FC0003D1084B1800FFF7DDFCBD4602B080BDCB
:102A0C00FFFF0000D002002081260008EC0200200D
:102A1C000003002024030020400300206403002056
:102A2C0080B500AF034B19000120FFF7B9FFBD467D
:102A3C0080BDC046FFFF000080B500AF034B1900FE
:102A4C000020FFF7ADFFBD4680BDC046FFFF000074
:102A5C0090B585B000AF0A217B1806221A80082099
:102A6C003B1806221A800E23FB1800221A80BB1D6D
:102A7C0000221A803B1D00221A800C23FB18012215
:102A8C0052421A80BC4A7B1812881A80BB4A3B18E7
:102A9C0012881A807B181B88B94A93424FD0B94AC6
:102AAC00934203D0002B00D1F5E09FE10823FB18E3
:102ABC001B88002B0FD1B04B180000F049FC030011
:102ACC001A00BB1C1A80BB1C1B88042B00D19AE17A
:102ADC00BB1C1B889DE10823FB181B88A84A93424A
:102AEC001FD1A54B180000F033FC03001A00BB1CCF
:102AFC001A80BB1C1B88042B02D0BB1C1B8888E1D2
:102B0C009E4B0021180000F05FFC03001A00BB1C58
:102B1C001A80BB1C1B88042B00D174E1BB1C1B88C6
:102B2C0077E100F013FA03001A00BB1C1A80BB1CDF
:102B3C001B88042B00D166E1BB1C1B8869E10823B0
:102B4C00FB181B88002B00D071E00E23FB18002211
:102B5C001A8047E08C4B1B889AB20E23FB181988FD
:102B6C008A4B4900CB5A9A4205D10C23FB180E22F2
:102B7C00BA1812881A800E23FB181A880C23FB181B
:102B8C0000215B5E9A4227D00E23FB181A887F4BDC
:102B9C005200D35A3C1D7E4A1100180000F042F935
:102BAC00030023803B1D1B88012B15D00E23FB1823
:102BBC001A88764B5200D25A754B1B88BC1D1900D3
:102BCC00100000F04FFA03002380BB1D1B88042B60
:102BDC0002D0BB1D1B881CE10E217B181A887B18A8
:102BEC0001321A800E23FB181B88092BB2D9624BB9
:102BFC000021180000F0E8FB03001A00BB1C1A802F
:102C0C00BB1C1B88042B02D0BB1C1B8801E15B4B3B
:102C1C00180000F09DFB03001A00BB1C1A80BB1CA3
:102C2C001B88042B00D1F0E0BB1C1B88F1E00823AF
:102C3C00FB181B88534A93421FD1504B180000F0CD
:102C4C0087FB03001A00BB1C1A80BB1C1B88042BBF
:102C5C0002D0BB1C1B88DCE0474B0021180000F0A5
:102C6C00B3FB03001A00BB1C1A80BB1C1B88042B73
:102C7C0000D1CAE0BB1C1B88CBE000F067F9030055
:102C8C001A00BB1C1A80BB1C1B88042B00D1BCE097
:102C9C00BB1C1B88BDE00823FB181B88002B0DD127
:102CAC0000F054F903001A00BB1C1A80BB1C1B88D3
:102CBC00042B00D1ABE0BB1C1B88AAE00823FB183B
:102CCC001B88304A93420FD12C4B180000F040FB6C
:102CDC0003001A00BB1C1A80BB1C1B88042B00D1E0
:102CEC0095E0BB1C1B8894E00E23FB1800221A8075
:102CFC0058E0284B1B889AB20E23FB181988234BDB
:102D0C004900CB5A9A4205D10C23FB180E22BA1853
:102D1C0012881A800E23FB181A880C23FB1800212A
:102D2C005B5E9A4238D00E23FB181A88174B520060
:102D3C00D35A3C1D164A1100180000F073F803001A
:102D4C0023803B1D1B88012B26D00E23FB181A88D1
:102D5C000E4B5200D25A0E4B1B88BC1D1900100092
:102D6C0000F080F903002380BB1D1B88042B13D0BB
:102D7C00BB1D1B884DE0C04600780008007C000895
:102D8C00EEEE0000FFFF000006780008A80200200D
:102D9C0074030020067C00080E217B181A887B180F
:102DAC0001321A800E23FB181B88092BA1D91B4B4F
:102DBC000021180000F008FB03001A00BB1C1A804D
:102DCC00BB1C1B88042B02D0BB1C1B8821E0144BA2
:102DDC00180000F0BDFA03001A00BB1C1A80BB1CC3
:102DEC001B88042B13D0BB1C1B8812E000F0AEF820
:102DFC0003001A00BB1C1A80BB1C1B88042B07D0B9
:102E0C00BB1C1B8805E0C04602E0C04600E0C04683
:102E1C0004231800BD4605B090BDC046007C0008D8
:102E2C0000780008B0B586B000AF02003960BB1D59
:102E3C001A800E217B1800221A800C23FB18274ABB
:102E4C001A801623FB1801221A80254B3B61244B58
:102E5C00BB600D007C18002000F0ACF80300238050
:102E6C0029007B181B88AB2B01D1AB2331E00E2240
:102E7C00BB181B881B498C4663449B02BB60BB1868
:102E8C001B8801339B02184A944663443B6118E04B
:102E9C003A690C217B1812881A807A18BB1D12888B
:102EAC001B889A420AD13B69023B1B889AB23B6849
:102EBC001A801623FB1800221A8007E03B69043B9A
:102ECC003B61BB6802333A699A42E1D81623FB187E
:102EDC001B881800BD4606B0B0BDC0465555000055
:102EEC00000001081E000200FE770008B0B584B097
:102EFC0000AF0200BB1D1A803B1D0A1C1A800E2558
:102F0C007B1900221A807C193B1D1A88BB1D1B885B
:102F1C001100180000F0A6F8030023807B191B8811
:102F2C00802B0BD10E23FC183B1D1A88BB1D1B8854
:102F3C001100180000F006F9030023800E23FB1883
:102F4C001B881800BD4604B0B0BD000090B583B01E
:102F5C0000AFFB1D04221A70FC1D144B180000F06E
:102F6C00F7F903002370FB1D1B78042B02D0FB1D0B
:102F7C001B7817E0FC1D0D4B0021180000F024FA03
:102F8C0003002370FB1D1B78042B02D0FB1D1B7848
:102F9C0008E0FC1D064B180000F0DAF90300237062
:102FAC00FB1D1B781800BD4603B090BD00780008CF
:102FBC00007C000880B584B000AF0200FB1D1A70C5
:102FCC000E217B1806221A800C203B1806221A8030
:102FDC00214A7B1812881A80204A3B1812881A80C2
:102FEC00FB1D1B78002B21D0012B2FD10C23FB18A0
:102FFC001B88002B09D10E23FB181B88184A9342FF
:10300C0001D1002323E0012321E00E23FB181B88B0
:10301C00002B09D10C23FB181B88114A934201D1B8
:10302C00012314E0002312E0AB2310E00E23FB1865
:10303C001B88002B01D1002309E00C23FB181B88F3
:10304C00002B01D1012302E0AB2300E00023180088
:10305C00BD4604B080BDC04600780008007C000866
:10306C00EEEE0000B0B586B000AF0200BB1D1A80BA
:10307C003B1D0A1C1A801323FB1804221A70102102
:10308C007B1800221A802B4B7B612B4BFB600D00B5
:10309C007C180120FFF78EFF0300238029007B188A
:1030AC001B88AB2B01D1AB2340E01022BB181B8833
:1030BC0022498C4663449B027B61BB181B880133FD
:1030CC009B021F4A94466344FB602AE07B691B68A1
:1030DC00013323D113257C193B1D1A887B69110000
:1030EC00180000F071F9030023707B191B78042B76
:1030FC0004D01323FB181B789BB217E07B699A1C36
:10310C0013257C19BB1D1B881900100000F05CF9FD
:10311C00030023707B191B789BB207E07B69043397
:10312C007B617A69FB689A42D0D380231800BD4634
:10313C0006B0B0BD00000108FF0701081E00020028
:10314C00FE770008B0B588B000AF0200BB1D1A8036
:10315C003B1D0A1C1A801523FB1804221A70644BA1
:10316C00FB61644BBB6112217B1800221A80162371
:10317C00FB1800221A801023FB1800221A800E2341
:10318C00FB1800221A800D007C180020FFF712FF9C
:10319C000300238029007B181B88012B04D1564B7C
:1031AC00FB61564BBB610BE01223FB181B88002BF9
:1031BC0004D1524BFB61504BBB6101E0AB2392E05D
:1031CC0015257C194E4AFB691100180000F0FCF81B
:1031DC00030023707B191B78042B04D01523FB18D8
:1031EC001B789BB27FE010257C193B1D1A88BB1DF8
:1031FC001B8811001800FFF735FF030023807B1993
:10320C001B88042B03D01023FB181B886BE01623A0
:10321C00FB1800221A803AE01623FB181A88394B47
:10322C005200D35ABA1D12889A422AD01623FB1880
:10323C001A88344B5200D35A0E257C19324A11008D
:10324C001800FFF7EFFD030023807B191B88012B6F
:10325C0017D01623FB181A882A4B5200D25A2A4B25
:10326C001B8810257C1919001000FFF7FBFE0300CA
:10327C0023807B191B88042B03D01023FB181B887D
:10328C0031E016217B181A887B1801321A8016231C
:10329C00FB181B88092BBFD915257C19BB69180095
:1032AC0000F056F8030023707B191B78042B04D014
:1032BC001523FB181B789BB215E015257C19FB69AF
:1032CC000021180000F080F8030023707B191B7894
:1032DC00042B04D01523FB181B789BB203E0152399
:1032EC00FB181B789BB21800BD4608B0B0BDC04699
:1032FC00FF0301080000010800780008007C0008AA
:10330C00EEEE0000A80200207403002080B500AF90
:10331C00064B1B698022134005D0044B044A5A60AB
:10332C00024B044A5A60BD4680BDC0460020024094
:10333C0023016745AB89EFCD80B500AF034B1A690C
:10334C00024B80210A431A61BD4680BD0020024019
:10335C00B0B584B000AF78600F257B1904221A70C9
:10336C007C19B0231B03180000F096F8030023709F
:10337C007B191B78042B1DD1124B1A69114B02219E
:10338C000A431A610F4B7A685A610E4B1A690D4B3E
:10339C0040210A431A610F23FC18B0231B031800A9
:1033AC0000F07AF803002370064B1A69054B0221D2
:1033BC008A431A610F23FB181B781800BD4604B012
:1033CC00B0BDC04600200240B0B584B000AF7860FC
:1033DC000A00BB1C1A800F257B1904221A707C1959
:1033EC00B0231B03180000F057F8030023707B195F
:1033FC001B78042B18D1104B1A690F4B01210A436F
:10340C001A617B68BA1C12881A800F23FC18B0232F
:10341C001B03180000F040F803002370064B1A69D8
:10342C00054B01218A431A610F23FB181B781800E6
:10343C00BD4604B0B0BDC0460020024080B582B08D
:10344C0000AFFB1D04221A70124BDB6801221340E3
:10345C00012B03D1FB1D01221A7014E00D4BDB680C
:10346C001022134003D0FB1D02221A700BE0094BF3
:10347C00DB680422134003D0FB1D03221A7002E008
:10348C00FB1D04221A70FB1D1B781800BD4602B0F0
:10349C0080BDC0460020024090B585B000AF78607A
:1034AC000F217B1804221A707C18FFF7C7FF03004A
:1034BC00237008E00F23FC18FFF7C0FF03002370F4
:1034CC007B68013B7B600F23FB181B78012B02D11F
:1034DC007B68002BEED17B68002B03D10F23FB18EC
:1034EC0005221A700F23FB181B781800BD4605B077
:1034FC0090BD10B500F001F810BD10B500F01EF82D
:10350C0010BD931E10B50C00222B04D900231C00F7
:10351C000B70200010BD0A2A09D1002807DA2D23D0
:10352C000B7001214042611800F05CF8F1E70021BA
:10353C00F9E710B5FFF7E5FF10BD000010B5034B20
:10354C000100186800F004F810BDC04630000020DF
:10355C0070B50500002910D00C1F2368002B00DA71
:10356C00E418280000F079F81D4A1368002B05D1E7
:10357C0063601460280000F071F870BDA34209D993
:10358C00216860188342F3D118685B684118216088
:10359C00EEE713005A68002A01D0A242F9D9196843
:1035AC005818A0420BD1206809185818196082428B
:1035BC00E0D110685268411819605A60DAE7A042ED
:1035CC0002D90C232B60D5E721686018824203D105
:1035DC00106852684118216062605C60CAE7C0469E
:1035EC0078030020F0B517008DB0252206000D00E1
:1035FC0002A8144900F028F802AABB1E002401926C
:10360C00222B05D92C70250028000DB0F0BD14001C
:10361C003000390000F0AAF884460198621CAB18FF
:10362C00415C5E1E31706646002EF0D11E702B0080
:10363C005A1B9442E8DD1A78295D19702A5501331A
:10364C00013CF5E724390008002310B59A4200D15B
:10365C0010BDCC5CC4540133F8E7704770470000D0
:10366C00002243088B4274D303098B425FD3030AB5
:10367C008B4244D3030B8B4228D3030C8B420DD3C8
:10368C00FF22090212BA030C8B4202D31212090256
:10369C0065D0030B8B4219D300E0090AC30B8B4294
:1036AC0001D3CB03C01A5241830B8B4201D38B0342
:1036BC00C01A5241430B8B4201D34B03C01A5241E7
:1036CC00030B8B4201D30B03C01A5241C30A8B422A
:1036DC0001D3CB02C01A5241830A8B4201D38B0215
:1036EC00C01A5241430A8B4201D34B02C01A5241B9
:1036FC00030A8B4201D30B02C01A5241CDD2C3092B
:10370C008B4201D3CB01C01A524183098B4201D3A6
:10371C008B01C01A524143098B4201D34B01C01A91
:10372C00524103098B4201D30B01C01A5241C30809
:10373C008B4201D3CB00C01A524183088B4201D378
:10374C008B00C01A524143088B4201D34B00C01A64
:10375C005241411A00D20146524110467047FFE7D0
:10376C0001B5002000F006F802BDC0460029F7D0D4
:10377C0076E770477047C04603001218934200D199
:10378C00704719700133F9E75F5F6378615F70759B
:10379C0072655F7669727475616C000061626F723C
:1037AC007428292C2065786974696E672E2E2E007A
:1037BC002C2066756E6374696F6E3A2000000000F1
:1037CC00617373657274696F6E2022257322206693
:1037DC0061696C65643A2066696C652022257322E8
:1037EC002C206C696E65202564257325730A0000F6
:1037FC000000000000000000F11100081512000884
:10380C0045110008591100086F1100080000000054
:10381C0000000000051100082111000845110008E6
:10382C00591100086F110008444C55474F53433A47
:10383C003030303030206D6D00000000494C4F535B
:10384C00433A303030303020737A742E0000000050
:10385C004B414C49425241432E3A303030206D6D31
:10386C0000000000205B3030305D20003C303030F8
:10387C0030303E2000000000721500084E15000884
:10388C0052150008561500085A1500085E15000858
:10389C0062150008661500086A1500086E15000808
:1038AC004A150008421500084615000800000000E3
:1038BC00000000003D160008591600083132333460
:1038CC0035363738393000000000000000000000A9
:1038DC00AB1F0008BF1F0008CD1F0008E11F000828
:1038EC00F71F00080000000000000000DD020008C7
:1038FC000000000000000000532400083D240008D4
:10390C00CD1F00082324000809240008C123000847
:10391C00E52300086924000830313233343536375A
:10392C0038396162636465666768696A6B6C6D6E71
:0D393C006F707172737475767778797A0008
:10394C00785634129C00002000000000006CDC0251
:10395C000000000000000000010203040607080933
:10396C0030010020080200204402002001FFFFFF6C
:10397C0034000020000000000000000000000000E7
:10398C00000000000000000000000000000000002B
:10399C00000000000000000000000000000000001B
:1039AC00000000000000000000000000000000000B
:1039BC0000000000000000000000000000000000FB
:1039CC0000000000000000000000000000000000EB
:0839DC0000000000325476984F
:04000005080000C52A
:00000001FF
