:020000040800F2
:1000000000200020410200084902000851020008B7
:1000100000000000000000000000000000000000E0
:10002000000000000000000000000000770200084F
:1000300000000000000000007F02000845350008B5
:10004000870200088702000887020008870200086C
:10005000870200088702000887020008870200085C
:10006000870200088702000887020008870200084C
:10007000870200088702000887020008870200083C
:1000800087020008870200080000000087020008BD
:10009000870200088702000887020008870200081C
:1000A000870200088702000887020008870200080C
:1000B000870200080000000087020008000000001E
:1000C0005FF808F180B58EB000AF00F025F94A4B1B
:1000D0004A4A1A604A4B494A1A604A4B3B634A4BA8
:1000E000FB624A4BBB62FB6A7B6207E03A6B131D03
:1000F0003B637B6A191D796212681A60BA6A7B6A6F
:100100009A42F3D83C4B1B68414A934204D13C4B82
:100110001B68404A934200D0FEE73F4B374A1A60C3
:100120003E4B364A1A603E4B3B623E4BFB613B6A9C
:10013000BB6104E0BB691A1DBA6100221A60FA694A
:10014000BB699A42F6D8344B1B68002B03D1334B62
:100150001B68002B00D0FEE700F0E4F83A003B1DDE
:100160001100180000F0C8F82F4A304BD31A9B102A
:10017000FB600023BB6007E02C4BBA689200D358A9
:100180009847BB680133BB60FA68BB689A42F3DCEE
:10019000274A284BD31A9B10FB600023BB6007E063
:1001A000244BBA689200D3589847BB680133BB60B0
:1001B000FA68BB689A42F3DC7B683A681100180061
:1001C00002F0F0FC03007B631B4A1C4BD31A9B100C
:1001D0007B617B693B6108E03B695A1E174B9200CB
:1001E000D35898473B69013B3B613B69002BF3DCEB
:1001F0007B6B180000F070F800000020BABADECA6D
:1002000098000020F04F0008000000209C00002013
:1002100078563412325476989C000020CC0300208B
:100220009C000020D0030020BC020008BC02000893
:10023000C0020008BC020008C4020008C002000896
:1002400080B500AFFFF73EFF80B500AF00BEFEE710
:1002500004207146084202D0EFF3098001E0EFF379
:10026000088071460A4A104780B582B000AF7860B6
:10027000396000BEFEE780B500AF00BEFEE780B586
:1002800000AF00BEFEE780B500AF00BEFEE7000095
:0402900069020008F7
:10029400F04F0008000000209C000020F04F0008F0
:1002A40000000000000000009C000020D00300209B
:1002B4000000000000000000634A00084F4A0008E4
:1002C40080B582B000AF024B7B6000F009F8C046F5
:1002D400484D000880B582B000AF7860FEE70000AA
:1002E40080B582B000AF024B7B600120FFF7F2FFC4
:1002F4005C4D000880B582B000AF786039607B68DF
:1003040001221A603B68024A1A60BD4602B080BDF1
:100314000400002080B500AF00F008F8BD4680BDA1
:1003240080B500AF00F048F8BD4680BD80B500AF91
:100334001B4B1A681A4B01210A431A60184B5A685E
:10034400174B18490A405A60154B1A68144B164942
:100354000A401A60124B1A68114B14490A401A6079
:100364000F4B5A680E4B12490A405A600C4BDA6A1A
:100374000B4B0F218A43DA62094B1A6B084B0D4968
:100384000A401A63064B5A6B054B01218A435A6390
:10039400034B00229A6000F07FF8BD4680BDC04642
:1003A400001002400CB8FFF8FFFFF6FEFFFFFBFF52
:1003B400FFFFC0FFACFEFFFF80B584B000AF002399
:1003C400FB600023BB6000237B6000233B602E4B5B
:1003D4005B680C221340FB60FB68042B09D0FB68AC
:1003E400082B0AD0FB68002B38D1284B284A1A6006
:1003F40037E0264B264A1A6033E0234B5A68F02331
:100404009B031340BB60204B5A68C0235B0213401C
:100414007B60BB689B0C0233BB607B68002B0CD1F8
:10042400B9680A005201521A93019B1ADB005B1847
:100434001B021A00154B1A6013E0134BDB6A0F22E0
:10044400134001333B603968114804F0EFFB0300AB
:100454001A00BB685A430D4B1A6002E00B4B0C4A5E
:100464001A60094B5B681B090F221340094AD35CCD
:10047400DBB2FB60054B1A68FB68DA40034B1A6079
:10048400BD4604B080BDC046001002400C000020F0
:1004940000127A001000002080B582B000AF002363
:1004A4007B6000233B60304B1A682F4B802149024C
:1004B4000A431A602C4B1A6880239B0213403B604A
:1004C4007B6801337B603B68002B04D17A68A023EE
:1004D400DB019A42EED1244B1A6880239B0213401D
:1004E40002D001233B6001E000233B603B68012B09
:1004F40036D11E4B11221A601B4A1B4B52685A609C
:10050400194A194B52685A60174B5A68164B1849C6
:100514000A405A60144B5A68134B882149030A4312
:100524005A60114B1A68104B802149040A431A601F
:100534000D4B1A6880239B041340F9D00A4B5A6868
:10054400094B03218A435A60074B5A68064B022120
:100554000A435A60044B5B680C221340082BF9D100
:10056400BD4602B080BDC0460010024000200240DB
:10057400FF7FC0FF90B583B000AF02003960FB1D60
:100584001A70FB1D1B785BB2002B36DA314AFB1D57
:100594001B785BB219000F230B40083B9B08063302
:1005A4009B00D31804331B68FA1D127852B2110051
:1005B40003220A40D200FF2191400A00D2431A408C
:1005C40011003B689B01FF221A40FB1D1B785BB2A4
:1005D400180003230340DB009A401E48FB1D1B78D0
:1005E4005BB21C000F232340083B9B080A430633DD
:1005F4009B00C31804331A6029E0174AFB1D1B78BB
:100604005BB29B08C0339B009B58FA1D127852B210
:10061400110003220A40D200FF2191400A00D24374
:100624001A4011003B689B01FF221A40FB1D1B78F6
:100634005BB2180003230340DB009A400648FB1D0D
:100644001B785BB29B080A43C0339B001A50BD461B
:1006540003B090BD00ED00E000E100E080B582B0A1
:1006640000AF78607B68013B0C4A934201D90123B7
:1006740010E00B4B7A68013A5A6001235B42032174
:100684001800FFF777FF064B00229A60044B0722FD
:100694001A6000231800BD4602B080BDFFFFFF00B2
:1006A40010E000E080B582B000AF0200FB1D1A70BC
:1006B400FB1D1B78012B02D0022B00D1FEE7BD46A7
:1006C40002B080BD80B584B000AF78607B68084A12
:1006D4009A429B415B42DBB2FB60064BFA681A60AC
:1006E400044BFA6810210A431A60BD4604B080BD69
:1006F40000366E010020024080B582B000AF786001
:100704003960284B1A68274B01210A431A60254B8C
:100714001B68022213405A425341DBB2002BF6D12C
:10072400204B5A681F4B03218A435A601D4B5B6858
:100734000C2213405A1E9341DBB2002BF6D13B68C6
:100744001800FFF7BFFF174BA02292035A60154B06
:100754000022DA62134B1A68124B802149040A43BF
:100764001A60104B1A6880239B0413405A42534169
:10077400DBB2002BF5D10B4B5A680A4B02210A431A
:100784005A60084B5B680C221340083B5A1E934185
:10079400DBB2002BF5D1FFF70FFE01231800BD4695
:1007A40002B080BD0010024080B582B000AF0023CB
:1007B4007B60074B5A69064B802189020A435A61C0
:1007C400034B5B697B607B68BD4602B080BDC0465D
:1007D4000010024080B500AFBD4680BD80B500AFBB
:1007E400104A114B11001800FFF786FFFFF7DCFFDA
:1007F4000E4B1A68FA239900100004F017FA03004C
:100804001800FFF72BFF03005A1E9341DBB2002BA5
:1008140002D00220FFF746FFFFF7DCFF00F008F8E4
:10082400BD4680BD0048E80100127A000C0000209B
:1008340080B500AFBD4680BD80B582B000AF7860A2
:1008440008001100FB1C021C1A70BB1C0A1C1A7045
:100854007B681B68FA1C12785200032191400A003D
:10086400D2431A407B681A607B681A68BB1C1978EB
:10087400FB1C1B785B0099400B001A437B681A60D1
:10088400BD4602B080BD80B582B000AF786008007C
:100894001100FB1C021C1A70BB1C0A1C1A707B681A
:1008A4009B68FA1C12785200032191400A00D2433B
:1008B4001A407B689A607B689A68BB1C1B78190095
:1008C400FB1C1B785B0099400B001A437B689A6001
:1008D400BD4602B080BD80B582B000AF786008002C
:1008E4001100FB1C021C1A70BB1C0A1C1A707B68CA
:1008F400DB68FA1C12785200032191400A00D243AB
:100904001A407B68DA607B68DA68BB1C1978FB1CC8
:100914001B785B0099400B001A437B68DA60BD4684
:1009240002B080BD80B582B000AF786008001100CD
:10093400FB1C021C1A70BB1C0A1C1A707B689B8867
:100944009BB2FA1C1278110001228A4092B2D2435F
:1009540092B213409AB27B689A807B689B889AB261
:10096400BB1C1B78F91C09788B409BB213439AB2C9
:100974007B689A80BD4602B080BD80B584B000AF6C
:1009840078600A00FB1C1A707B681A68FB1C1B78D1
:100994005B00DA401300FB60FB68DBB20322134008
:1009A400DBB21800BD4604B080BD80B584B000AF92
:1009B40078600A00FB1C1A707B68DA68FB1C1B78E1
:1009C4005B00DA401300FB60FB68DBB203221340D8
:1009D400DBB21800BD4604B080BD80B584B000AF62
:1009E40078600A00FB1C1A707B689A68FB1C1B78F1
:1009F4005B00DA401300FB60FB68DBB203221340A8
:100A0400DBB21800BD4604B080BD80B584B000AF31
:100A140078600A00FB1C1A707B689B889BB21A00E2
:100A2400FB1C1B781A411300FB60FB68DBB201223C
:100A34001340DBB21800BD4604B080BD80B582B05F
:100A440000AF78600A00FB1C1A70FB1C1B780122A3
:100A54009A4013001A007B689A61BD4602B080BDBB
:100A640080B582B000AF78600A00FB1C1A70FB1CD2
:100A74001B78103301229A4013001A007B689A6194
:100A8400BD4602B080BD80B582B000AF786008007A
:100A94001100FB1C021C1A70BB1C0A1C1A70BB1C24
:100AA4001B78002B07D0FB1C1A787B6811001800F8
:100AB400FFF7C4FF06E0FB1C1A787B6811001800DE
:100AC400FFF7CEFFBD4602B080BD80B582B000AF57
:100AD40078600A00FB1C1A707B689B8A9BB21A0020
:100AE400FB1C1B781A411300012213405A1E934128
:100AF400DBB21800BD4602B080BDB0B584B000AF13
:100B0400F86008007A6019000B243B19021C1A7063
:100B14000A257B190A1C1A707B191A787B68110044
:100B24001800FFF72AFF03001A003B191978FB6825
:100B34001800FFF781FE7B191A787B6811001800F2
:100B4400FFF763FF03001A003B191978FB681800CC
:100B5400FFF7E8FE7B191A787B6811001800FFF78D
:100B640024FF03001A003B191978FB681800FFF7EB
:100B7400B2FE7B191A787B6811001800FFF72DFF6D
:100B840003001A003B191978FB681800FFF77BFE75
:100B9400BD4604B0B0BD80B582B000AF78600A0035
:100BA400FB1C1A707B6818687B681979FB1C1B781E
:100BB4001A00FFF741FEBD4602B080BD80B582B089
:100BC40000AF78600A00FB1C1A707B6818687B68A9
:100BD4001979FB1C1B781A00FFF755FEBD4602B0BD
:100BE40080BD80B582B000AF78600A00FB1C1A702B
:100BF4007B6818687B681979FB1C1B781A00FFF75F
:100C04006AFEBD4602B080BD80B582B000AF786098
:100C14000A00FB1C1A707B6818687B681979FB1C36
:100C24001B781A00FFF77EFEBD4602B080BD80B57A
:100C340082B000AF78607B681A687B681B79190002
:100C44001000FFF7FBFEBD4602B080BD80B582B048
:100C540000AF78607B681A687B681B791900100004
:100C6400FFF7FEFEBD4602B080BD80B582B000AF86
:100C740078600A00FB1C1A707B6818687B68197915
:100C8400FB1C1B78013B5A425341DBB21A00FFF7AD
:100C9400FAFEBD4602B080BD80B582B000AF786078
:100CA4007B681A687B681B7919001000FFF70DFF39
:100CB400031E01D0012300E000231800BD4602B04A
:100CC40080BD90B583B000AF78600C0010001900AF
:100CD400FB1C221C1A70BB1C021C1A707B1C0A1CF5
:100CE4001A70FB1C1A787B6811001800FFF753FF79
:100CF400BB1C1A787B6811001800FFF785FF7B1C6A
:100D04001A787B6811001800FFF76BFF1823FB1893
:100D14001A787B6811001800FFF750FFBD4603B036
:100D240090BD80B582B000AF786039607B68186888
:100D34007B6819793B681A683B681B79FFF7DDFE0D
:100D4400BD4602B080BD80B582B000AF78600A00B5
:100D5400FB1C1A707B685A68FB1C1B78012B01D1A1
:100D6400002300E0012319001000FFF77EFFBD46B9
:100D740002B080BD80B582B000AF78600A00FB1C71
:100D84001A70FB1C1B7801225340DBB2002B08D0E5
:100D94007B6800221A767B689B681800FFF747FF80
:100DA40007E07B689B681800FFF750FF7B6801220F
:100DB4001A76BD4602B080BD80B500AF024B1B68F9
:100DC4001800BD4680BDC0462800002080B500AF95
:100DD400FFF7F2FF0300180000F002F8BD4680BDE3
:100DE40080B584B000AF78607B68DB695A425341B8
:100DF400DBB2002B05D07B6800211800FFF7BAFF97
:100E040061E07B681B681800FFF746FF0300013BA5
:100E14005A425341DBB2002B36D07B681B68002159
:100E24001800FFF722FF7B68DB692A2B04D97B6853
:100E3400DB692A3B1A0000E000227B68DA617B68E8
:100E44001B6A2A331A007B681A627B68DA697B683A
:100E54001B6A9A4202D27B68DB6901E07B681B6AE9
:100E6400FB60FA68FA239900100003F0DFFE030028
:100E7400BB60BB68042B03D8BB680522D21A00E010
:100E840000227B685A621EE07B685B6A05229A42F4
:100E94009B415B42DBB2002B02D07B6805225A6285
:100EA4007B685B6A5A425341DBB2002B06D07B68F5
:100EB4001B6801211800FFF7D8FE04E07B685B6A19
:100EC4005A1E7B685A62BD4604B080BD80B584B0AA
:100ED40000AF786039607B6800211800FFF74AFF93
:100EE4003A6813005B019B1A9B009B18DB00FB60B4
:100EF4007B6800221A627B68FA68DA617B680121E8
:100F04001800FFF737FF7B681B6801211800FFF703
:100F1400ACFE01231800BD4604B080BD80B582B08C
:100F240000AF78607B6800211800FFF723FF7B681F
:100F34000022DA617B6800221A6201231800BD4690
:100F440002B080BD80B582B000AF78607B681B7E44
:100F5400DBB201225340DBB2002B05D07B68DB6996
:100F6400002B01D1012300E000231800BD4602B08C
:100F740080BD80B584B002AF78607B685868022376
:100F84000093002300220121FFF79BFE7B681A686F
:100F94007B685B6819001000FFF7C3FE7B689A68E2
:100FA4007B685B6819001000FFF7BBFE7B681A6959
:100FB4007B685B6819001000FFF7B3FE7B685A6911
:100FC4007B685B6819001000FFF7ABFE7B68DA688A
:100FD4007B685B6819001000FFF7A3FE7B681B6841
:100FE4001800FFF733FE7B685B681800FFF72EFEDE
:100FF4007B689B681800FFF71AFE7B68DB681800A3
:10100400FFF715FE7B680321180000F010F87B68D9
:1010140000211800FFF797FE7B680022DA617B68E5
:1010240000221A6201231800BD4602B080BD80B5BB
:1010340082B000AF78600A00FB1C1A70FB1C1B789E
:10104400012B13D002DC002B05D030E0022B18D08A
:10105400032B21D02BE07B681B691800FFF7F6FDFA
:101064007B685B691800FFF7F1FD22E07B681B6970
:101074001800FFF7DCFD7B685B691800FFF7E6FDED
:1010840017E07B681B691800FFF7E0FD7B685B696C
:101094001800FFF7CCFD0CE07B681B691800FFF714
:1010A400C6FD7B685B691800FFF7C1FD01E0002302
:1010B40000E001231800BD4602B080BD80B582B0B7
:1010C40000AF786039607B68012B09D13B68064A20
:1010D400934205D1054A06480123022102F0E2F9B0
:1010E400BD4602B080BDC046FFFF0000D10D000820
:1010F400A400002080B500AF034B19000120FFF7C6
:10110400DDFFBD4680BDC046FFFF000090B585B041
:1011140000AF0200FB1D1A700E243A19FB1D1B7848
:101124001100180002F0C6FA031E02D03B191B88F6
:1011340001E001235B421800BD4605B090BD80B5B7
:1011440082B000AF78607B685A687B689B68D31A6A
:101154005A425341DBB21800BD4602B080BD80B58F
:1011640082B000AF78607B681800FFF7E8FF0300E7
:101174001A0001235340DBB21800BD4602B080BD03
:1011840080B584B000AF78607B6824331800FFF723
:10119400E6FF031E11D07B682433180001F0C2FE61
:1011A40003001A000F217B181A700A00BB181B7861
:1011B400002BE9D0BB181B7800E000231800BD46C3
:1011C40004B080BD80B582B000AF78607B68180041
:1011D400FFF7D6FF03001800BD4602B080BD000033
:1011E40080B582B000AF0200FB1D1A70FB1D1B7896
:1011F4000C2B1CD89A00104BD3181B689F460A234B
:1012040016E0142314E0002312E0012310E002236B
:101214000EE003230CE004230AE0052308E0062380
:1012240006E0072304E0082302E0092300E01E236C
:101234001800BD4602B080BDB04D000880B500AFB7
:1012440002231800BD4680BD80B500AF01231800FD
:10125400BD4680BD80B582B000AF78607B685B68B6
:101264001800BD4602B080BD80B582B000AF786082
:1012740039603A687B685A60BD4602B080BD80B56B
:1012840084B000AF78600A00FB1C1A707B681800F9
:1012940000F030F802000F23FB181A70FB1C1B78B7
:1012A400092B05D97B685B685A427B685A601DE04C
:1012B4000F23FB181B78180000F082F80300BB60B2
:1012C4007B685A6813009B009B185B001A00FB1C88
:1012D4001B78D2187B685A607B685B68B968180011
:1012E40003F02AFD0B001A007B685A601800BD4603
:1012F40004B080BD80B584B000AF78607B683021D5
:10130400180000F020F80300FB607B68232118001C
:1013140000F019F80200FB689B18FB60FB681800DA
:10132400BD4604B080BD80B584B000AF78607B68F2
:101334009B68FB60FB68180003F016FC03001800B0
:10134400BD4604B080BD80B584B000AF78600A00AB
:10135400FB1C1A707B689B68FB607B689A68FB1CAB
:101364001B785BB21100180000F005F803001800A8
:10137400BD4604B080BD80B584B000AF02003960C2
:10138400FB1D1A700023FB603B681B785BB2002BCB
:1013940011D03B685A1C3A601B785BB2FA1D127874
:1013A40052B2D31A5A425341DBB2002BECD0FB6841
:1013B4000133FB60E8E7FB681800BD4604B080BD5C
:1013C40080B584B000AF0200FB1D1A700123FB60DE
:1013D400FB1D1B78FA1D591E11705A1E9341DBB276
:1013E400002B06D0FA6813009B009B185B00FB607F
:1013F400EEE7FB681800BD4604B080BD80B584B03C
:1014040000AF78607B685B68FB607B685A687B68C8
:101414001B691900100003F08FFC0B001A007B6895
:101424005A607B685B68FA689A4205D07B681B68DF
:101434001B687A6810009847BD4604B080BD80B52B
:1014440082B000AF78607B681B681B687A68100004
:1014540098477B685B685A1C7B685A607B6859684C
:101464007B681A69002391425B41DBB2002B02D0F6
:101474007B6800225A60BD4602B080BD80B586B04C
:1014840000AFF860B9607A60FB68DB687A689A42FA
:1014940001D300231DE0FB689B68BA689A4201D31C
:1014A400002316E0FB685B687B61FB689B687A68D5
:1014B4005A43BB68D218FB685A60FB685B687A6958
:1014C4009A4205D0FB681B681B68FA6810009847AD
:1014D40001231800BD4606B080BD80B582B000AFC0
:1014E40078600A00FB1C1A707B681800FFF786FFFF
:1014F4007B685A697B685B68D318FA1C12781A7087
:101504007B681800FFF79BFF7B681B681B687A6881
:1015140010009847BD4602B080BD80B582B000AFD0
:10152400786039603B681B785BB2002B0AD03B685B
:101534005A1C3A6000229A567B6811001800FFF783
:10154400CCFFEFE7BD4602B080BDF0B58FB000AF71
:10155400786239626B467B603B6A1800FFF7E3FEF2
:10156400030001337B637B6B142B01D9002339E027
:101574007B6B013B3B631A0001323A6100227A61C2
:10158400386979690200520F0E00F600FE61FE69A7
:101594001643FE610200D200BA611A000132BA6039
:1015A4000022FA60B868F9680200520F0E00F500D4
:1015B40015430200D40001330733DB08DB006A461D
:1015C400D31A9D466B460033FB62FA6A3B6A1100EC
:1015D400180001F08FFEFA6A7B6A11001800FFF709
:1015E4009CFF01237A6895461800BD460FB0F0BDF4
:1015F40080B584B000AFF860B9607A603B607A6807
:10160400B968FB681800FFF739FF3A68FB681100F6
:101614001800FFF782FFBD4604B080BD80B584B0DA
:1016240000AF78600023FB607B681B69FA689A420C
:1016340009D87B685A69FB68D31820221A70FB68A2
:101644000133FB60F0E77B681B681B687A68100055
:101654009847BD4604B080BDF0B59FB000AFF860B8
:10166400B9607A60BB68180003F07EFA0200632355
:1016740093429B415B42DBB2002B01D0002312E07A
:1016840077257C191026BA197968BB68180002F00E
:10169400C9F803002370BA19FB6811001800FFF79A
:1016A4003CFF7B191B781800BD461FB0F0BD80B508
:1016B40082B000AF78607B68DA69FA239900100081
:1016C40003F0B4FA03001800BD4602B080BD80B533
:1016D40082B000AF78607B6800229A737B68012235
:1016E4001A737B6800221A617B6801225A737B6833
:1016F4005B6801211800FFF7B8FABD4602B080BD4F
:1017040080B582B000AF78607B681B7B01225340B8
:10171400DBB21800BD4602B080BD80B582B000AF18
:1017240078607B689B7B1800BD4602B080BD0000DA
:1017340080B582B000AF78607B685A6804490023A2
:1017440091425B41DBB21800BD4602B080BDC04689
:101754008713000080B582B000AF78607B681B6996
:101764001800BD4602B080BD80B582B000AF78607D
:101774007B681B69002B04D07B681B695A1E7B683D
:101784001A61BD4602B080BD80B582B000AF7860FA
:101794000A00FB1C1A707B68FA1C542112785A54F4
:1017A4007B6854229B5C002B05D100F0AFFB030047
:1017B400180000F0F9FB7B681B6D1800FFF72EFF83
:1017C4007B68180000F0AAF9BD4602B080BD000095
:1017D40090B585B000AF78607B6854229B5C002B89
:1017E40011D100F093FB03001800FFF7A1FF0300E1
:1017F4001A0001235340DBB2002B04D07B68012183
:101804001800FFF7C1FF7B68180000F087F9BF4B91
:101814001B680F22BC181800FFF7D4FC03002370C8
:101824007B6854229B5C082B00D96BE19A00B84B6F
:10183400D3181B689F460F23FB181B780B2B05D16D
:101844007B6806211800FFF79FFF4CE10F23FB186C
:101854001B78002B05D07B6801211800FFF794FF4B
:1018640041E100F053FB03001800FFF761FF0300A0
:101874001A0001235340DBB2002B00D133E17B6813
:1018840001211800FFF780FF3CE10F23FB181B78B0
:101894000C2B0BD100F03AFB0300180000F055FBB1
:1018A4007B6802211800FFF76FFF1EE10F23FB186E
:1018B4001B780B2B00D018E17B6804211800FFF77C
:1018C40063FF1FE10F23FB181B78002B0BD000F0E4
:1018D4001DFB0300180000F067FB7B680121180062
:1018E400FFF752FF03E18B4B1B681800FFF72AFB3D
:1018F400031E00D1FBE0884B1B681800FFF7E7FECE
:101904007B6803211800FFF73FFFFBE00F23FB1860
:101914001B78002B0BD000F0F9FA0300180000F03C
:1019240043FB7B6801211800FFF72EFFE1E07A4BAF
:101934001B681800FFF7E4FE031E00D1D9E0764BC4
:101944001B681800FFF7E9FE031E05D07B6807211A
:101954001800FFF719FFD5E000F0D8FA03001800CB
:10196400FFF702FF00F0D2FA0300180000F03AFB80
:10197400031E05D07B6801211800FFF705FFB8E0BE
:1019840000F0C4FA0300180000F0F2FA7B680221A8
:101994001800FFF7F9FEB5E00F23FB181B780C2B9A
:1019A4000FD17B681800FFF755FC03009BB21900A8
:1019B400032001F029FE7B6805211800FFF7E4FEEF
:1019C40099E00F23FB181B780B2B05D17B680121B1
:1019D4001800FFF7D9FE8EE00F22BB181B78002BEE
:1019E40000D188E07C68BB181B781800FFF7F8FB6F
:1019F400030019002000FFF742FC83E00F23FB18CB
:101A04001B780C2B10D17B6810331800FFF722FCD5
:101A140003009BB21900042001F0F6FD7B6801214C
:101A24001800FFF7B1FE68E00F23FB181B780B2B9F
:101A340005D17B6801211800FFF7A6FE5DE00F22A7
:101A4400BB181B78002B58D07B6810331C00BB18C4
:101A54001B781800FFF7C4FB030019002000FFF7F0
:101A64000EFC4FE00F23FB181B780C2B10D17B6866
:101A740020331800FFF7EEFB03009BB2190005208A
:101A840001F0C2FD7B6801211800FFF77DFE36E0FE
:101A94000F23FB181B780B2B05D17B680121180041
:101AA400FFF772FE2BE00F22BB181B78002B26D009
:101AB4007B6820331C00BB181B781800FFF790FBD1
:101AC400030019002000FFF7DAFB1BE00F23FB18CB
:101AD4001B78002B15D07B6801211800FFF754FEFA
:101AE40010E0C0460EE0C0460CE0C0460AE0C04626
:101AF40008E0C04606E0C04604E0C04602E0C04636
:101B040000E0C046BD4605B090BDC046240000209C
:101B1400E44D0008280000202C00002090B583B07C
:101B240000AF78607B6854229B5C082B00D92BE1C2
:101B34009A00974BD3181B689F467B68186D954B8A
:101B440000220021FFF754FD7B681B6D0122002158
:101B54001800FFF793FC7B681C6DFFF76FFB030015
:101B64001A008D4B19002000FFF776FD7B681C6D71
:101B7400FFF76AFB03001A00884B19002000FFF7E7
:101B84006BFD01E17C680320FFF7C0FA0300190034
:101B94002000FFF769FB7B6810331C000420FFF76B
:101BA400B5FA030019002000FFF75EFB7B681B6D8C
:101BB400002200211800FFF761FC7B681B6D7A6826
:101BC40011001800FFF7C1FC7B681B6D0122002186
:101BD4001800FFF753FC7B681A6D7B6810331900FB
:101BE4001000FFF7B2FCCFE07B68186D6C4B00224D
:101BF4000021FFF7FDFC7B6830331C00694B1B6838
:101C04001800FFF754FD030019002000FFF72CFB18
:101C14007B6840331C0000F079F903001800FFF7DB
:101C240099FD030019002000FFF71EFB7B681A6D65
:101C34007B68303319001000FFF787FC7B681A6D4E
:101C44007B68403319001000FFF77FFC9CE07B6841
:101C5400186D554B00220021FFF7CAFC7B681B6DF1
:101C6400012200211800FFF709FC7B6840331C00A7
:101C740000F04CF903001800FFF76CFD0300190095
:101C84002000FFF7F1FA7B681B6D484A1100180029
:101C9400FFF743FC7B681A6D7B6840331900100022
:101CA400FFF753FC70E07B68186D414B0022002164
:101CB400FFF79EFC7B681B6D012200211800FFF7D3
:101CC400DDFB7B681B6D7A6811001800FFF73DFC93
:101CD4005AE07B68186D374B00220021FFF788FC1F
:101CE4007B681B6D012200211800FFF7C7FB7B688E
:101CF4001A6D7B68103319001000FFF726FC43E0CF
:101D04007B68186D2C4B00220021FFF771FC7B6867
:101D14001B6D012200211800FFF7B0FB7B681A6DD0
:101D24007B68203319001000FFF70FFC2CE07B6860
:101D3400186D224B00220021FFF75AFC7B681B6DB3
:101D4400012200211800FFF799FB7B6840331C0037
:101D540000F0DCF803001800FFF7FCFC0300190096
:101D64002000FFF781FA7B681B6D104A11001800F0
:101D7400FFF7D3FB7B681A6D7B68403319001000B2
:101D8400FFF7E3FB00E0C046BD4603B090BDC0468C
:101D9400AC4E0008084E00081C4E00082C4E0008EB
:101DA400344E000828000020444E0008544E000819
:101DB4005C4E0008704E0008844E0008984E0008DF
:101DC40090B583B000AF786039607B683A681A6573
:101DD4007B685422002199547C680320FFF796F90C
:101DE400030019002000FFF73FFA7B6810331C0042
:101DF4000420FFF78BF9030019002000FFF734FAE1
:101E04007B6820331C000520FFF780F903001900CC
:101E14002000FFF729FA7B6830331C000320FFF70A
:101E240075F9030019002000FFF71EFA7B684033A0
:101E34001C000420FFF76AF9030019002000FFF7D3
:101E440013FABD4603B090BD80B582B000AF786090
:101E5400094A7B681A607B6800225A607B6800220A
:101E64009A607B680022DA607B6800221A617B68D2
:101E74001800BD4602B080BDD84E000880B582B0BF
:101E840000AF7860034A7B681A607B681800BD461F
:101E940002B080BDD84E000880B582B000AF786033
:101EA4007B681800FFF7EAFF7B681421180002F032
:101EB400E2FD7B681800BD4602B080BD80B582B0EB
:101EC40000AF78607B685B7F1800BD4602B080BDC0
:101ED40080B582B000AF78600A00FB1C1A707B6882
:101EE400FA1C12789A76BD4602B080BD80B582B0E5
:101EF40000AF78607B685B6800211800FEF7B5FED0
:101F04007B6800221A73BD4602B080BD80B500AF65
:101F1400014B1800BD4680BDB800002080B500AF5D
:101F2400FFF7F4FF0300180000F070F8BD4680BD11
:101F340080B582B000AF78607B68180000F034F898
:101F440003001800BD4602B080BD80B582B000AF6A
:101F540078600420FFF7DAF802007B681A617B6876
:101F6400180000F005F801231800BD4602B080BD3A
:101F740090B583B000AF7860094B1B681800FFF779
:101F8400B5FF084B1C680320FFF7C0F803001900D5
:101F94002000FEF79BFF01231800BD4603B090BD4F
:101FA4002C0000202800002080B582B000AF7860AB
:101FB4000A4B1B681800FEF7B1FF094B1B68180099
:101FC400FFF794FF0420FFF7A1F802007B681A6171
:101FD40001231800BD4602B080BDC0462800002081
:101FE4002C00002080B582B000AF78607B681B694C
:101FF400002B01D0002304E07B681800FFF7D4FF16
:1020040001231800BD4602B080BD000080B582B037
:1020140000AF78607B681800FFF78AFB031E05D0C9
:102024007B685B6879331A007B685A60144B1B68C1
:102034001800FFF743FF03005A1E9341DBB2002B45
:1020440002D07B6800229A607B689B680D4A9342A9
:102054000CD87B689B6879331A007B689A600A4BBA
:102064001B6801211800FFF733FF05E0064B1B68CE
:1020740000211800FFF72CFFBD4602B080BDC0460A
:1020840024000020BFD40100F001002080B582B0FC
:1020940000AF786039607B68012B0DD13B680D4A35
:1020A400934209D10C4B1800FFF7CEFE0B4A0C48A3
:1020B4007923022101F0F6F97B68002B07D13B68F4
:1020C400044A934203D1044B1800FFF7D7FEBD46E0
:1020D40002B080BDFFFF0000B8000020211F0008EF
:1020E400CC00002080B500AF034B19000120FFF79E
:1020F400CDFFBD4680BDC046FFFF000080B500AFE8
:10210400034B19000020FFF7C1FFBD4680BDC04648
:10211400FFFF000080B582B000AF0200FB1D1A7003
:10212400034BFA1D12781A70BD4602B080BDC0463A
:102134003000002080B582B000AF78600A00FB1C3C
:102144001A707B681B8A9BB21A00FB1C1B781A410D
:102154001300012213405A1E9341DBB21800BD46FE
:1021640002B080BD80B582B000AF78607B681A6829
:102174007B681B7919001000FFF7DCFF031E01D0F8
:10218400012300E000231800BD4602B080BD80B5E5
:1021940086B002AFF860B960FB1D1A70FB68BA68BC
:1021A4001A60FB68FA1D12781A71F868002300930C
:1021B400002301220321FEF784FDFB681800BD46BD
:1021C40004B080BD80B582B000AF78600A00FB1C0B
:1021D4001A70FB1C1B78002B09D07B6824331A006F
:1021E400FB1C1B781900100000F065FE00E0C046DF
:1021F400BD4602B080BD80B582B000AF78600A00F1
:10220400FB1C1A707B681B6801211800FEF72DFD6A
:102214007B685B6801211800FEF727FD7B689B68DB
:1022240001211800FEF721FDFB1C1B78022B0AD0AC
:10223400032B0FD0012B13D17B681B6800211800DE
:10224400FEF713FD0CE07B685B6800211800FEF7C5
:102254000CFD05E07B689B6800211800FEF705FD76
:10226400BD4602B080BD80B582B000AF78607B68A7
:10227400DB681800FFF776FF03005A425341DBB2D4
:10228400002B01D0012327E07B681B691800FFF7AE
:1022940069FF03005A425341DBB2002B01D00223F1
:1022A4001AE07B685B691800FFF75CFF03005A4281
:1022B4005341DBB2002B01D003230DE07B689B6903
:1022C4001800FFF74FFF03005A425341DBB2002BC3
:1022D40001D0042300E000231800BD4602B080BDF5
:1022E40080B582B000AF0200FB1D1A70BB1D0A1C32
:1022F4001A70FB1D1B78022B18D0032B2BD0012B3B
:102304003ED1BB1D1B78022B0AD002DC012B05D069
:1023140036E0032B06D0042B06D031E0012330E055
:1023240004232EE007232CE00B232AE0BB1D1B789B
:10233400022B0AD002DC012B05D021E0032B06D0AE
:10234400042B06D01CE002231BE0052319E008231C
:1023540017E00A2315E0BB1D1B78022B0AD002DC10
:10236400012B05D00CE0032B06D0042B06D007E08C
:10237400032306E0062304E0092302E00C2300E023
:1023840000231800BD4602B080BDF0B585B000AF93
:1023940078600F23FB1801221A700F257B191B7814
:1023A400032B29D87B191A787B6811001800FFF7D2
:1023B40022FF0E26BC197B681800FFF754FF0300A8
:1023C4002370BB191B78002B05D17B191A787B1954
:1023D40001321A70E1E70E23FB181A780F23FB1859
:1023E4001B7811001800FFF77BFF03001A007B68BD
:1023F4005A777B685B7F04E07B6800225A777B68AE
:102404005B7F1800BD4605B0F0BD80B586B000AF57
:10241400F860B9607A603B60FB68BA681A60FB6870
:102424007A685A60FB683A689A60FB683A6ADA60CC
:10243400FB687A6A1A61FB68BA6A5A61FB68FA6ACD
:102444009A61FB6800221A77FB6800225A77FB68BE
:1024540024331800FB681E330422190000F014FD15
:102464001623FB1800221A8016217B181B88032BC5
:102474000BD87B181B88FA68D31800229A777B182C
:102484001A887B1801321A80EEE7FB681800BD46F3
:1024940006B080BD80B584B002AF78607B681868F0
:1024A40002230093002300220121FEF70AFC7B682B
:1024B4005A687B681B6819001000FEF732FC7B68C1
:1024C4009A687B681B6819001000FEF72AFC7B6879
:1024D400D86802230093012301220021FEF7F1FBB7
:1024E4007B681A697B68DB6819001000FEF719FC29
:1024F4007B685A697B68DB6819001000FEF711FCE1
:102504007B689A697B68DB6819001000FEF709FC98
:10251400BD4602B080BDB0B584B000AF78600F2571
:102524007C197B681800FFF730FF030023707B6879
:102534001B7F7A1912789A420ED07B687A19127826
:102544001A777B191B78002B06D07B191A787B68C5
:1025540011001800FFF736FEBD4604B0B0BD000000
:1025640080B582B000AF78603960084A7B681A6031
:102574007B6800225A603A687B6811001800FEF7F5
:1025840073FE7B681800BD4602B080BD704F000822
:1025940080B582B000AF7860034A7B681A607B68BC
:1025A4001800BD4602B080BD704F000880B582B0EF
:1025B40000AF78607B681800FFF7EAFF7B680821AA
:1025C400180002F058FA7B681800BD4602B080BDBE
:1025D40080B582B000AF786039607B685B683A6828
:1025E4001100180000F003F8BD4602B080BD80B5AC
:1025F40082B000AF7860396039687B680A221800BD
:1026040002F059FABD4602B080BD000080B584B026
:1026140000AFF860B9607A60FB687A68110018004E
:10262400FFF79EFF094AFB681A60FB68084A9A6034
:10263400FB6800221A73BA68FB681100180000F0E6
:102644002DF8FB681800BD4604B080BD544F000847
:10265400504E000880B582B000AF7860054A7B68B0
:102664001A607B681800FFF793FF7B681800BD466B
:1026740002B080BD544F000880B582B000AF7860CE
:102684007B681800FFF7E6FF7B681021180002F052
:10269400F2F97B681800BD4602B080BD80B582B0F7
:1026A40000AF786039607B683A689A60BD4602B0D2
:1026B40080BD80B582B000AF78607B681B681B6802
:1026C4007A6810009847BD4602B080BD80B582B0DC
:1026D40000AF78607B685B68002B05D07B681B6863
:1026E4001B687A68100098477B6800225A60BD46D0
:1026F40002B080BD80B584B000AF7860064B5A69E3
:10270400054B9C21C9030A435A61034B5B69FB6077
:10271400FB68BD4604B080BD0010024080B584B0A3
:1027240000AFF860B9607A603B60FB68BA681A6011
:10273400FB687A685A60FB683A689A60FB68BA6911
:10274400DA60FB68FA691A61FB683A6A5A61FB68E5
:1027540000221A76FB680022DA61FB6800221A6202
:10276400FB6800225A62FB681800BD4604B080BDB5
:1027740080B582B000AF78607B689B681800FFF773
:10278400F1FC0300013B5A425341DBB21800BD4641
:1027940002B080BD80B584B000AFF860B9607A60E3
:1027A4003B600E4AFB681A60FB68BA685A60FB68B3
:1027B4007A689A60FB6800221A73FB6801225A73D4
:1027C400FB6800229A73FB6800221A61FB683A686E
:1027D4005A61FB681800BD4604B080BD444F000830
:1027E40080B582B000AF7860034A7B681A607B686A
:1027F4001800BD4602B080BD444F000880B582B0C9
:1028040000AF78607B681800FFF7EAFF7B68182147
:10281400180002F030F97B681800BD4602B080BD94
:1028240080B584B002AF78607B6858680223009357
:10283400002300220121FEF744FA7B6898680223F2
:102844000093002300220021FEF73BFABD4602B0AC
:1028540080BD000080B582B000AF78607B681B7BD0
:10286400002B3AD07B681B691F4A934207D87B68C8
:102874001A697B685B69D2187B681A6106E07B6819
:102884001800FFF733FB7B6801229A737B685B7B3C
:10289400002B11D07B681800FFF76AFF03001A00B1
:1028A40001235340DBB2002B1BD07B6800221A614A
:1028B4007B6800225A7314E07B681800FFF758FF06
:1028C400031E0ED07B6800221A617B6801225A73B2
:1028D4007B681800FFF70AFB03E07B681800FFF72A
:1028E40005FBBD4602B080BD9F0F000080B582B0DD
:1028F40000AF786078689023DB050C221900FFF79D
:1029040046FC7B680833684906221800FFF73FFC41
:102914007B681033644907221800FFF738FC7B6892
:10292400183362490D221800FFF731FC7B6820330D
:1029340018009023DB050F221900FFF728FC7B68A1
:1029440028335B4903221800FFF721FC7B683033EE
:10295400574904221800FFF71AFC7B68383354499E
:1029640005221800FFF713FC7B6840335049062208
:102974001800FFF70CFC7B6848334D490722180008
:10298400FFF705FC7B685033494908221800FFF71C
:10299400FEFB7B685833464909221800FFF7F7FB12
:1029A4007B68603342490C221800FFF7F0FB7B6818
:1029B40068333F490D221800FFF7E9FB7B68703349
:1029C4003B490E221800FFF7E2FB7B687833384955
:1029D4000F221800FFF7DBFB7B688033180090237D
:1029E400DB0508221900FFF7D2FB7B688833180047
:1029F4009023DB0509221900FFF7C9FB7B6890339C
:102A040018009023DB050A221900FFF7C0FB7B683E
:102A1400983318009023DB0500221900FFF7B7FB59
:102A24007B68A03318009023DB0501221900FFF70F
:102A3400AEFB7B68A83318009023DB050222190043
:102A4400FFF7A5FB7B68B03318009023DB05032256
:102A54001900FFF79CFB7B68B83318009023DB0553
:102A640004221900FFF793FB7B68C03318009023FE
:102A7400DB0505221900FFF78AFB7B68C8331800C1
:102A84009023DB0506221900FFF781FB7B68D03316
:102A940018009023DB0507221900FFF778FB7B68F9
:102AA4001800BD4602B080BD00140048000800486C
:102AB4000004004880B500AF034B1B681800FFF703
:102AC4002AFDBD4680BDC0462400002080B582B0EA
:102AD40000AF78607B68134901221800FFF796FD68
:102AE4007B681033104901221800FFF78FFD7B68C3
:102AF40020330E4901221800FFF788FD7B6830332C
:102B04000B4901221800FFF781FD7B684033094916
:102B140001221800FFF77AFD7B681800BD4602B059
:102B240080BDC046E04E0008F44E0008084F00087F
:102B34001C4F0008244F000880B582B000AF7860B5
:102B44007B6840331800FFF785FD7B68303318003D
:102B5400FFF780FD7B6820331800FFF77BFD7B685F
:102B640010331800FFF776FD7B681800FFF772FD3D
:102B74007B681800BD4602B080BD000080B500AF80
:102B8400054B1800FEF724FE044B1B681800FFF7E2
:102B940061FEBD4680BDC046680200202C000020B6
:102BA40090B585B002AF78603960FDF717FE01205B
:102BB400FFF7B0FA00F0D2FC264B1B681800FFF7B1
:102BC40099FD254B1868234B1B6810331900214BC2
:102BD4001B6808331A001F4B1B681C001D4B1B6825
:102BE400183301931D4B0093230001F00BF81C4B89
:102BF4001B681800FFF74EFCFFF788F90300180064
:102C0400FFF796F9174B1B681800FEF7B2F9164B3D
:102C14001B681800FFF704FE0020FFF77BFA134B34
:102C24001868134B00220021FEF7E2FC0F4B1B68CF
:102C34001800FFF74BFD0D4B1B681800FFF739FD1B
:102C44000A4B1A680B4B11001800FFF7B9F800F093
:102C5400F3FBFCE720000020EC01002034020020FC
:102C640024000020280000202C000020F001002077
:102C7400304F000868020020F0B587B004AF7860D8
:102C840039607B68012B00D0B8E03B68644A93420A
:102C940000D0B3E0634B1800D8231A00002101F0E0
:102CA400BDFF604B1800FFF721FE5F4B1B688033AC
:102CB4001D005D4B1B6888331E005B4B1B68902214
:102CC40094469C44584B1B6860331A00564B1B684F
:102CD40068331900544B1B6870331800524B1B683F
:102CE4007833524C03930290019100926346320070
:102CF40029002000FFF789FB00F05AFF02004C4B2B
:102D04001A604B4B1B68180000F064FF0200494B2B
:102D14001A60454B1B68C8331C00434B1B68D033F7
:102D24001D00414B1B68A8331E003F4B1B68C0337A
:102D34001A003D4B1B68B03319003B4B1B68B8337A
:102D44003D4802930191009233002A002100FFF7CD
:102D5400E5FC354B1B6898331900334B1B68A033D3
:102D64001A00A9235B003548FFF714FD2E4B1B689E
:102D740020331A00324B1A602B4B1B6828331A007D
:102D84002F4B5A60284B1B6830331A002C4B9A6027
:102D9400254B1B6838331A00294BDA60224B1B6819
:102DA40040331A00264B1A611F4B1B6848331A0024
:102DB400234B5A611C4B1B6850331A00204B9A61F9
:102DC400194B1B6858331A001D4BDA611D4A1E4803
:102DD4000523022100F066FB1C4B180058231A003F
:102DE400002101F01BFF194B1800FFF76FFEA92308
:102DF4005B00174A1748022100F054FB7B68002B44
:102E04000BD13B68064A934207D1104B1800FFF7D9
:102E140093FE0A4B1800FFF7E3FCBD4603B0F0BD78
:102E2400FFFF0000E000002020000020B801002087
:102E3400EC010020F0010020F40100201C0200201D
:102E440034020020B92A000854020020680200203D
:102E5400812B0008C002002080B500AF034B19008D
:102E64000120FFF709FFBD4680BDC046FFFF0000FB
:102E740080B500AF034B19000020FFF7FDFEBD46EF
:102E840080BDC046FFFF000080B584B000AFF8608D
:102E9400B9607A60FB687A681A60FB68BA68DA60BD
:102EA400FB6800229A60FB6800225A60FB681800E5
:102EB400BD4604B080BD80B584B000AF78600A0020
:102EC400FB1C1A707B685B68FB607B689B68BB605B
:102ED400FB680133BA689A4201D100231EE0BB6843
:102EE400002B07D17B681B68013BFA689A4201D129
:102EF400002313E07B68DA68FB68591CF960D31877
:102F0400FA1C12781A707B681B68FA689A4201D21C
:102F1400FA6800E000227B685A6001231800BD466D
:102F240004B080BD80B586B000AF78607B689B68D4
:102F34007B617B685B683B617A693B699A4202D139
:102F4400FF231B0217E07B68DA687B69591C7961EF
:102F5400D2180F23FB1812781A707B681B687A69E1
:102F64009A4201D27A6900E000227B689A600F23BA
:102F7400FB181B789BB21800BD4606B080BD80B517
:102F840082B000AF78607B6801225A76BD4602B0F9
:102F940080BD80B582B000AF78607B685B7EDBB2B9
:102FA4001800BD4602B080BD80B582B000AF786025
:102FB4007B685B691800BD4602B080BD80B582B0F5
:102FC40000AF7860034A7B681A607B681800BD46CE
:102FD40002B080BD8C4F000880B582B000AF78602D
:102FE4007B685B68180000F005F803001800BD4614
:102FF40002B080BD80B584B000AF78607A68802369
:103004001B069A4201D10B2384E00F217B18012275
:103014001A707B68002B07DA7B181A787B18013248
:103024001A707B685B427B607B68092B03DC0F238F
:10303400FB181B786EE00F217B181A787B1801327D
:103044001A707B68632B02DC7B181B7862E00F210B
:103054007B181A787B1801321A707B682F4A9342C6
:1030640002DC7B181B7855E00F217B181A787B183B
:1030740001321A707B682A4A934202DC7B181B785F
:1030840048E00F217B181A787B1801321A707B688C
:10309400244A934202DC7B181B783BE00F217B1807
:1030A4001A787B1801321A707B681F4A934202DC3B
:1030B4007B181B782EE00F217B181A787B180132BD
:1030C4001A707B68194A934202DC7B181B7821E052
:1030D4000F217B181A787B1801321A707B68144A06
:1030E400934202DC7B181B7814E00F217B181A78BA
:1030F4007B1801321A707B680E4A934202DC7B18FB
:103104001B7807E00F217B187A18127801321A70A5
:103114007B181B781800BD4604B080BDE70300008F
:103124000F2700009F8601003F420F007F96980002
:10313400FFE0F505FFC99A3B80B584B000AFF860A5
:103144007A600B23FB180A1C1A707B685A1E7A607B
:103154005A1E9341DBB2002B08D0FB680B22BA182D
:1031640012781A70FB680133FB60EEE7BD4604B0C9
:1031740080BD000080B582B000AF78607B685B687A
:103184001A00054B1900100000F094F80300180011
:10319400BD4602B080BDC046D4020020B0B584B0A4
:1031A40000AF78600A00FB1C1A70FB1C1B780B2B09
:1031B40002D9FB1C0B221A707B680F257C1918009E
:1031C400FFF70AFF030023707A19FB1C12781B789F
:1031D4009A4222D90A23BB60FB1CFA1C1278013ADA
:1031E4001A70FB1C1B785A1E9341DBB2002B06D0CD
:1031F400BA6813009B009B185B00BB60ECE77B681C
:103204005B681A00BB681900100001F095FD0B0003
:103214001A007B685A60012300E000231800BD46B1
:1032240004B0B0BDB0B584B000AF78600A00FB1C38
:103234001A70FB1C1B780B2B02D9FB1C0B221A7077
:103244000F23FC18FB1C1A787B6811001800FFF789
:10325400A5FF030023707B680E257C191800FFF777
:10326400BBFE030023700D203B18F91C7A19097862
:1032740012788A1A1A703B181B78002B10D004009D
:103284003B181A780A4B20211800FFF755FF7B687A
:1032940058683B191A78064BD3181900FFF7A7F999
:1032A4000F23FB181B781800BD4604B0B0BDC04600
:1032B400D4020020B0B584B000AF786039607B6878
:1032C4000F257C191800FFF795FE030023707B6817
:1032D4003A6811001800FFF78AF97B191B783A68DD
:1032E400D31800221A707B191B781800BD4604B04D
:1032F400B0BD000090B589B000AF786039607B68DC
:1033040030211800FEF71FF803007B617B6823213E
:103314001800FEF718F803003B610F23FC187B68C4
:103324001800FFF727FF030023707B69DAB23B69BB
:10333400DBB2D318DAB27B6811001800FFF772FF12
:103344007B689B68FB610023BB61FB691B785BB2F4
:10335400002B31D0FB691B785BB2232B07D1BB69EF
:103364005A1CBA61184AD2563B681A701DE0FB69B0
:103374001B785BB2302B13D1134ABB69D3181B786B
:103384005BB2202B05D0104ABB69D31800229A5691
:1033940000E030223B681A70BB690133BB6104E072
:1033A400FB6900229A563B681A70FB690133FB6182
:1033B4003B6801333B60C8E73B6800221A70012375
:1033C4001800BD4609B090BDD402002080B584B079
:1033D40000AF7860164B1A687B68D218144B1A60D9
:1033E400144B1B68FB60FB68002B1DD0FB685B7CE7
:1033F400022B15D1FB681B687A689A429B415B4299
:10340400DBB2002B06D0FB681A687B68D21AFB6813
:103414001A6005E0FB6801225A74FB6800221A60F6
:10342400FB689B68FB60DEE7BD4604B080BDC04618
:10343400E4020020E002002080B582B000AF174B08
:103444001B78DBB2002B24D1154B1B687B607B6897
:10345400002B1FD07B685B7C012B16D17B681B7C07
:10346400012B0CD0022B10D17B685A687B681A6040
:103474007B6802225A747B68DB68984705E07B68A6
:1034840000225A747B68DB6898477B689B687B6082
:10349400DDE7C046BD4602B080BDC0463000002016
:1034A400E002002080B586B000AFF8607A603B602F
:1034B4000B203B180A1C1A70FB6800225A74FB6824
:1034C4003A1812781A74FB687A68DA60FB683A680A
:1034D4005A601A4B1B68002B0AD1184BFA681A6001
:1034E400164B1B6800229A60FB6802225A741FE084
:1034F400124B1B687B617B699B68002B07D07A6940
:10350400FB689A4211D07B699B687B61F3E77A6917
:10351400FB689A420BD0FB6800229A607B69FA68C8
:103524009A60FB6802225A7402E0C04600E0C0467A
:10353400FB681800BD4606B080BDC046E00200200E
:1035440080B500AF0120FFF741FFBD4680BD80B5C7
:1035540000AF01231800BD4680BD000090B583B0C4
:1035640000AF01F07FF9FB1D01221A7000F032FD5B
:1035740003001A00FB1D043A51424A411A7001F03B
:1035840087F93B1D00221A803B1D1B88062B33D86C
:10359400BB1C00221A803B1D1B885A00194BD218F1
:1035A400BC1C3B1D1B881100180000F0F7FE030033
:1035B4002380BB1C1B88012B11D13B1D1B88DBB254
:1035C4000021180000F020F803001A0001235340E2
:1035D400DBB2002B0AD0FB1D00221A7006E0BB1CD4
:1035E4001B88012B02D9FB1D00221A703B1D1A886F
:1035F4003B1D01321A80C7E7FB1D1B781800BD462E
:1036040003B090BDFC02002090B585B000AF02006D
:10361400FB1D1A703B1D0A1C1A80FB1D1B780A2B0C
:1036240001D900233FE0FB1D1B78072B01D90023A0
:1036340039E0FB1D1A781E4B5200D35A3A1D1288EA
:103644009A4201D101232EE00F243B1901221A7062
:10365400FFF77DFF031E1FD001F004F9FB1D1B784B
:103664009AB23B1D1B881900100000F0F9FE0300FC
:10367400043B5A1E9341DBB2002B03D03B190022BA
:103684001A7006E0FB1D1A78094B5200391D09888F
:10369400D15201F0FDF803E00F23FB1800221A7049
:1036A4000F23FB181B781800BD4605B090BDC0461B
:1036B400FC02002080B582B000AF02003960FB1D1F
:1036C4001A70FB1D1B780A2B01D900230DE0FB1D8A
:1036D4001B78072B01D9002307E0FB1D1A78054B43
:1036E4005200D25A3B681A8001231800BD4602B02A
:1036F40080BDC046FC02002090B585B000AF786064
:1037040039600B23FB1830221A700A23FB1823227A
:103714001A707B68FB6002E0FB680133FB60FB68A6
:103724001B785BB2002BF7D143E0FB68013BFB60E5
:10373400FB681B785BB20B22BA18127852B29A4219
:1037440008D0FB681B785BB20A22BA18127852B20E
:103754009A422ED13B680A21180001F0EDFA0B00C1
:103764001A0009243B191A703B680A21180001F059
:103774005DFA03003B603B191B78002B0FD13B68BB
:10378400002B0CD1FB681B785BB20A22BA181278A2
:1037940052B29A420CD1FB6820221A7009E0092324
:1037A400FB181B783033DBB25AB2FB681A7000E0A6
:1037B400C046FA687B689A42B7D83B685A4253417C
:1037C400DBB21800BD4605B090BD80B586B000AF31
:1037D400F860B960FB1D1A70BB685A1CBA600022FD
:1037E4009A5617217B181A707B181B78002B0CD162
:1037F400FB1D1B78002B06D0FB685A1CFA607A1854
:10380400127852B21A70FB6808E0FB685A1CFA601E
:103814001722BA18127852B21A70DDE71800BD46A2
:1038240006B080BD80B584B000AFF860B9607A603E
:10383400F9687B6801221800FFF7C7FFBA687B6844
:1038440011001800FFF758FF03001800BD4604B02C
:1038540080BD80B582B000AF78600A00FB1C1A708E
:103864007B6818687B681979FB1C1B781A00FDF7C4
:103874000AF9BD4602B080BD80B584B000AFF860DF
:10388400B9607A603B60144AFB681A60FB680022E6
:103894009A76FB68BA689A60FB687A68DA60FB68B3
:1038A4003A685A61FB68DA68FB689B685A43FB68AC
:1038B4001A61FB6800225A60FB6800221A76FB68D2
:1038C4001800FDF7ABFEFB6801225A76FB6818006E
:1038D400BD4604B080BDC0468C4F000880B584B09E
:1038E40000AFF860B9607A603B60F8683B687A685A
:1038F400B968FFF7C1FF044AFB681A60FB68180047
:10390400BD4604B080BDC046AC4F000880B582B04F
:1039140000AF7860054A7B681A607B681800FFF77F
:103924004DFB7B681800BD4602B080BDAC4F00085B
:1039340080B582B000AF78607B681800FFF7E6FFBF
:103944007B681C21180001F096F87B681800BD46BE
:1039540002B080BD80B582B000AF78607B6818008B
:10396400FFF722FB03001800BD4602B080BD80B5FE
:1039740082B000AF78607B681800FFF70AFB030091
:103984001800BD4602B080BD80B582B000AF78603B
:103994007B6800225A76BD4602B080BD80B582B0F5
:1039A40000AF78607B689B7E1800BD4602B080BD86
:1039B40090B585B000AF78600A00FB1C1A700F2325
:1039C400FB1800221A700F243B191B78072B1AD8F6
:1039D4007B68DB683A1912789200D058FB1C1B787C
:1039E400012213405A1E9341DBB21900FFF731FF45
:1039F400FB1C1B785A10FB1C1A703B191A783B19D4
:103A040001321A70DFE7BD4605B090BD80B582B0C3
:103A140000AF78600A00FB1C1A70FB1C1A787B68E4
:103A240011001800FFF7C4FF7B689B680021180091
:103A3400FFF70FFF7B685B6800211800FFF709FFA1
:103A4400BD4602B080BD80B582B000AF78600A0088
:103A5400FB1C1A70FB1C1A787B6811001800FFF716
:103A6400A7FF7B689B6801211800FFF7F2FE7B68C3
:103A74005B6800211800FFF7ECFEBD4602B080BD74
:103A840080B582B000AF78607B6800221A607B68E2
:103A940000225A607B6800229A607B680022DA6008
:103AA4007B6800221A617B6800225A617B680122CC
:103AB4001A767B6800225A767B680022DA617B687A
:103AC4001800BD4602B080BD80B582B000AF7860FA
:103AD4000A00FB1C1A707B681A69FB1C1B7819000E
:103AE4001000FFF7B6FEBD4602B080BD80B584B0BD
:103AF40000AF786008001100FB1C021C1A70BB1C8C
:103B04000A1C1A70FB1C1B78102B01D900231EE021
:103B14000023FB60BB1C1B78022B06D0032B07D0B1
:103B2400012B08D14023FB6007E01023FB6004E075
:103B34005023FB6001E00023FB60FB68DAB2FB1C4E
:103B44001B781343DBB2802252421343DBB21800CA
:103B5400BD4604B080BD000080B500AF024B1B68B9
:103B64001800BD4680BDC046E402002080B584B084
:103B740000AF7860FFF7F0FF0300FB60FFF7ECFF96
:103B84000200FB68D21A7B689A429B415B42DBB21B
:103B9400002BF3D1BD4604B080BD80B582B000AF28
:103BA40078607B681800FFF7E1FFBD4602B080BD76
:103BB40080B500AF014B1800BD4680BD1003002046
:103BC40080B500AFFFF7F4FF0300180000F0F6F82B
:103BD400BD4680BD80B582B000AF7860024B18004E
:103BE400BD4602B080BDC0466803002080B582B0E7
:103BF40000AF786039603B681800FFF7CEFFBD4620
:103C040002B080BD80B584B000AFF860B9607A605E
:103C14003B60FB68BA681A60FB687A685A60FB68A4
:103C24003A689A60FB68BA69DA60FB68FA691A61F3
:103C3400FB68180000F005F803001800BD4604B046
:103C440080BD90B587B002AF78607B6818680223A6
:103C54000093002300220121FDF733F87B685A68A2
:103C64007B681B6819001000FDF75BF87B681A6914
:103C74007B681B6819001000FDF753F87B689A688D
:103C84007B681B6819001000FDF74BF80F23FB1825
:103C940000221A700F243B191B78072B11D87B685C
:103CA400DB683A1912789200D2587B681B681900B5
:103CB4001000FDF736F83B191A783B1901321A70D7
:103CC400E8E77B6801211800FFF7FEFE7B683221DC
:103CD4001800FFF78BFF7B6864211800FFF786FF4D
:103CE40096235A007B683821180000F03BF896238D
:103CF4005A007B683921180000F034F87B6864228C
:103D04001421180000F02EF87B681E22742118007C
:103D140000F028F87B681E225421180000F022F8D5
:103D24007B681E226F21180000F01CF87B68642257
:103D34000C21180000F016F87B6864220121180099
:103D440000F010F87B6864223821180000F00AF8AB
:103D54007B6800211800FFF7B7FE01231800BD4659
:103D640005B090BD80B584B000AFF8607A600B20D8
:103D74003B180A1C1A703B181A78FB6811001800CB
:103D8400FFF744FEFB681B6801211800FFF761FD83
:103D9400FB6802211800FFF729FFFB681B6800215C
:103DA4001800FFF756FD7A68FB6811001800FFF74A
:103DB4001DFF01231800BD4604B080BDB0B586B018
:103DC40000AF78607B681C69544B1800FFF7E6FD70
:103DD400031E01D0012300E0002319002000FCF79A
:103DE40044FF7B681B681800FCF756FF0300013B87
:103DF4005A425341DBB2002B05D07B681B68180084
:103E0400FCF724FF87E07B68DB699A1C7B68DA6136
:103E1400424B1800FFF7ABFD03001A000123534087
:103E2400DBB2002B0DD07B685B7E01225340DBB2FA
:103E3400002B06D07B68DB69394A934201D8012301
:103E440000E00023002B65D17B680022DA617B68E7
:103E54005B690F2213402ED17B681B7E002B2AD076
:103E64007B685B69002B06D17B6801225A762B4B59
:103E74001800FFF789FD7B685B691A0917217B1815
:103E84001A7016257C197B181A787B680021180093
:103E9400FFF72CFE030023707B191B78802252420B
:103EA4001343DAB27B6811001800FFF7AFFD7B689B
:103EB40000221A7628E0194B1800FFF74BFD030087
:103EC4003B617B685B693A69D2180F23FB1812784F
:103ED4001A707B685B695A1C7B685A617B685B69F2
:103EE4001F2B05D97B6800225A617B6800225A7611
:103EF4000F23FB1800229A567B6811001800FFF765
:103F0400A2FD7B6801221A767B681B681800FCF707
:103F14008EFE00E0C046BD4606B0B0BD680300207A
:103F24001209000080B582B000AF786039607B6808
:103F3400012B19D13B68134A934215D1124B180037
:103F4400FFF79EFD114A124802230221FFF7AAFA45
:103F5400104B114802221021FFF7C0FC0F49104BEF
:103F640021221800FEF790FF7B68002B07D13B68E5
:103F7400044A934203D1084B1800FFF7C7FCBD461F
:103F840002B080BDFFFF000010030020C53B000805
:103F94003003002044030020680300208403002031
:103FA400A803002080B500AF034B19000120FFF7E0
:103FB400B9FFBD4680BDC046FFFF000080B500AF1D
:103FC400034B19000020FFF7ADFFBD4680BDC0467E
:103FD400FFFF0000B0B584B000AF0A217B180622B1
:103FE4001A8008203B1806221A800E23FB18002290
:103FF4001A80BB1D00221A803B1D00221A800C234C
:10400400FB18012252421A80B94A7B1812881A807E
:10401400B84A3B1812881A807B181B88B64A934208
:104024004FD0B64A934203D0002B00D1F2E099E17D
:104034000823FB181B88002B0FD1AD4B180000F090
:1040440033FC03001A00BB1C1A80BB1C1B88042B06
:1040540000D194E1BB1C1B8897E10823FB181B8843
:10406400A54A93421FD1A24B180000F01DFC030087
:104074001A00BB1C1A80BB1C1B88042B02D0BB1C5F
:104084001B8882E19B4B0021180000F049FC0300CF
:104094001A00BB1C1A80BB1C1B88042B00D16EE1C8
:1040A400BB1C1B8871E100F009FA03001A00BB1C59
:1040B4001A80BB1C1B88042B00D160E1BB1C1B882D
:1040C40063E10823FB181B88002B00D06EE00E234D
:1040D400FB1800221A8044E0894B1B889AB20E20F8
:1040E4003B181988874B4900CB5A9A4204D10C23B8
:1040F400FB183A1812881A800E257B191A880C238B
:10410400FB1800215B5E9A4225D07B191A887D4BEF
:104114005200D35A3C1D7C4A1100180000F03EF9AD
:10412400030023803B1D1B88012B14D07B191A88A4
:10413400744B5200D25A744B1B88BC1D19001000DA
:1041440000F046FA03002380BB1D1B88042B02D019
:10415400BB1D1B8819E10E217B181A887B180132BC
:104164001A800E23FB181B88092BB5D9604B00213C
:10417400180000F0D5FB03001A00BB1C1A80BB1CFE
:104184001B88042B02D0BB1C1B88FEE0594B180073
:1041940000F08AFB03001A00BB1C1A80BB1C1B889E
:1041A400042B00D1EDE0BB1C1B88EEE00823FB18B8
:1041B4001B88524A93421FD14E4B180000F074FBE7
:1041C40003001A00BB1C1A80BB1C1B88042B02D0E2
:1041D400BB1C1B88D9E0464B0021180000F0A0FB53
:1041E40003001A00BB1C1A80BB1C1B88042B00D1C3
:1041F400C7E0BB1C1B88C8E000F060F903001A008C
:10420400BB1C1A80BB1C1B88042B00D1B9E0BB1C4F
:104214001B88BAE00823FB181B88002B0DD100F083
:104224004DF903001A00BB1C1A80BB1C1B88042B0D
:1042340000D1A8E0BB1C1B88A7E00823FB181B883F
:104244002E4A93420FD12B4B180000F02DFB030094
:104254001A00BB1C1A80BB1C1B88042B00D192E0E3
:10426400BB1C1B8891E00E23FB1800221A8055E02A
:10427400264B1B889AB20E203B181988214B490003
:10428400CB5A9A4204D10C23FB183A1812881A808C
:104294000E257B191A880C23FB1800215B5E9A42B9
:1042A40036D07B191A88174B5200D35A3C1D164A34
:1042B4001100180000F072F8030023803B1D1B88D6
:1042C400012B25D07B191A880E4B5200D25A0E4B63
:1042D4001B88BC1D1900100000F07AF9030023802C
:1042E400BB1D1B88042B13D0BB1D1B884DE0C0468F
:1042F40000780008007C0008EEEE0000FFFF0000DC
:1043040006780008E8020020B8030020067C0008B4
:104314000E217B181A887B1801321A800E23FB1891
:104324001B88092BA4D91B4B0021180000F0F8FAB4
:1043340003001A00BB1C1A80BB1C1B88042B02D070
:10434400BB1C1B8821E0144B180000F0ADFA0300DD
:104354001A00BB1C1A80BB1C1B88042B13D0BB1C6B
:104364001B8812E000F0AAF803001A00BB1C1A8094
:10437400BB1C1B88042B07D0BB1C1B8805E0C04654
:1043840002E0C04600E0C04604231800BD4604B065
:10439400B0BDC046007C000800780008B0B586B007
:1043A40000AF02003960BB1D1A800E217B18002269
:1043B4001A800C23FB18264A1A801623FB180122A4
:1043C4001A80244B3B61234BBB600D007C180020FA
:1043D40000F0A8F8030023807B191B88AB2B01D1C4
:1043E400AB2331E00E22BB181B881B498C46634467
:1043F4009B02BB60BB181B8801339B02174A94467F
:1044040063443B6118E03A690C217B1812881A80D6
:104414007A18BB1D12881B889A420AD13B69023B59
:104424001B889AB23B681A801623FB1800221A8054
:1044340007E03B69043B3B61BB6802333A699A423B
:10444400E1D81623FB181B881800BD4606B0B0BD82
:1044540055550000000001081E000200FE77000808
:10446400B0B584B000AF0200BB1D1A803B1D0A1C0E
:104474001A800E257B1900221A807C193B1D1A888C
:10448400BB1D1B881100180000F0A2F80300238054
:104494007B191B88802B0AD17C193B1D1A88BB1DF4
:1044A4001B881100180000F001F9030023800E237B
:1044B400FB181B881800BD4604B0B0BD90B583B08E
:1044C40000AFFB1D04221A70FC1D144B180000F0F1
:1044D400EBF903002370FB1D1B78042B02D0FB1D9A
:1044E4001B7817E0FC1D0D4B0021180000F018FA92
:1044F40003002370FB1D1B78042B02D0FB1D1B78CB
:1045040008E0FC1D064B180000F0CEF903002370F0
:10451400FB1D1B781800BD4603B090BD0078000851
:10452400007C000880B584B000AF0200FB1D1A7047
:104534000E217B1806221A800C203B1806221A80B2
:10454400204A7B1812881A801F4A3B1812881A8046
:10455400FB1D1B78002B1FD0012B2DD13B181B8872
:10456400002B08D17B181B88184A934201D10023E1
:1045740023E0012321E00E23FB181B88002B09D123
:104584000C23FB181B88114A934201D1012314E028
:10459400002312E0AB2310E00E23FB181B88002B32
:1045A40001D1002309E00C23FB181B88002B01D147
:1045B400012302E0AB2300E000231800BD4604B051
:1045C40080BDC04600780008007C0008EEEE0000C4
:1045D400B0B586B000AF0200BB1D1A803B1D0A1C9B
:1045E4001A801323FB1804221A7010217B1800224E
:1045F4001A802A4B7B612A4BFB600D007C1801203A
:10460400FFF790FF030023807B191B88AB2B01D19C
:10461400AB233FE01022BB181B8822498C4663441D
:104624009B027B61BB181B8801339B021E4A944684
:104634006344FB6029E07B691B68013322D11325A5
:104644007C193B1D1A887B691100180000F068F979
:10465400030023707B191B78042B03D07B191B7870
:104664009BB217E07B699A1C13257C19BB1D1B8820
:104674001900100000F054F9030023707B191B7813
:104684009BB207E07B6904337B617A69FB689A42D9
:10469400D1D380231800BD4606B0B0BD0000010888
:1046A400FF0701081E000200FE770008F0B589B07C
:1046B40000AF0200BB1D1A803B1D0A1C1A80152383
:1046C400FB1804221A70604BFB61604BBB61122122
:1046D4007B1800221A801623FB1800221A8010234C
:1046E400FB1800221A800E23FB1800221A800D00EA
:1046F4007C180020FFF716FF030023807B191B881A
:10470400012B04D1524BFB61524BBB610BE01223D2
:10471400FB181B88002B04D14E4BFB614C4BBB6137
:1047240001E0AB238BE015257C194B4AFB69110092
:10473400180000F0F5F8030023707B191B78042B94
:1047440003D07B191B789BB279E010257C193B1DA3
:104754001A88BB1D1B8811001800FFF739FF0300DE
:1047640023807B191B88042B02D07B191B8866E0ED
:104774001623FB1800221A8037E016257B191A88A5
:10478400364B5200D35ABA1D12889A4227D07B194D
:104794001A88324B5200D35A0E26BC19304A1100E3
:1047A4001800FFF7FBFD03002380BB191B88012BB6
:1047B40015D07B191A88294B5200D25A284B1B88D2
:1047C40010257C1919001000FFF702FF0300238055
:1047D4007B191B88042B02D07B191B882FE0162120
:1047E4007B181A887B1801321A801623FB181B8841
:1047F400092BC2D915257C19BB69180000F054F89F
:10480400030023707B191B78042B03D07B191B78BE
:104814009BB214E015257C19FB690021180000F0F7
:104824007FF8030023707B191B78042B03D07B19BA
:104834001B789BB203E01523FB181B789BB218006E
:10484400BD4609B0F0BDC046FF03010800000108E1
:1048540000780008007C0008EEEE0000E80200206A
:10486400B803002080B500AF064B1B6980221340BB
:1048740005D0044B044A5A60024B044A5A60BD46B0
:1048840080BDC0460020024023016745AB89EFCDBF
:1048940080B500AF034B1A69024B80210A431A61A9
:1048A400BD4680BD00200240B0B584B000AF786042
:1048B4000F257B1904221A707C19B0231B031800DE
:1048C40000F096F80300237028003B181B78042B93
:1048D4001CD1124B1A69114B02210A431A610F4B66
:1048E4007A685A610D4B1A690C4B40210A431A61CC
:1048F4003C18B0231B03180000F07AF8030023705F
:10490400064B1A69054B02218A431A610F23FB18CF
:104914001B781800BD4604B0B0BDC046002002405C
:10492400B0B584B000AF78600A00BB1C1A800F25B4
:104934007B1904221A707C19B0231B03180000F0A1
:1049440057F80300237028003B181B78042B17D159
:104954000F4B1A690E4B01210A431A617B68BA1C7A
:1049640012881A803C18B0231B03180000F040F88A
:1049740003002370064B1A69054B01218A431A610F
:104984000F23FB181B781800BD4604B0B0BDC04609
:104994000020024080B582B000AFFB1D04221A70D3
:1049A400124BDB6801221340012B03D1FB1D0122B2
:1049B4001A7014E00D4BDB681022134003D0FB1D6A
:1049C40002221A700BE0094BDB680422134003D067
:1049D400FB1D03221A7002E0FB1D04221A70FB1D4A
:1049E4001B781800BD4602B080BDC04600200240BE
:1049F40090B585B000AF78600F217B1804221A703F
:104A04007C18FFF7C7FF0300237008E00F23FC188E
:104A1400FFF7C0FF030023707B68013B7B600F231B
:104A2400FB181B78012B02D17B68002BEED17B682D
:104A3400002B03D10F23FB1805221A700F23FB1838
:104A44001B781800BD4605B090BD80B500AFFDF7DA
:104A540055FBFEF70DFAFFF7B1FABD4680BD80B5F0
:104A640000AFFFF79FFAFEF7F7F9FDF73BFBFCF702
:104A740041FBBD4680BD10B500F001F810BD10B576
:104A840000F01EF810BD931E10B50C00222B04D9A3
:104A940000231C000B70200010BD0A2A09D1002835
:104AA40007DA2D230B7001214042611800F064F8ED
:104AB400F1E70021F9E710B5FFF7E5FF10BD0000AD
:104AC40010B5034B0100186800F004F810BDC0468F
:104AD4003400002070B50500002910D00C1F236895
:104AE400002B00DAE418280000F086F81D4A136849
:104AF400002B05D163601460280000F085F870BDB8
:104B0400A34209D9216860188342F3D118685B680D
:104B140041182160EEE713005A68002A01D0A2422E
:104B2400F9D919685818A0420BD1206809185818E7
:104B340019608242E0D110685268411819605A60C5
:104B4400DAE7A04202D90C232B60D5E7216860186C
:104B5400824203D1106852684118216062605C602F
:104B6400CAE7C046BC0300200023C25C0133002A0C
:104B7400FBD1581E70470000F0B517008DB0060039
:104B84000C002522164902A800F02CF8BB1E0025B3
:104B9400222B1CD8631E009302AB01933900300012
:104BA40000F0CAF8019A6B1C525C0099CA54B742CF
:104BB40012D90022E25422002B00E91A8B4208DDAC
:104BC4001178E05C1070E1540132013BF5E7257087
:104BD4002C0020000DB0F0BD1D000600DEE7C0462D
:104BE400C84F0008002310B59A4200D110BDCC5C18
:104BF400C4540133F8E7000010B5024800F00CF883
:104C040010BDC046C403002010B5024800F005F8EA
:104C140010BDC046C403002070477047030012183B
:104C2400934200D1704719700133F9E70022430819
:104C34008B4274D303098B425FD3030A8B4244D360
:104C4400030B8B4228D3030C8B420DD3FF220902A2
:104C540012BA030C8B4202D31212090265D0030B61
:104C64008B4219D300E0090AC30B8B4201D3CB0357
:104C7400C01A5241830B8B4201D38B03C01A524199
:104C8400430B8B4201D34B03C01A5241030B8B429B
:104C940001D30B03C01A5241C30A8B4201D3CB0286
:104CA400C01A5241830A8B4201D38B02C01A52416B
:104CB400430A8B4201D34B02C01A5241030A8B426E
:104CC40001D30B02C01A5241CDD2C3098B4201D386
:104CD400CB01C01A524183098B4201D38B01C01A04
:104CE400524143098B4201D34B01C01A524103097B
:104CF4008B4201D30B01C01A5241C3088B4201D32A
:104D0400CB00C01A524183088B4201D38B00C01AD6
:104D1400524143088B4201D34B00C01A5241411AFD
:104D240000D20146524110467047FFE701B500200A
:104D340000F006F802BDC0460029F7D076E77047B8
:104D44007047C0465F5F6378615F707572655F76B8
:104D540069727475616C000061626F727428292C29
:104D64002065786974696E672E2E2E002C20667576
:104D74006E6374696F6E3A2000000000617373659E
:104D84007274696F6E2022257322206661696C65D6
:104D9400643A2066696C6520222573222C206C6994
:104DA4006E65202564257325730A000032120008FD
:104DB4000E12000812120008161200081A12000837
:104DC4001E12000822120008261200082A120008E7
:104DD4002E1200080A120008021200080612000827
:104DE4003A1800088E180008C8180008101900089E
:104DF4009C190008001A0008681A0008D01A000854
:104E0400E61A00082047494C4F54594E4B41204B59
:104E14004142452000000000574552534A413A2080
:104E24003030302E00000000303030200000000010
:104E34002020202050525A4553555720202020002E
:104E440020202043494543494520202000000000FC
:104E54005A6F7374616C6F0020555354415720444A
:104E64004C55474F5343202000000000202020557C
:104E74005354415720494C4F534320200000000015
:104E840020205553544157204B414C4942522E2027
:104E9400000000002A2A20424C4144204E4F5A412F
:104EA40021202A2A000000003E1B0008881B00085D
:104EB400EC1B0008521C0008AA1C0008D61C0008A1
:104EC400041D0008321D00088A1D000800000000AF
:104ED40000000000811E00089D1E0008444C554738
:104EE4004F53433A2323232330206D6D00000000E9
:104EF400494C4F53433A232323233020737A742E8F
:104F0400000000004B414C49425241432E3A2323B6
:104F140030206D6D00000000205B2323305D2000F5
:104F24003C23232323303E2000000000313233345D
:104F3400353637383930000000000000000000002A
:104F4400E527000801280008000000000000000018
:104F5400592600087D260008591200086D12000821
:104F6400D525000800000000000000009525000879
:104F7400B1250008591200086D120008D525000853
:104F84000000000000000000832F0008972F000895
:104F9400AD2F00080000000000000000C50200085A
:104FA4000000000000000000832F0008733900088F
:104FB400593900081139000835390008A1390008A9
:104FC4008D3900083031323334353637383961623F
:104FD400636465666768696A6B6C6D6E6F70717225
:094FE400737475767778797A0010
:104FF00078563412A000002000000000006CDC0293
:105000000000000000000000010203040607080978
:10501000E0000020B8010020F40100201C02002064
:1050200001FFFFFF3800002000000000000000002A
:105030000000000000000000000000000000000070
:105040000000000000000000000000000000000060
:105050000000000000000000000000000000000050
:105060000000000000000000000000000000000040
:105070000000000000000000000000000000000030
:0C50800000000000000000003254769890
:04000005080000C52A
:00000001FF
