:020000040800F2
:100000000020002005020008E9000008D1000008D7
:1000100000000000000000000000000000000000E0
:10002000000000000000000000000000CD000008FB
:100030000000000000000000C90000086502000880
:10004000C5000008C5000008C5000008C50000087C
:10005000C5000008C5000008C5000008C50000086C
:10006000C5000008C5000008C5000008C50000085C
:10007000C5000008C5000008C5000008C50000084C
:10008000C5000008C500000800000000C500000809
:10009000C5000008C5000008C5000008C50000082C
:1000A000C5000008C5000008C5000008C50000081C
:1000B000C500000800000000C500000800000000A6
:1000C0005FF808F100BEFEE700BEFEE700BEFEE7F7
:1000D00004207146084202D0EFF3098001E0EFF3FB
:1000E00008807146494A104700BEFEE700BEFEE7A1
:1000F00030B583B000F094F9304B314A1360314A87
:100100001360314B314A01E002CA02C330498B42CD
:10011000FAD32B4B1A682F4B9A4200D0FEE7294B9B
:100120001A682D4B9A42F9D1244B2C4A13602C4A61
:1001300013602C4B01E0002204C32B4A9342FAD3F4
:10014000264B1B68002B03D1254B1B68002B00D0CE
:10015000FEE700F061F9694601A800F065F9234C5B
:10016000234BE41AA410002504E0AA00204BD35826
:1001700098470135AC42F8DC1E4C1F4BE41AA41022
:10018000002504E0AA001C4BD35898470135AC4227
:10019000F8DC0099019800F04FF80500174C184B57
:1001A000E41AA41004E0013CA200154BD358984770
:1001B000002CF8DC280000F03FF9C046BABADECACD
:1001C000000000202400002000000020540500084A
:1001D00028000020785634123254769828000020E7
:1001E00034000020280000203800002038020008D9
:1001F00038020008380200083802000838020008F7
:100200003802000810B5FFF773FF0000ED0000088A
:1002100054050008000000202800002054050008B4
:10022000000000000000000028000020380000202E
:080230000000000000000000C6
:1002380080B582B000AF7860396000F001F8FCE763
:10024800014B1B787047C04618000020024A13680B
:100258001B1813607047C0463000002010B50120FD
:10026800FFF7F4FF10BD000082B000230193009354
:10027800274A116880235B020B431360244B1B68D9
:100288008022920213400093019B01330193009B4B
:10029800002B04D1019AA023DB019A42EED11C4B1A
:1002A8001B689B0306D501230093009B012B04D0F8
:1002B80002B0704700230093F7E7164B11221A602B
:1002C800134B5A685A605A685A605A6812490A4069
:1002D8005A605968882252030A435A601968802272
:1002E80052040A431A600A4B1B689B01FBD5084B52
:1002F8005A6803218A435A60596802220A435A609D
:10030800034B5A680C231340082BF9D1D0E7C04699
:100318000010024000200240FF7FC0FF10B51E4BB6
:100328005A680C231340042B16D0082B18D0002B26
:1003380003D01A4B1A4A1A6002E0184B184A1A607E
:10034800154B5B681B061B0F164AD35CDBB2134ABE
:100358001168D940116010BD104B114A1A60EFE7BF
:100368000D4B5C685A68C0235B02A402240F023458
:100378001A4204D10C484443084B1C60E0E7064B82
:10038800D96A0F2319400131054800F053F8444356
:10039800024B1C60D4E7C046001002401400002045
:1003A80000127A000400002000093D0010B5124B2D
:1003B8001A6801210A431A605A68104802405A60B4
:1003C8001A680F4802401A601A680E4802401A60FC
:1003D8005A680D4802405A60DA6A0F208243DA628E
:1003E8001A6B0A4802401A635A6B8A435A630022FE
:1003F8009A60FFF739FF10BD001002400CB8FFF8F3
:10040800FFFFF6FEFFFFFBFFFFFFC0FFACFEFFFF95
:1004180010B5FFF783FF10BD10B5FFF7C7FF10BD7C
:1004280001230360014B0B607047C0461C0000208D
:10043800FEE70000002243088B4274D303098B4275
:100448005FD3030A8B4244D3030B8B4228D3030C9C
:100458008B420DD3FF22090212BA030C8B4202D33E
:100468001212090265D0030B8B4219D300E0090A66
:10047800C30B8B4201D3CB03C01A5241830B8B426F
:1004880001D38B03C01A5241430B8B4201D34B0358
:10049800C01A5241030B8B4201D30B03C01A5241BD
:1004A800C30A8B4201D3CB02C01A5241830A8B4242
:1004B80001D38B02C01A5241430A8B4201D34B022B
:1004C800C01A5241030A8B4201D30B02C01A52418F
:1004D800CDD2C3098B4201D3CB01C01A5241830943
:1004E8008B4201D38B01C01A524143098B4201D37D
:1004F8004B01C01A524103098B4201D30B01C01AA8
:100508005241C3088B4201D3CB00C01A5241830821
:100518008B4201D38B00C01A524143088B4201D34E
:100528004B00C01A5241411A00D2014652411046AE
:100538007047FFE701B5002000F006F802BDC0468D
:0C0548000029F7D076E770477047C046E6
:100554007856341200000000000000000102030479
:1005640006070809006CDC0201FFFFFF2C000020D5
:080574000000000032547698EB
:04000005080000F1FE
:00000001FF
