:020000040800F2
:1000000000200020410200084902000851020008B7
:1000100000000000000000000000000000000000E0
:10002000000000000000000000000000770200084F
:1000300000000000000000007F0200082D170008EB
:10004000870200088702000887020008870200086C
:10005000870200088702000887020008870200085C
:10006000870200088702000887020008870200084C
:10007000870200088702000887020008870200083C
:1000800087020008870200080000000087020008BD
:10009000870200088702000887020008870200081C
:1000A000870200088702000887020008870200080C
:1000B000870200080000000087020008000000001E
:1000C0005FF808F180B58EB000AF00F011F94A4B2F
:1000D0004A4A1A604A4B494A1A604A4B3B634A4BA8
:1000E000FB624A4BBB62FB6A7B6207E03A6B131D03
:1000F0003B637B6A191D796212681A60BA6A7B6A6F
:100100009A42F3D83C4B1B68414A934204D13C4B82
:100110001B68404A934200D0FEE73F4B374A1A60C3
:100120003E4B364A1A603E4B3B623E4BFB613B6A9C
:10013000BB6104E0BB691A1DBA6100221A60FA694A
:10014000BB699A42F6D8344B1B68002B03D1334B62
:100150001B68002B00D0FEE700F0D0F83A003B1DF2
:100160001100180000F0B4F82F4A304BD31A9B103E
:10017000FB600023BB6007E02C4BBA689200D358A9
:100180009847BB680133BB60FA68BB689A42F3DCEE
:10019000274A284BD31A9B10FB600023BB6007E063
:1001A000244BBA689200D3589847BB680133BB60B0
:1001B000FA68BB689A42F3DC7B683A681100180061
:1001C00001F014F903007B631B4A1C4BD31A9B10EC
:1001D0007B617B693B6108E03B695A1E174B9200CB
:1001E000D35898473B69013B3B613B69002BF3DCEB
:1001F0007B6B180000F066F800000020BABADECA77
:1002000090000020A41D00080000002094000020A1
:1002100078563412325476989400002078020020E8
:10022000940000207C020020BC020008BC020008F0
:10023000C0020008BC020008C4020008C002000896
:1002400080B500AFFFF73EFF80B500AF00BEFEE710
:1002500004207146084202D0EFF3098001E0EFF379
:10026000088071460A4A104780B582B000AF7860B6
:10027000396000BEFEE780B500AF00BEFEE780B586
:1002800000AF00BEFEE780B500AF00BEFEE7000095
:0402900069020008F7
:10029400A41D00080000002094000020A41D0008F4
:1002A4000000000000000000940000207C020020F8
:1002B4000000000000000000811B0008691B00080A
:1002C40080B582B000AF7860FEE7000080B582B0F0
:1002D40000AF786039607B6801221A603B68024A8B
:1002E4001A60BD4602B080BD0400002080B500AF96
:1002F40000F008F8BD4680BD80B500AF00F048F8B6
:10030400BD4680BD80B500AF1B4B1A681A4B012156
:100314000A431A60184B5A68174B18490A405A6026
:10032400154B1A68144B16490A401A60124B1A6886
:10033400114B14490A401A600F4B5A680E4B12496C
:100344000A405A600C4BDA6A0B4B0F218A43DA627B
:10035400094B1A6B084B0D490A401A63064B5A6B3A
:10036400054B01218A435A63034B00229A6000F033
:100374007FF8BD4680BDC046001002400CB8FFF8AF
:10038400FFFFF6FEFFFFFBFFFFFFC0FFACFEFFFF1A
:1003940080B584B000AF0023FB600023BB60002362
:1003A4007B6000233B602E4B5B680C221340FB6098
:1003B400FB68042B09D0FB68082B0AD0FB68002BD0
:1003C40038D1284B284A1A6037E0264B264A1A604F
:1003D40033E0234B5A68F0239B031340BB60204B4C
:1003E4005A68C0235B0213407B60BB689B0C0233DA
:1003F400BB607B68002B0CD1B9680A005201521A09
:1004040093019B1ADB005B181B021A00154B1A6040
:1004140013E0134BDB6A0F22134001333B6039684E
:10042400114801F029FC03001A00BB685A430D4B24
:100434001A6002E00B4B0C4A1A60094B5B681B09FB
:100444000F221340094AD35CDBB2FB60054B1A68E8
:10045400FB68DA40034B1A60BD4604B080BDC04659
:10046400001002400C00002000127A00100000204E
:1004740080B582B000AF00237B6000233B60304B2B
:100484001A682F4B802149020A431A602C4B1A68C0
:1004940080239B0213403B607B6801337B603B6895
:1004A400002B04D17A68A023DB019A42EED1244BBD
:1004B4001A6880239B02134002D001233B6001E0B1
:1004C40000233B603B68012B36D11E4B11221A607E
:1004D4001B4A1B4B52685A60194A194B52685A609E
:1004E400174B5A68164B18490A405A60144B5A68FD
:1004F400134B882149030A435A60114B1A68104B65
:10050400802149040A431A600D4B1A6880239B0416
:100514001340F9D00A4B5A68094B03218A435A60A5
:10052400074B5A68064B02210A435A60044B5B6826
:100534000C221340082BF9D1BD4602B080BDC04641
:100544000010024000200240FF7FC0FF90B583B03E
:1005540000AF02003960FB1D1A70FB1D1B785BB2F3
:10056400002B36DA314AFB1D1B785BB219000F23CE
:100574000B40083B9B0806339B00D31804331B68CD
:10058400FA1D127852B2110003220A40D200FF2150
:1005940091400A00D2431A4011003B689B01FF229C
:1005A4001A40FB1D1B785BB2180003230340DB00D9
:1005B4009A401E48FB1D1B785BB21C000F2323408E
:1005C400083B9B080A4306339B00C31804331A6094
:1005D40029E0174AFB1D1B785BB29B08C0339B00C4
:1005E4009B58FA1D127852B2110003220A40D2001D
:1005F400FF2191400A00D2431A4011003B689B013D
:10060400FF221A40FB1D1B785BB218000323034032
:10061400DB009A400648FB1D1B785BB29B080A432B
:10062400C0339B001A50BD4603B090BD00ED00E0FE
:1006340000E100E080B582B000AF78607B68013BE8
:100644000C4A934201D9012310E00B4B7A68013A1A
:100654005A6001235B4203211800FFF777FF064B22
:1006640000229A60044B07221A6000231800BD463A
:1006740002B080BDFFFFFF0010E000E080B582B053
:1006840000AF0200FB1D1A70FB1D1B78012B02D06A
:10069400022B00D1FEE7BD4602B080BD80B582B01A
:1006A40000AF7860396001231800BD4602B080BDF8
:1006B40080B582B000AF00237B60074B5A69064BBC
:1006C400802189020A435A61034B5B697B607B6822
:1006D400BD4602B080BDC0460010024080B500AFE8
:1006E400BD4680BD80B500AF114A124B1100180001
:1006F400FFF7D4FFFFF74CFEFFF7DAFF0E4B1A6843
:10070400FA239900100001F0B7FA03001800FFF76C
:1007140091FF03005A1E9341DBB2002B02D002204A
:10072400FFF7ACFFFFF7DAFF00F008F8BD4680BD25
:100734000048E80100127A000C00002080B500AFE8
:10074400BD4680BD80B582B000AF7860080011005E
:10075400FB1C021C1A70BB1C0A1C1A707B681B68E9
:10076400FA1C12785200032191400A00D2431A4025
:100774007B681A607B681A68BB1C1978FB1C1B78A1
:100784005B0099400B001A437B681A60BD4602B0B7
:1007940080BD80B582B000AF786008001100FB1CFA
:1007A400021C1A70BB1C0A1C1A707B689B68FA1C1A
:1007B40012785200032191400A00D2431A407B6808
:1007C4009A607B689A68BB1C1B781900FB1C1B7819
:1007D4005B0099400B001A437B689A60BD4602B0E7
:1007E40080BD80B582B000AF786008001100FB1CAA
:1007F400021C1A70BB1C0A1C1A707B68DB68FA1C8A
:1008040012785200032191400A00D2431A407B68B7
:10081400DA607B68DA68BB1C1978FB1C1B785B0008
:1008240099400B001A437B68DA60BD4602B080BD74
:1008340080B582B000AF786008001100FB1C021C78
:100844001A70BB1C0A1C1A707B689B889BB2FA1C2A
:100854001278110001228A4092B2D24392B213401C
:100864009AB27B689A807B689B889AB2BB1C1B787F
:10087400F91C09788B409BB213439AB27B689A8027
:10088400BD4602B080BD80B584B000AF78600A0078
:10089400FB1C1A707B681A68FB1C1B785B00DA402F
:1008A4001300FB60FB68DBB203221340DBB21800C9
:1008B400BD4604B080BD80B584B000AF78600A0046
:1008C400FB1C1A707B68DA68FB1C1B785B00DA403F
:1008D4001300FB60FB68DBB203221340DBB2180099
:1008E400BD4604B080BD80B584B000AF78600A0016
:1008F400FB1C1A707B689A68FB1C1B785B00DA404F
:100904001300FB60FB68DBB203221340DBB2180068
:10091400BD4604B080BD80B584B000AF78600A00E5
:10092400FB1C1A707B689B889BB21A00FB1C1B780B
:100934001A411300FB60FB68DBB201221340DBB2F7
:100944001800BD4604B080BD80B582B000AF7860A9
:100954000A00FB1C1A70FB1C1B7801229A4013002E
:100964001A007B689A61BD4602B080BD80B582B032
:1009740000AF78600A00FB1C1A70FB1C1B78103354
:1009840001229A4013001A007B689A61BD4602B0A6
:1009940080BD80B582B000AF786008001100FB1CF8
:1009A400021C1A70BB1C0A1C1A70BB1C1B78002B7F
:1009B40007D0FB1C1A787B6811001800FFF7C4FFEE
:1009C40006E0FB1C1A787B6811001800FFF7CEFFC5
:1009D400BD4602B080BD80B582B000AF78600A0029
:1009E400FB1C1A707B689B8A9BB21A00FB1C1B7849
:1009F4001A411300012213405A1E9341DBB218001E
:100A0400BD4602B080BD80B582B000AF78600A00F8
:100A1400FB1C1A707B681B8A9BB21A00FB1C1B7898
:100A24001A411300012213405A1E9341DBB21800ED
:100A3400BD4602B080BDB0B584B000AFF860080018
:100A44007A6019000B243B19021C1A700A257B19C1
:100A54000A1C1A707B191A787B6811001800FFF7BA
:100A640012FF03001A003B191978FB681800FFF7FE
:100A740069FE7B191A787B6811001800FFF74BFF99
:100A840003001A003B191978FB681800FFF7D0FE21
:100A94007B191A787B6811001800FFF70CFF03001C
:100AA4001A003B191978FB681800FFF79AFE7B19A6
:100AB4001A787B6811001800FFF715FF03001A006D
:100AC4003B191978FB681800FFF763FEBD4604B0B4
:100AD400B0BD80B582B000AF78600A00FB1C1A700C
:100AE4007B6818687B681979FB1C1B781A00FFF770
:100AF40029FEBD4602B080BD80B582B000AF7860EB
:100B04000A00FB1C1A707B6818687B681979FB1C47
:100B14001B781A00FFF73DFEBD4602B080BD80B5CC
:100B240082B000AF78600A00FB1C1A707B681868FA
:100B34007B681979FB1C1B781A00FFF752FEBD462F
:100B440002B080BD80B582B000AF78600A00FB1CA3
:100B54001A707B6818687B681979FB1C1B781A006B
:100B6400FFF766FEBD4602B080BD80B582B000AF1F
:100B740078600A00FB1C1A707B6818687B68197916
:100B8400FB1C1B78013B5A425341DBB21A00FFF7AE
:100B940000FFBD4602B080BD80B582B000AF786072
:100BA4007B681A687B681B7919001000FFF713FF34
:100BB400031E01D0012300E000231800BD4602B04B
:100BC40080BD80B582B000AF78607B681A687B68AE
:100BD4001B7919001000FFF716FF031E01D0012333
:100BE40000E000231800BD4602B080BD90B583B07C
:100BF40000AF78600C0010001900FB1C221C1A7056
:100C0400BB1C021C1A707B1C0A1C1A70FB1C1A7871
:100C14007B6811001800FFF75CFFBB1C1A787B6827
:100C240011001800FFF78EFF7B1C1A787B681100F7
:100C34001800FFF774FF1823FB181A787B6811005B
:100C44001800FFF759FFBD4603B090BD80B582B0D0
:100C540000AF786039607B6818687B6819793B68F5
:100C64001A683B681B79FFF7E6FEBD4602B080BDFB
:100C740080B586B002AFF860B960FB1D1A70FB68DE
:100C8400BA681A60FB68FA1D12781A71F8680023B2
:100C94000093002301220321FFF7A8FFFB6818003B
:100CA400BD4604B080BD000080B586B002AF786058
:100CB400604B5A695F4B9C21C9030A435A615D4BDF
:100CC4005B69FB60FB687B681033180002230093A8
:100CD400002300220121FFF789FF7B6808331A00F3
:100CE4007B68103319001000FFF7B0FF7A687B6847
:100CF400103319001000FFF7A9FF7B6818331A009E
:100D04007B68103319001000FFF7A0FF7B682033C5
:100D14001A007B68103319001000FFF797FF7B68F7
:100D240028331A007B68103319001000FFF78EFF78
:100D34007B6830331A007B68103319001000FFF70A
:100D440085FF7B6838331A007B6810331900100064
:100D5400FFF77CFF7B6840331A007B68103319006F
:100D64001000FFF773FF7B6848331A007B68103369
:100D740019001000FFF76AFF7B6850331A007B6884
:100D8400103319001000FFF761FF7B6858331A0015
:100D94007B68103319001000FFF758FF7B68983305
:100DA4001A007B68103319001000FFF74FFF7B68AF
:100DB400A033180000230093012301220021FFF730
:100DC40015FF7B68A8331A007B68103319001000E4
:100DD400FFF73CFF7B68B0331A007B6810331900BF
:100DE4001000FFF733FF7B68B8331A007B681033B9
:100DF40019001000FFF72AFF7B68C0331A007B68D4
:100E0400103319001000FFF721FF7B68C8331A0064
:100E14007B68103319001000FFF718FF7B68D0338C
:100E24001A007B68103319001000FFF70FFFBD464E
:100E340004B080BD0010024080B582B000AF78607D
:100E44000A00FB1C1A70FB1C1B78002B09D07B6862
:100E540024331A00FB1C1B781900100000F053FB0C
:100E640000E0C046BD4602B080BD80B582B000AF90
:100E740078600A00FB1C1A707B681B68012118004B
:100E8400FFF773FE7B685B6801211800FFF76DFEB6
:100E94007B689B6801211800FFF767FEFB1C1B7829
:100EA400022B15D0032B25D0012B34D17B681B6872
:100EB40000211800FFF759FE7B681B681800FFF734
:100EC4006BFE03005A425341DBB2002BF4D122E003
:100ED4007B685B6800211800FFF747FE7B685B684E
:100EE4001800FFF759FE03005A425341DBB2002BAE
:100EF400F4D110E07B689B6800211800FFF735FEF1
:100F04007B689B681800FFF747FE03005A42534171
:100F1400DBB2002BF4D1BD4602B080BD80B582B0F7
:100F240000AF78607B68DB681800FFF74AFE0300B7
:100F34005A425341DBB2002B01D0012327E07B68E6
:100F44001B691800FFF73DFE03005A425341DBB210
:100F5400002B01D002231AE07B685B691800FFF7BD
:100F640030FE03005A425341DBB2002B01D003236D
:100F74000DE07B689B691800FFF723FE03005A42CB
:100F84005341DBB2002B01D0042300E000231800FE
:100F9400BD4602B080BD80B582B000AF0200FB1D2B
:100FA4001A70BB1D0A1C1A70FB1D1B78022B18D06B
:100FB400032B2BD0012B3ED1BB1D1B78022B0AD057
:100FC40002DC012B05D036E0032B06D0042B06D01F
:100FD40031E0012330E004232EE007232CE00B232F
:100FE4002AE0BB1D1B78022B0AD002DC012B05D0A2
:100FF40021E0032B06D0042B06D01CE002231BE0C7
:10100400052319E0082317E00A2315E0BB1D1B780C
:10101400022B0AD002DC012B05D00CE0032B06D0F6
:10102400042B06D007E0032306E0062304E009238B
:1010340002E00C2300E000231800BD4602B080BD8E
:10104400B0B584B000AF78600123FB60FB68032B6C
:1010540021DCFB68DAB27B6811001800FFF705FF9A
:101064000B257C197B681800FFF758FF03002370D9
:101074007B191B78002B03D1FB680133FB60E5E788
:10108400FB68DAB20B23FB181B7819001000FFF77A
:1010940082FF030000E000231800BD4604B0B0BD89
:1010A40080B586B000AFF860B9607A603B60FB68D9
:1010B400BA681A60FB687A685A60FB683A689A6092
:1010C400FB683A6ADA60FB687A6A1A61FB68BA6A92
:1010D4005A61FB68FA6A9A61FB6800221A77FB6816
:1010E40024331800FB681D330422190000F0F4F9BE
:1010F4001623FB1800221A8016217B181B88032B49
:101104000BD87B181B88FA68D31800225A777B18EF
:101114001A887B1801321A80EEE7FB681800BD4676
:1011240006B080BD80B584B002AF78607B68186873
:1011340002230093002300220121FFF757FD7B685F
:101144005A687B681B6819001000FFF77FFD7B68F5
:101154009A687B681B6819001000FFF777FD7B68AD
:10116400D86802230093012301220021FFF73EFDEA
:101174007B681A697B68DB6819001000FFF766FD5D
:101184007B685A697B68DB6819001000FFF75EFD15
:101194007B689A697B68DB6819001000FFF756FDCD
:1011A400BD4602B080BDB0B584B000AF78600F25F5
:1011B4007C197B68180000F01AF8030023707B6820
:1011C4001B7F7A1912789A420ED07B687A191278AA
:1011D4001A777B191B78002B06D07B191A787B6849
:1011E40011001800FFF728FEBD4604B0B0BD80B55D
:1011F40082B000AF78607B681800FFF721FF03001E
:101204001800BD4602B080BD80B582B000AF7860E2
:1012140078689023DB050C221900FFF729FD7B6811
:101224000833684906221800FFF722FD7B68103353
:10123400644907221800FFF71BFD7B6818336249D5
:101244000D221800FFF714FD7B682033180090234B
:10125400DB050F221900FFF70BFD7B6828335B4980
:1012640003221800FFF704FD7B683033574904223A
:101274001800FFF7FDFC7B68383354490522180039
:10128400FFF7F6FC7B684033504906221800FFF74D
:10129400EFFC7B6848334D4907221800FFF7E8FC50
:1012A4007B685033494908221800FFF7E1FC7B684A
:1012B4005833464909221800FFF7DAFC7B6860338B
:1012C40042490C221800FFF7D3FC7B6868333F497E
:1012D4000D221800FFF7CCFC7B6870333B490E22CB
:1012E4001800FFF7C5FC7B68783338490F221800D3
:1012F400FFF7BEFC7B68803318009023DB050822CF
:101304001900FFF7B5FC7B68883318009023DB05D0
:1013140009221900FFF7ACFC7B6890331800902376
:10132400DB050A221900FFF7A3FC7B689833180039
:101334009023DB0500221900FFF79AFC7B68A03399
:1013440018009023DB0501221900FFF791FC7B684C
:10135400A83318009023DB0502221900FFF788FC4C
:101364007B68B03318009023DB0503221900FFF7D4
:101374007FFC7B68B83318009023DB050422190036
:10138400FFF776FC7B68C03318009023DB05052249
:101394001900FFF76DFC7B68C83318009023DB0548
:1013A40006221900FFF764FC7B68D03318009023F1
:1013B400DB0507221900FFF75BFC7B681800BD46BC
:1013C40002B080BD00140048000800480004004832
:1013D40080B500AF034B1B681800FFF7E4FEBD4661
:1013E40080BDC0462400002080B582B000AF786084
:1013F4003960FFF777F9064B1B681800FFF754FCB8
:10140400044B1B681800FFF78DFE00F009F9FCE798
:101414002000002024000020F0B587B004AF7860DD
:1014240039607B68012B3BD13B681F4A934237D11B
:101434001E4B1800D8231A00002100F015FC1B4B8A
:101444001800FFF7E1FE1A4B1B6860331D00184BB0
:101454001B6868331E00164B1B68702294469C441C
:10146400134B1B6878331A00114B1B688033190027
:101474000F4B1B68883318000D4B1B6890330D4CC1
:1014840003930290019100926346320029002000E8
:10149400FFF706FE084A09480A23022100F0F6F87D
:1014A400BD4603B0F0BDC046FFFF00009C00002015
:1014B4002000002074010020D5130008A80100209A
:1014C40080B500AF034B19000120FFF7A5FFBD460F
:1014D40080BDC046FFFF000080B584B000AFF86057
:1014E400B9607A60FB687A681A60FB68BA68DA6087
:1014F400FB6800229A60FB6800225A60FB681800AF
:10150400BD4604B080BD80B584B000AF78600A00E9
:10151400FB1C1A707B685B68FB607B689B68BB6024
:10152400FB680133BA689A4201D100231EE0BB680C
:10153400002B07D17B681B68013BFA689A4201D1F2
:10154400002313E07B68DA68FB68591CF960D31840
:10155400FA1C12781A707B681B68FA689A4201D2E6
:10156400FA6800E000227B685A6001231800BD4637
:1015740004B080BD80B582B000AF7860034A7B6858
:101584001A607B681800BD4602B080BD9C1D00082F
:1015940080B582B000AF78607B681800FFF7EAFF7F
:1015A4007B681C21180000F0F1FA7B681800BD4626
:1015B40002B080BD80B584B000AF7860164B1A6865
:1015C4007B68D218144B1A60144B1B68FB60FB68D1
:1015D400002B1DD0FB685B7C022B15D1FB681B68BC
:1015E4007A689A429B415B42DBB2002B06D0FB68CF
:1015F4001A687B68D21AFB681A6005E0FB6801224E
:101604005A74FB6800221A60FB689B68FB60DEE783
:10161400BD4604B080BDC046C0010020BC0100200E
:1016240080B582B000AF174B1B78DBB2002B24D1FE
:10163400154B1B687B607B68002B1FD07B685B7C31
:10164400012B16D17B681B7C012B0CD0022B10D1F3
:101654007B685A687B681A607B6802225A747B68CC
:10166400DB68984705E07B6800225A747B68DB6876
:1016740098477B689B687B60DDE7C046BD4602B047
:1016840080BDC04628000020BC01002080B586B083
:1016940000AFF8607A603B600B203B180A1C1A709C
:1016A400FB6800225A74FB683A1812781A74FB68B3
:1016B4007A68DA60FB683A685A601A4B1B68002B38
:1016C4000AD1184BFA681A60164B1B6800229A60FC
:1016D400FB6802225A741FE0124B1B687B617B6912
:1016E4009B68002B07D07A69FB689A4211D07B690A
:1016F4009B687B61F3E77A69FB689A420BD0FB68CD
:1017040000229A607B69FA689A60FB6802225A7424
:1017140002E0C04600E0C046FB681800BD4606B0C3
:1017240080BDC046BC01002080B500AF0120FFF79A
:1017340041FFBD4680BD80B582B000AF78607B6854
:101744001A687B681B7919001000FFF7FDF8BD4685
:1017540002B080BD80B582B000AF78607B681A6843
:101764007B681B7919001000FFF700F9BD4602B031
:1017740080BD80B582B000AF78600A00FB1C1A708F
:101784007B6818687B681979FB1C1B781A00FFF7C3
:1017940000F9BD4602B080BD80B584B000AFF860EA
:1017A400B9607A603B60104AFB681A60FB68BA68EB
:1017B4009A60FB687A68DA60FB683A685A61FB6889
:1017C400DA68FB689B685A43FB681A61FB6800226D
:1017D4005A60FB6800221A76FB6800225A76FB687E
:1017E4001800BD4604B080BD9C1D000880B582B0C1
:1017F40000AF78607B685B691800BD4602B080BDAD
:1018040090B585B000AF78600A00FB1C1A700F23F6
:10181400FB1800221A700F243B191B78072B1AD8C7
:101824007B68DB683A1912789200D058FB1C1B784D
:10183400012213405A1E9341DBB21900FFF799FFAE
:10184400FB1C1B785A10FB1C1A703B191A783B19A5
:1018540001321A70DFE7BD4605B090BD80B582B095
:1018640000AF78600A00FB1C1A70FB1C1A787B68B6
:1018740011001800FFF7C4FF7B689B680021180063
:10188400FFF777FF7B685B6800211800FFF771FFA3
:10189400BD4602B080BD80B582B000AF78600A005A
:1018A400FB1C1A70FB1C1A787B6811001800FFF7E8
:1018B400A7FF7B689B6801211800FFF75AFF7B682C
:1018C4005B6800211800FFF754FFBD4602B080BDDD
:1018D40080B582B000AF78607B6800221A607B68B4
:1018E40000225A607B6800229A607B6800221A6199
:1018F4007B6800225A617B6800221A767B68012289
:101904005A767B681800BD4602B080BD80B584B0AD
:1019140000AF786008001100FB1C021C1A70BB1C8D
:101924000A1C1A70FB1C1B78102B01D900231EE023
:101934000023FB60BB1C1B78022B06D0032B07D0B3
:10194400012B08D14023FB6007E01023FB6004E077
:101954005023FB6001E00023FB60FB68DAB2FB1C50
:101964001B781343DBB2802252421343DBB21800CC
:10197400BD4604B080BD000080B500AF014B180027
:10198400BD4680BDC401002080B500AFFFF7F4FF61
:101994000300180000F039F8BD4680BD80B582B060
:1019A40000AF7860024B1800BD4602B080BDC0464F
:1019B4001802002080B586B000AF78607B681800FC
:1019C400FFF7ECFF03007B617B691800FFF70EFF54
:1019D40003003B617B685B691F2B02D97B68002293
:1019E4005A617B685B693A69D2180F217B181278B7
:1019F4001A707B685B695A1C7B685A617B181B7878
:101A04005BB21800BD4606B080BDB0B584B000AF6F
:101A140078607B681B681800FFF7BEF803005A1E45
:101A24009341DBB2002B05D07B681B681800FFF7DD
:101A340091FE47E07B685B690F22134023D17B68EA
:101A44005B691A090F217B181A700E257C197B1803
:101A54001A787B6800211800FFF758FF03002370F1
:101A64007B685B7E002B22D07B191B78802252423C
:101A74001343DAB27B6811001800FFF7EFFE7B68AE
:101A840000225A7614E00D257C197B681800FFF7B4
:101A940091FF030023707B1900229A567B68110082
:101AA4001800FFF7F8FE7B6801225A7600E0C04672
:101AB4007B681B681800FFF73EFE0C23FB187A684E
:101AC400127E1A70BD4604B0B0BD000080B582B06D
:101AD40000AF786039607B68012B19D13B68134AE9
:101AE400934215D1124B1800FFF7F2FE114A124827
:101AF40096230221FFF7CAFD104B11480222102140
:101B0400FFF74AFE0F49104B21221800FFF7E4FCAF
:101B14007B68002B07D13B68044A934203D1084BEE
:101B24001800FFF727FDBD4602B080BDFFFF00008F
:101B3400C40100208D190008E0010020F4010020F8
:101B440018020020340200205802002080B500AFA3
:101B5400034B19000120FFF7B9FFBD4680BDC04605
:101B6400FFFF000080B500AF034B19000020FFF712
:101B7400ADFFBD4680BDC046FFFF000080B500AF8D
:101B8400FFF7E4FFFFF79CFCBD4680BD10B500F0F5
:101B940001F810BD10B500F001F810BD10B5034BED
:101BA4000100186800F004F810BDC0462C000020A5
:101BB40070B50500002910D00C1F2368002B00DA33
:101BC400E418280000F03EF81D4A1368002B05D1E4
:101BD40063601460280000F03DF870BDA34209D989
:101BE400216860188342F3D118685B68411821604A
:101BF400EEE713005A68002A01D0A242F9D9196805
:101C04005818A0420BD1206809185818196082424C
:101C1400E0D110685268411819605A60DAE7A042AE
:101C240002D90C232B60D5E721686018824203D1C6
:101C3400106852684118216062605C60CAE7C0465F
:101C44006802002010B5024800F00CF810BDC04630
:101C54007002002010B5024800F005F810BDC0461F
:101C6400700200207047704703001218934200D19D
:101C7400704719700133F9E7002243088B4274D38B
:101C840003098B425FD3030A8B4244D3030B8B4279
:101C940028D3030C8B420DD3FF22090212BA030C82
:101CA4008B4202D31212090265D0030B8B4219D363
:101CB40000E0090AC30B8B4201D3CB03C01A524183
:101CC400830B8B4201D38B03C01A5241430B8B42CB
:101CD40001D34B03C01A5241030B8B4201D30B03B4
:101CE400C01A5241C30A8B4201D3CB02C01A5241DB
:101CF400830A8B4201D38B02C01A5241430A8B429E
:101D040001D34B02C01A5241030A8B4201D30B0286
:101D1400C01A5241CDD2C3098B4201D3CB01C01AA0
:101D2400524183098B4201D38B01C01A52414309AA
:101D34008B4201D34B01C01A524103098B4201D398
:101D44000B01C01A5241C3088B4201D3CB00C01A05
:101D5400524183088B4201D38B00C01A524143087D
:101D64008B4201D34B00C01A5241411A00D20146A2
:101D7400524110467047FFE701B5002000F006F815
:101D840002BDC0460029F7D076E770477047C046C9
:101D940000000000000000007915000895150008F7
:101DA400785634129800002000000000006CDC0219
:101DB40000000000000000000102030406070809F7
:101DC4009C0000207401002001FFFFFF3000002070
:101DD40000000000000000000000000000000000FF
:101DE40000000000000000000000000000000000EF
:101DF40000000000000000000000000000000000DF
:101E040000000000000000000000000000000000CE
:101E140000000000000000000000000000000000BE
:101E240000000000000000000000000000000000AE
:041E34003254769816
:04000005080000C52A
:00000001FF
