:020000040800F2
:1000000000200020410200084902000851020008B7
:1000100000000000000000000000000000000000E0
:10002000000000000000000000000000770200084F
:1000300000000000000000007F020008FD1800081A
:10004000870200088702000887020008870200086C
:10005000870200088702000887020008870200085C
:10006000870200088702000887020008870200084C
:10007000870200088702000887020008870200083C
:1000800087020008870200080000000087020008BD
:10009000870200088702000887020008870200081C
:1000A000870200088702000887020008870200080C
:1000B000870200080000000087020008000000001E
:1000C0005FF808F180B58EB000AF00F011F94A4B2F
:1000D0004A4A1A604A4B494A1A604A4B3B634A4BA8
:1000E000FB624A4BBB62FB6A7B6207E03A6B131D03
:1000F0003B637B6A191D796212681A60BA6A7B6A6F
:100100009A42F3D83C4B1B68414A934204D13C4B82
:100110001B68404A934200D0FEE73F4B374A1A60C3
:100120003E4B364A1A603E4B3B623E4BFB613B6A9C
:10013000BB6104E0BB691A1DBA6100221A60FA694A
:10014000BB699A42F6D8344B1B68002B03D1334B62
:100150001B68002B00D0FEE700F0D0F83A003B1DF2
:100160001100180000F0B4F82F4A304BD31A9B103E
:10017000FB600023BB6007E02C4BBA689200D358A9
:100180009847BB680133BB60FA68BB689A42F3DCEE
:10019000274A284BD31A9B10FB600023BB6007E063
:1001A000244BBA689200D3589847BB680133BB60B0
:1001B000FA68BB689A42F3DC7B683A681100180061
:1001C00001F05CF903007B631B4A1C4BD31A9B10A4
:1001D0007B617B693B6108E03B695A1E174B9200CB
:1001E000D35898473B69013B3B613B69002BF3DCEB
:1001F0007B6B180000F066F800000020BABADECA77
:1002000090000020402F00080000002094000020F3
:10021000785634123254769894000020CC02002094
:1002200094000020D0020020BC020008BC0200089C
:10023000C0020008BC020008C4020008C002000896
:1002400080B500AFFFF73EFF80B500AF00BEFEE710
:1002500004207146084202D0EFF3098001E0EFF379
:10026000088071460A4A104780B582B000AF7860B6
:10027000396000BEFEE780B500AF00BEFEE780B586
:1002800000AF00BEFEE780B500AF00BEFEE7000095
:0402900069020008F7
:10029400402F00080000002094000020402F000898
:1002A400000000000000000094000020D0020020A4
:1002B4000000000000000000D72C000849220008BC
:1002C40080B582B000AF7860FEE7000080B582B0F0
:1002D40000AF786039607B6801221A603B68024A8B
:1002E4001A60BD4602B080BD0400002080B500AF96
:1002F40000F008F8BD4680BD80B500AF00F048F8B6
:10030400BD4680BD80B500AF1B4B1A681A4B012156
:100314000A431A60184B5A68174B18490A405A6026
:10032400154B1A68144B16490A401A60124B1A6886
:10033400114B14490A401A600F4B5A680E4B12496C
:100344000A405A600C4BDA6A0B4B0F218A43DA627B
:10035400094B1A6B084B0D490A401A63064B5A6B3A
:10036400054B01218A435A63034B00229A6000F033
:100374007FF8BD4680BDC046001002400CB8FFF8AF
:10038400FFFFF6FEFFFFFBFFFFFFC0FFACFEFFFF1A
:1003940080B584B000AF0023FB600023BB60002362
:1003A4007B6000233B602E4B5B680C221340FB6098
:1003B400FB68042B09D0FB68082B0AD0FB68002BD0
:1003C40038D1284B284A1A6037E0264B264A1A604F
:1003D40033E0234B5A68F0239B031340BB60204B4C
:1003E4005A68C0235B0213407B60BB689B0C0233DA
:1003F400BB607B68002B0CD1B9680A005201521A09
:1004040093019B1ADB005B181B021A00154B1A6040
:1004140013E0134BDB6A0F22134001333B6039684E
:10042400114802F0D5FC03001A00BB685A430D4B77
:100434001A6002E00B4B0C4A1A60094B5B681B09FB
:100444000F221340094AD35CDBB2FB60054B1A68E8
:10045400FB68DA40034B1A60BD4604B080BDC04659
:10046400001002400C00002000127A00100000204E
:1004740080B582B000AF00237B6000233B60304B2B
:100484001A682F4B802149020A431A602C4B1A68C0
:1004940080239B0213403B607B6801337B603B6895
:1004A400002B04D17A68A023DB019A42EED1244BBD
:1004B4001A6880239B02134002D001233B6001E0B1
:1004C40000233B603B68012B36D11E4B11221A607E
:1004D4001B4A1B4B52685A60194A194B52685A609E
:1004E400174B5A68164B18490A405A60144B5A68FD
:1004F400134B882149030A435A60114B1A68104B65
:10050400802149040A431A600D4B1A6880239B0416
:100514001340F9D00A4B5A68094B03218A435A60A5
:10052400074B5A68064B02210A435A60044B5B6826
:100534000C221340082BF9D1BD4602B080BDC04641
:100544000010024000200240FF7FC0FF90B583B03E
:1005540000AF02003960FB1D1A70FB1D1B785BB2F3
:10056400002B36DA314AFB1D1B785BB219000F23CE
:100574000B40083B9B0806339B00D31804331B68CD
:10058400FA1D127852B2110003220A40D200FF2150
:1005940091400A00D2431A4011003B689B01FF229C
:1005A4001A40FB1D1B785BB2180003230340DB00D9
:1005B4009A401E48FB1D1B785BB21C000F2323408E
:1005C400083B9B080A4306339B00C31804331A6094
:1005D40029E0174AFB1D1B785BB29B08C0339B00C4
:1005E4009B58FA1D127852B2110003220A40D2001D
:1005F400FF2191400A00D2431A4011003B689B013D
:10060400FF221A40FB1D1B785BB218000323034032
:10061400DB009A400648FB1D1B785BB29B080A432B
:10062400C0339B001A50BD4603B090BD00ED00E0FE
:1006340000E100E080B582B000AF78607B68013BE8
:100644000C4A934201D9012310E00B4B7A68013A1A
:100654005A6001235B4203211800FFF777FF064B22
:1006640000229A60044B07221A6000231800BD463A
:1006740002B080BDFFFFFF0010E000E080B582B053
:1006840000AF0200FB1D1A70FB1D1B78012B02D06A
:10069400022B00D1FEE7BD4602B080BD80B584B018
:1006A40000AF78607B68084A9A429B415B42DBB2A8
:1006B400FB60064BFA681A60044BFA6810210A437F
:1006C4001A60BD4604B080BD00366E0100200240B1
:1006D40080B582B000AF78603960284B1A68274B28
:1006E40001210A431A60254B1B68022213405A4217
:1006F4005341DBB2002BF6D1204B5A681F4B032128
:100704008A435A601D4B5B680C2213405A1E934166
:10071400DBB2002BF6D13B681800FFF7BFFF174B85
:10072400A02292035A60154B0022DA62134B1A6816
:10073400124B802149040A431A60104B1A68802323
:100744009B0413405A425341DBB2002BF5D10B4BAF
:100754005A680A4B02210A435A60084B5B680C2210
:100764001340083B5A1E9341DBB2002BF5D1FFF72F
:100774000FFE01231800BD4602B080BD00100240E8
:1007840080B582B000AF00237B60074B5A69064BEB
:10079400802189020A435A61034B5B697B607B6851
:1007A400BD4602B080BDC0460010024080B500AF17
:1007B400BD4680BD80B500AF104A114B1100180032
:1007C400FFF786FFFFF7DCFF0E4B1A68FA23990048
:1007D400100002F0FDFA03001800FFF72BFF0300DE
:1007E4005A1E9341DBB2002B02D00220FFF746FFD2
:1007F400FFF7DCFF00F008F8BD4680BD0048E801C3
:1008040000127A000C00002080B500AFBD4680BD08
:1008140080B582B000AF0200FB1D1A70034BFA1DB5
:1008240012781A70BD4602B080BDC0462800002070
:1008340080B582B000AF786008001100FB1C021C78
:100844001A70BB1C0A1C1A707B681B68FA1C12788D
:100854005200032191400A00D2431A407B681A6077
:100864007B681A68BB1C1978FB1C1B785B009940D9
:100874000B001A437B681A60BD4602B080BD80B588
:1008840082B000AF786008001100FB1C021C1A70D3
:10089400BB1C0A1C1A707B689B68FA1C12785200F5
:1008A400032191400A00D2431A407B689A607B6816
:1008B4009A68BB1C1B781900FB1C1B785B009940D1
:1008C4000B001A437B689A60BD4602B080BD80B5B8
:1008D40082B000AF786008001100FB1C021C1A7083
:1008E400BB1C0A1C1A707B68DB68FA1C1278520065
:1008F400032191400A00D2431A407B68DA607B6886
:10090400DA68BB1C1978FB1C1B785B0099400B0050
:100914001A437B68DA60BD4602B080BD80B582B000
:1009240000AF786008001100FB1C021C1A70BB1C8D
:100934000A1C1A707B689B889BB2FA1C12781100FF
:1009440001228A4092B2D24392B213409AB27B6897
:100954009A807B689B889AB2BB1C1B78F91C097827
:100964008B409BB213439AB27B689A80BD4602B017
:1009740080BD80B584B000AF78600A00FB1C1A709B
:100984007B681A68FB1C1B785B00DA401300FB6071
:10099400FB68DBB203221340DBB21800BD4604B08F
:1009A40080BD80B584B000AF78600A00FB1C1A706B
:1009B4007B68DA68FB1C1B785B00DA401300FB6081
:1009C400FB68DBB203221340DBB21800BD4604B05F
:1009D40080BD80B584B000AF78600A00FB1C1A703B
:1009E4007B689A68FB1C1B785B00DA401300FB6091
:1009F400FB68DBB203221340DBB21800BD4604B02F
:100A040080BD80B584B000AF78600A00FB1C1A700A
:100A14007B689B889BB21A00FB1C1B781A4113004D
:100A2400FB60FB68DBB201221340DBB21800BD4659
:100A340004B080BD80B582B000AF78600A00FB1CB2
:100A44001A70FB1C1B7801229A4013001A007B6861
:100A54009A61BD4602B080BD80B582B000AF7860B7
:100A64000A00FB1C1A70FB1C1B78103301229A40ED
:100A740013001A007B689A61BD4602B080BD80B540
:100A840082B000AF786008001100FB1C021C1A70D1
:100A9400BB1C0A1C1A70BB1C1B78002B07D0FB1C48
:100AA4001A787B6811001800FFF7C4FF06E0FB1CEE
:100AB4001A787B6811001800FFF7CEFFBD4602B01C
:100AC40080BD80B582B000AF78600A00FB1C1A704C
:100AD4007B681B8A9BB21A00FB1C1B781A4113000B
:100AE400012213405A1E9341DBB21800BD4602B0E6
:100AF40080BDB0B584B000AFF86008007A6019001A
:100B04000B243B19021C1A700A257B190A1C1A7043
:100B14007B191A787B6811001800FFF72AFF03007D
:100B24001A003B191978FB681800FFF781FE7B193E
:100B34001A787B6811001800FFF763FF03001A009E
:100B44003B191978FB681800FFF7E8FE7B191A783F
:100B54007B6811001800FFF724FF03001A003B19FB
:100B64001978FB681800FFF7B2FE7B191A787B68C6
:100B740011001800FFF72DFF03001A003B19197824
:100B8400FB681800FFF77BFEBD4604B0B0BD80B51E
:100B940082B000AF78600A00FB1C1A707B6818688A
:100BA4007B681979FB1C1B781A00FFF741FEBD46D0
:100BB40002B080BD80B582B000AF78600A00FB1C33
:100BC4001A707B6818687B681979FB1C1B781A00FB
:100BD400FFF755FEBD4602B080BD80B582B000AFC0
:100BE40078600A00FB1C1A707B6818687B681979A6
:100BF400FB1C1B781A00FFF76AFEBD4602B080BDDD
:100C040080B582B000AF78600A00FB1C1A707B6864
:100C140018687B681979FB1C1B781A00FFF77EFEA5
:100C2400BD4602B080BD80B582B000AF78600A00D6
:100C3400FB1C1A707B6818687B681979FB1C1B788D
:100C4400013B5A425341DBB21A00FFF718FFBD467D
:100C540002B080BD80B582B000AF78607B681A684E
:100C64007B681B7919001000FFF72BFF031E01D0CE
:100C7400012300E000231800BD4602B080BD90B5FA
:100C840083B000AF78600C0010001900FB1C221C1C
:100C94001A70BB1C021C1A707B1C0A1C1A70FB1CE9
:100CA4001A787B6811001800FFF771FFBB1C1A78D3
:100CB4007B6811001800FFF7A3FF7B1C1A787B6880
:100CC40011001800FFF789FF1823FB181A787B68B6
:100CD40011001800FFF76EFFBD4603B090BD80B54C
:100CE40082B000AF786039607B6818687B681979D6
:100CF4003B681A683B681B79FFF7FBFEBD4602B0F0
:100D040080BD80B586B002AFF860B960FB1D1A7073
:100D1400FB68BA681A60FB68FA1D12781A71F868E1
:100D240000230093002301220321FFF7A8FFFB689F
:100D34001800BD4604B080BD80B586B002AF7860AF
:100D4400104B5A690F4B9C21C9030A435A610D4B3E
:100D54005B69FB60FB687B6898331A007B6810331F
:100D640019001000FFF7BBFF7B68A03318000023B5
:100D74000093012301220021FFF781FFBD4604B047
:100D840080BDC0460010024080B582B000AF7860DC
:100D94000A00FB1C1A70FB1C1B78002B09D07B6813
:100DA40024331A00FB1C1B781900100000F063FCAC
:100DB40000E0C046BD4602B080BD80B582B000AF41
:100DC40078600A00FB1C1A707B681B6801211800FC
:100DD400FFF729FF7B685B6801211800FFF723FFF9
:100DE4007B689B6801211800FFF71DFFFB1C1B7823
:100DF400022B0AD0032B0FD0012B13D17B681B6865
:100E040000211800FFF70FFF0CE07B685B680021EE
:100E14001800FFF708FF05E07B689B6800211800B5
:100E2400FFF701FFBD4602B080BD80B582B000AFC0
:100E340078607B68DB681800FFF70CFF03005A42F8
:100E44005341DBB2002B01D0012327E07B681B69EF
:100E54001800FFF7FFFE03005A425341DBB2002B98
:100E640001D002231AE07B685B691800FFF7F2FEE9
:100E740003005A425341DBB2002B01D003230DE09F
:100E84007B689B691800FFF7E5FE03005A42534153
:100E9400DBB2002B01D0042300E000231800BD4680
:100EA40002B080BD80B582B000AF0200FB1D1A7095
:100EB400BB1D0A1C1A70FB1D1B78022B18D0032BB8
:100EC4002BD0012B3ED1BB1D1B78022B0AD002DC98
:100ED400012B05D036E0032B06D0042B06D031E0DD
:100EE400012330E004232EE007232CE00B232AE027
:100EF400BB1D1B78022B0AD002DC012B05D021E09C
:100F0400032B06D0042B06D01CE002231BE0052390
:100F140019E0082317E00A2315E0BB1D1B78022BF8
:100F24000AD002DC012B05D00CE0032B06D0042BE5
:100F340006D007E0032306E0062304E0092302E0C9
:100F44000C2300E000231800BD4602B080BDB0B5FC
:100F540084B000AF78600123FB60FB68032B21DCC5
:100F6400FB68DAB27B6811001800FFF726FF0B2537
:100F74007C197B681800FFF758FF030023707B1966
:100F84001B78002B03D1FB680133FB60E5E7FB68AA
:100F9400DAB20B23FB181B7819001000FFF782FF4D
:100FA400030000E000231800BD4604B0B0BD80B5C6
:100FB40086B000AFF860B9607A603B60FB68BA68DD
:100FC4001A60FB687A685A60FB683A689A60FB6842
:100FD4003A6ADA60FB687A6A1A61FB68BA6A5A612B
:100FE400FB68FA6A9A61FB6800221A77FB6824336B
:100FF4001800FB681D330422190000F025FB16239A
:10100400FB1800221A8016217B181B88032B0BD88F
:101014007B181B88FA68D31800225A777B181A8821
:101024007B1801321A80EEE7FB681800BD4606B053
:1010340080BD80B584B002AF78607B6818680223F5
:101044000093002300220121FFF719FE7B685A68F0
:101054007B681B6819001000FFF741FE7B689A68E3
:101064007B681B6819001000FFF739FE7B68D8689D
:1010740002230093012301220021FFF700FE7B6875
:101084001A697B68DB6819001000FFF728FE7B688B
:101094005A697B68DB6819001000FFF720FE7B6843
:1010A4009A697B68DB6819001000FFF718FEBD46DB
:1010B40002B080BDB0B584B000AF78600F257C1954
:1010C4007B68180000F01AF8030023707B681B7F0C
:1010D4007A1912789A420ED07B687A1912781A77A4
:1010E4007B191B78002B06D07B191A787B681100BA
:1010F4001800FFF749FEBD4604B0B0BD80B582B00C
:1011040000AF78607B681800FFF721FF0300180028
:10111400BD4602B080BD80B584B000AF78607B6806
:101124005B68FB607B685A687B681B691900100068
:1011340001F0D4FE0B001A007B685A607B685B6880
:10114400FA689A4206D07B681B6808331B687A6881
:1011540010009847BD4604B080BD80B582B000AF92
:1011640078607B681B6808331B687A6810009847AE
:101174007B685B685A1C7B685A607B6859687B682B
:101184001A69002391425B41DBB2002B02D07B68D9
:1011940000225A60BD4602B080BD80B586B000AF63
:1011A400F860B9607A60FB68DB687A689A4201D3B8
:1011B40000231EE0FB689B68BA689A4201D30023AF
:1011C40017E0FB685B687B61FB689B687A685A433D
:1011D400BB68D218FB685A60FB685B687A699A42FC
:1011E40006D0FB681B6808331B68FA681000984730
:1011F40001231800BD4606B080BD80B582B000AFA3
:1012040078600A00FB1C1A707B681800FFF783FFE4
:101214007B685A697B685B68D318FA1C12781A7069
:101224007B681800FFF799FF7B681B6808331B680D
:101234007A6810009847BD4602B080BD80B582B080
:1012440000AF786039603B681B785BB2002B0AD032
:101254003B685A1C3A6000229A567B6811001800B9
:10126400FFF7CBFFEFE7BD4602B080BD80B584B089
:1012740000AFF860B9607A603B607A68B968FB686F
:101284001800FFF78AFF3A68FB6811001800FFF79F
:10129400D5FFBD4604B080BD80B582B000AF786094
:1012A40078689023DB050C221900FFF72AFD7B6880
:1012B4000833684906221800FFF723FD7B681033C2
:1012C400644907221800FFF71CFD7B681833624944
:1012D4000D221800FFF715FD7B68203318009023BA
:1012E400DB050F221900FFF70CFD7B6828335B49EF
:1012F40003221800FFF705FD7B68303357490422A9
:101304001800FFF7FEFC7B683833544905221800A7
:10131400FFF7F7FC7B684033504906221800FFF7BB
:10132400F0FC7B6848334D4907221800FFF7E9FCBD
:101334007B685033494908221800FFF7E2FC7B68B8
:101344005833464909221800FFF7DBFC7B686033F9
:1013540042490C221800FFF7D4FC7B6868333F49EC
:101364000D221800FFF7CDFC7B6870333B490E2239
:101374001800FFF7C6FC7B68783338490F22180041
:10138400FFF7BFFC7B68803318009023DB0508223D
:101394001900FFF7B6FC7B68883318009023DB053F
:1013A40009221900FFF7ADFC7B68903318009023E5
:1013B400DB050A221900FFF7A4FC7B6898331800A8
:1013C4009023DB0500221900FFF79BFC7B68A03308
:1013D40018009023DB0501221900FFF792FC7B68BB
:1013E400A83318009023DB0502221900FFF789FCBB
:1013F4007B68B03318009023DB0503221900FFF744
:1014040080FC7B68B83318009023DB0504221900A4
:10141400FFF777FC7B68C03318009023DB050522B7
:101424001900FFF76EFC7B68C83318009023DB05B6
:1014340006221900FFF765FC7B68D033180090235F
:10144400DB0507221900FFF75CFC7B681800BD462A
:1014540002B080BD001400480008004800040048A1
:1014640080B500AF034B1B681800FFF723FEBD4691
:1014740080BDC0462400002090B585B002AF7860DE
:101484003960FFF797F90120FFF7C2F900F042FA3B
:10149400164B1B681800FFF74FFC154B1868134BCD
:1014A4001B6810331900114B1B6808331A000F4BCB
:1014B4001B681C000D4B1B68183301930D4B0093E4
:1014C400230000F00FFD0C4B1B681800FFF7B1FD63
:1014D4000020FFF79DF9094B1868094B00220021F1
:1014E400FFF7C4FE00F084F9FCE7C04620000020AA
:1014F400A8010020B001002024000020AC0100203D
:10150400EC2E0008F0B587B004AF786039607B68D2
:10151400012B78D13B683D4A934274D13C4B18006F
:10152400D8231A00002101F04BFC394B1800FFF7B7
:10153400B3FE384B1B6860331D00364B1B686833A1
:101544001E00344B1B68702294469C44314B1B682C
:1015540078331A002F4B1B68803319002D4B1B68FE
:10156400883318002B4B1B6890332B4C0393029049
:10157400019100926346320029002000FFF717FD15
:1015840000F086FC0200254B1A60244B1B681800EF
:1015940000F090FC0200224B1A601E4B1B682033A3
:1015A4001A00204B1A601B4B1B6828331A001D4B72
:1015B4005A60184B1B6830331A001A4B9A60154B4B
:1015C4001B6838331A00174BDA60124B1B68403320
:1015D4001A00144B1A610F4B1B6848331A00114B45
:1015E4005A610C4B1B6850331A000E4B9A61094B1D
:1015F4001B6858331A000B4BDA610B4A0B480A2359
:10160400022100F02BF9BD4603B0F0BDFFFF00003E
:101614009C0000202000002074010020A80100206C
:10162400AC010020B001002065140008D0010020A6
:1016340080B500AF034B19000120FFF763FFBD46DF
:1016440080BDC046FFFF000080B584B000AFF860E5
:10165400B9607A60FB687A681A60FB68BA68DA6015
:10166400FB6800229A60FB6800225A60FB6818003D
:10167400BD4604B080BD80B584B000AF78600A0078
:10168400FB1C1A707B685B68FB607B689B68BB60B3
:10169400FB680133BA689A4201D100231EE0BB689B
:1016A400002B07D17B681B68013BFA689A4201D181
:1016B400002313E07B68DA68FB68591CF960D318CF
:1016C400FA1C12781A707B681B68FA689A4201D275
:1016D400FA6800E000227B685A6001231800BD46C6
:1016E40004B080BD80B582B000AF78607B68002212
:1016F4005A76BD4602B080BD80B582B000AF786036
:10170400BD4602B080BD80B582B000AF78607B6812
:1017140001225A76BD4602B080BD80B582B000AFCA
:1017240078607B685B7E1800BD4602B080BD80B5E2
:1017340082B000AF78607B685B691800BD4602B078
:1017440080BD000080B582B000AF7860034A7B683A
:101754001A607B681800BD4602B080BD002F0008E7
:1017640080B582B000AF78607B681800FFF7EAFFAD
:101774007B681C21180001F0B4FA7B681800BD4690
:1017840002B080BD80B584B000AF7860164B1A6893
:101794007B68D218144B1A60144B1B68FB60FB68FF
:1017A400002B1DD0FB685B7C022B15D1FB681B68EA
:1017B4007A689A429B415B42DBB2002B06D0FB68FD
:1017C4001A687B68D21AFB681A6005E0FB6801227C
:1017D4005A74FB6800221A60FB689B68FB60DEE7B2
:1017E400BD4604B080BDC046E8010020E4010020ED
:1017F40080B582B000AF174B1B78DBB2002B24D12D
:10180400154B1B687B607B68002B1FD07B685B7C5F
:10181400012B16D17B681B7C012B0CD0022B10D121
:101824007B685A687B681A607B6802225A747B68FA
:10183400DB68984705E07B6800225A747B68DB68A4
:1018440098477B689B687B60DDE7C046BD4602B075
:1018540080BDC04628000020E401002080B586B089
:1018640000AFF8607A603B600B203B180A1C1A70CA
:10187400FB6800225A74FB683A1812781A74FB68E1
:101884007A68DA60FB683A685A601A4B1B68002B66
:101894000AD1184BFA681A60164B1B6800229A602A
:1018A400FB6802225A741FE0124B1B687B617B6940
:1018B4009B68002B07D07A69FB689A4211D07B6938
:1018C4009B687B61F3E77A69FB689A420BD0FB68FB
:1018D40000229A607B69FA689A60FB6802225A7453
:1018E40002E0C04600E0C046FB681800BD4606B0F2
:1018F40080BDC046E401002080B500AF0120FFF7A1
:1019040041FFBD4680BD80B500AF01231800BD4630
:1019140080BD000090B583B000AF01F0E7F8FB1D77
:1019240001221A7000F09AFC03001A00FB1D043A0D
:1019340051424A411A7001F0EFF83B1D00221A800F
:101944003B1D1B88062B33D8BB1C00221A803B1D71
:101954001B885A00194BD218BC1C3B1D1B88110054
:10196400180000F05FFE03002380BB1C1B88012BC2
:1019740011D13B1D1B88DBB20021180000F020F8B8
:1019840003001A0001235340DBB2002B0AD0FB1DD5
:1019940000221A7006E0BB1C1B88012B02D9FB1D18
:1019A40000221A703B1D1A883B1D01321A80C7E7BA
:1019B400FB1D1B781800BD4603B090BD000200203B
:1019C40090B585B000AF0200FB1D1A703B1D0A1CC8
:1019D4001A80FB1D1B780A2B01D900233FE0FB1D55
:1019E4001B78072B01D9002339E0FB1D1A781E4B05
:1019F4005200D35A3A1D12889A4201D101232EE093
:101A04000F243B1901221A70FFF77DFF031E1FD01C
:101A140001F06CF8FB1D1B789AB23B1D1B88190062
:101A2400100000F061FE0300043B5A1E9341DBB238
:101A3400002B03D03B1900221A7006E0FB1D1A7814
:101A4400094B5200391D0988D15201F065F803E0B1
:101A54000F23FB1800221A700F23FB181B781800A1
:101A6400BD4605B090BDC0460002002080B582B0DE
:101A740000AF78600A00FB1C1A707B689B8A9BB2DB
:101A84001A00FB1C1B781A411300012213405A1E32
:101A94009341DBB21800BD4602B080BD80B582B070
:101AA40000AF78607B681A687B681B7919001000A6
:101AB400FEF7C0FFBD4602B080BD80B582B000AF66
:101AC40078607B681A687B681B7919001000FEF740
:101AD400C3FFBD4602B080BD80B582B000AF786060
:101AE4000A00FB1C1A707B6818687B681979FB1C58
:101AF4001B781A00FEF7C3FFBD4602B080BD80B557
:101B040082B000AF78607B681A687B681B79190023
:101B14001000FFF7ABFF031E01D0012300E00023F8
:101B24001800BD4602B080BD80B584B000AFF86037
:101B3400B9607A603B60124AFB681A60FB68BA6855
:101B44009A60FB687A68DA60FB683A685A61FB68F5
:101B5400DA68FB689B685A43FB681A61FB680022D9
:101B64005A60FB6800221A76FB68180000F00AF835
:101B7400FB6801225A76FB681800BD4604B080BD9C
:101B8400002F000880B584B000AF78600023FB60AC
:101B94007B681B69FA689A4209D87B685A69FB68B2
:101BA400D31820221A70FB680133FB60F0E77B68CE
:101BB4001B6808331B687A6810009847BD4604B058
:101BC40080BD000080B584B000AFF860B9607A6071
:101BD4003B60F8683B687A68B968FFF7A5FF044A78
:101BE400FB681A60FB681800BD4604B080BDC0469F
:101BF400242F000880B582B000AF7860054A7B6866
:101C04001A607B681800FFF79DFD7B681800BD46CD
:101C140002B080BD242F000880B582B000AF786088
:101C24007B681800FFF7E6FF7B681C21180001F0B1
:101C340058F87B681800BD4602B080BD80B582B0FC
:101C440000AF78607B681800FFF771FD030018008F
:101C5400BD4602B080BD80B582B000AF78607B68BD
:101C64001800FFF75AFD03001800BD4602B080BDFE
:101C740080B582B000AF78607B681800FFF73CFD48
:101C8400BD4602B080BD80B582B000AF78607B688D
:101C94001800FFF727FDBD4602B080BD90B585B0A2
:101CA40000AF78600A00FB1C1A700F23FB18002297
:101CB4001A700F243B191B78072B1AD87B68DB6832
:101CC4003A1912789200D058FB1C1B780122134059
:101CD4005A1E9341DBB21900FFF7FEFEFB1C1B7872
:101CE4005A10FB1C1A703B191A783B1901321A70EE
:101CF400DFE7BD4605B090BD80B582B000AF786027
:101D04000A00FB1C1A70FB1C1A787B68110018006F
:101D1400FFF7C4FF7B689B6800211800FFF7DCFE17
:101D24007B685B6800211800FFF7D6FEBD4602B051
:101D340080BD80B582B000AF78600A00FB1C1A70C9
:101D4400FB1C1A787B6811001800FFF7A7FF7B685B
:101D54009B6801211800FFF7BFFE7B685B680021C8
:101D64001800FFF7B9FEBD4602B080BD80B582B051
:101D740000AF78607B6800221A607B6800225A609A
:101D84007B6800229A607B680022DA607B6800220C
:101D94001A617B6800225A617B6801221A767B688B
:101DA4001800BD4602B080BD80B582B000AF786037
:101DB4000A00FB1C1A707B681A69FB1C1B7819004B
:101DC4001000FFF789FEBD4602B080BD80B584B027
:101DD40000AF786008001100FB1C021C1A70BB1CC9
:101DE4000A1C1A70FB1C1B78102B01D900231EE05F
:101DF4000023FB60BB1C1B78022B06D0032B07D0EF
:101E0400012B08D14023FB6007E01023FB6004E0B2
:101E14005023FB6001E00023FB60FB68DAB2FB1C8B
:101E24001B781343DBB2802252421343DBB2180007
:101E3400BD4604B080BD000080B500AF024B1B68F6
:101E44001800BD4680BDC046E801002080B584B0BE
:101E540000AF7860FFF7F0FF0300FB60FFF7ECFFD3
:101E64000200FB68D21A7B689A429B415B42DBB258
:101E7400002BF3D1BD4604B080BD80B582B000AF65
:101E840078607B681800FFF7E1FFBD4602B080BDB3
:101E940080B500AF014B1800BD4680BD1402002080
:101EA40080B500AFFFF7F4FF0300180000F0F6F868
:101EB400BD4680BD80B582B000AF7860024B18008B
:101EC400BD4602B080BDC0466802002080B582B025
:101ED40000AF786039603B681800FFF7CEFFBD465D
:101EE40002B080BD80B584B000AFF860B9607A609C
:101EF4003B60FB68BA681A60FB687A685A60FB68E2
:101F04003A689A60FB68BA69DA60FB68FA691A6130
:101F1400FB68180000F005F803001800BD4604B083
:101F240080BD90B587B002AF78607B6818680223E3
:101F34000093002300220121FEF7A1FE7B685A686A
:101F44007B681B6819001000FEF7C9FE7B681A69DC
:101F54007B681B6819001000FEF7C1FE7B689A6855
:101F64007B681B6819001000FEF7B9FE0F23FB18ED
:101F740000221A700F243B191B78072B11D87B6899
:101F8400DB683A1912789200D2587B681B681900F2
:101F94001000FEF7A4FE3B191A783B1901321A709F
:101FA400E8E77B6801211800FFF7FEFE7B68322119
:101FB4001800FFF78BFF7B6864211800FFF786FF8A
:101FC40096235A007B683821180000F03BF89623CA
:101FD4005A007B683921180000F034F87B686422C9
:101FE4001421180000F02EF87B681E2274211800BA
:101FF40000F028F87B681E225421180000F022F813
:102004007B681E226F21180000F01CF87B68642294
:102014000C21180000F016F87B68642201211800D6
:1020240000F010F87B6864223821180000F00AF8E8
:102034007B6800211800FFF7B7FE01231800BD4696
:1020440005B090BD80B584B000AFF8607A600B2015
:102054003B180A1C1A703B181A78FB681100180008
:10206400FFF74AFEFB681B6801211800FFF734FDE7
:10207400FB6802211800FFF729FFFB681B68002199
:102084001800FFF729FD7A68FB6811001800FFF7B4
:102094001DFF01231800BD4604B080BDB0B586B055
:1020A40000AF78607B681B681800FFF728FD030009
:1020B400013B5A425341DBB2002B05D07B681B68BD
:1020C4001800FFF7FAFC6BE0374B1800FFF7C3FD6D
:1020D40003001A0001235340DBB2002B5FD17B685D
:1020E4005B690F2213402BD17B681B7E002B27D00A
:1020F4007B685B69002B03D12B4B1800FFF7C3FDF2
:102104007B685B691A0917217B181A7016257C19DC
:102114007B181A787B6800211800FFF757FE03002C
:1021240023707B191B78802252421343DAB27B68F6
:1021340011001800FFF7E0FD7B6800221A7628E002
:10214400194B1800FFF77AFD03003B617B685B695C
:102154001F2B06D97B6800225A61134B1800FFF726
:1021640087FD7B685B693A69D2180F217B18127866
:102174001A707B685B695A1C7B685A617B18002261
:102184009A567B6811001800FFF7D3FD7B68012283
:102194001A767B681B681800FFF780FC00E0C046D5
:1021A400BD4606B0B0BDC0466802002080B582B00E
:1021B40000AF786039607B68012B19D13B68134A02
:1021C400934215D1124B1800FFF7D0FD114A124863
:1021D4000F230221FFF742FB104B1148022210216A
:1021E400FFF7F0FC0F49104B21221800FFF72CFADF
:1021F4007B68002B07D13B68044A934203D1084B08
:102204001800FFF7F7FCBD4602B080BDFFFF0000D9
:1022140014020020A51E0008300200204402002001
:102224006802002084020020A802002080B500AFCC
:10223400034B19000120FFF7B9FFBD4680BDC0461E
:10224400FFFF000080B500AF034B19000020FFF72B
:10225400ADFFBD4680BDC046FFFF0000B0B584B0F1
:1022640000AF0A217B1806221A8008203B18062298
:102274001A800E23FB1800221A80BB1D00221A802C
:102284003B1D00221A800C23FB18012252421A80A3
:10229400B94A7B1812881A80B84A3B1812881A80E7
:1022A4007B181B88B64A93424FD0B64A934203D058
:1022B400002B00D1F2E099E10823FB181B88002BC6
:1022C4000FD1AD4B180000F033FC03001A00BB1C07
:1022D4001A80BB1C1B88042B00D194E1BB1C1B88F7
:1022E40097E10823FB181B88A54A93421FD1A24BF0
:1022F400180000F01DFC03001A00BB1C1A80BB1C54
:102304001B88042B02D0BB1C1B8882E19B4B002141
:10231400180000F049FC03001A00BB1C1A80BB1C07
:102324001B88042B00D16EE1BB1C1B8871E100F0FB
:1023340009FA03001A00BB1C1A80BB1C1B88042B5F
:1023440000D160E1BB1C1B8863E10823FB181B88D8
:10235400002B00D06EE00E23FB1800221A8044E00C
:10236400894B1B889AB20E203B181988874B490069
:10237400CB5A9A4204D10C23FB183A1812881A80BB
:102384000E257B191A880C23FB1800215B5E9A42E8
:1023940025D07B191A887D4B5200D35A3C1D7C4AA8
:1023A4001100180000F03EF9030023803B1D1B8838
:1023B400012B14D07B191A88744B5200D25A744BD7
:1023C4001B88BC1D1900100000F046FA030023808E
:1023D400BB1D1B88042B02D0BB1D1B8819E10E21D9
:1023E4007B181A887B1801321A800E23FB181B886D
:1023F400092BB5D9604B0021180000F0D5FB030070
:102404001A00BB1C1A80BB1C1B88042B02D0BB1CEB
:102414001B88FEE0594B180000F08AFB03001A00E9
:10242400BB1C1A80BB1C1B88042B00D1EDE0BB1C19
:102434001B88EEE00823FB181B88524A93421FD1E5
:102444004E4B180000F074FB03001A00BB1C1A80EA
:10245400BB1C1B88042B02D0BB1C1B88D9E0464B39
:102464000021180000F0A0FB03001A00BB1C1A8016
:10247400BB1C1B88042B00D1C7E0BB1C1B88C8E015
:1024840000F060F903001A00BB1C1A80BB1C1B88F7
:10249400042B00D1B9E0BB1C1B88BAE00823FB184D
:1024A4001B88002B0DD100F04DF903001A00BB1C52
:1024B4001A80BB1C1B88042B00D1A8E0BB1C1B8802
:1024C400A7E00823FB181B882E4A93420FD12B4BFD
:1024D400180000F02DFB03001A00BB1C1A80BB1C63
:1024E4001B88042B00D192E0BB1C1B8891E00E23B7
:1024F400FB1800221A8055E0264B1B889AB20E2046
:102504003B181988214B4900CB5A9A4204D10C2319
:10251400FB183A1812881A800E257B191A880C2386
:10252400FB1800215B5E9A4236D07B191A88174B40
:102534005200D35A3C1D164A1100180000F072F8DC
:10254400030023803B1D1B88012B25D07B191A888F
:102554000E4B5200D25A0E4B1B88BC1D19001000A2
:1025640000F07AF903002380BB1D1B88042B13D0D1
:10257400BB1D1B884DE0C04600780008007C0008A5
:10258400EEEE0000FFFF000006780008EC010020DA
:10259400B8020020067C00080E217B181A887B18DC
:1025A40001321A800E23FB181B88092BA4D91B4B5C
:1025B4000021180000F0F8FA03001A00BB1C1A806E
:1025C400BB1C1B88042B02D0BB1C1B8821E0144BB2
:1025D400180000F0ADFA03001A00BB1C1A80BB1CE3
:1025E4001B88042B13D0BB1C1B8812E000F0AAF834
:1025F40003001A00BB1C1A80BB1C1B88042B07D0C9
:10260400BB1C1B8805E0C04602E0C04600E0C04693
:1026140004231800BD4604B0B0BDC046007C0008C9
:1026240000780008B0B586B000AF02003960BB1D69
:102634001A800E217B1800221A800C23FB18264ACC
:102644001A801623FB1801221A80244B3B61234B6A
:10265400BB600D007C18002000F0A8F80300238064
:102664007B191B88AB2B01D1AB2331E00E22BB18A5
:102674001B881B498C4663449B02BB60BB181B88A8
:1026840001339B02174A944663443B6118E03A695C
:102694000C217B1812881A807A18BB1D12881B889B
:1026A4009A420AD13B69023B1B889AB23B681A8062
:1026B4001623FB1800221A8007E03B69043B3B61A8
:1026C400BB6802333A699A42E1D81623FB181B8887
:1026D4001800BD4606B0B0BD555500000000010805
:1026E4001E000200FE770008B0B584B000AF0200FF
:1026F400BB1D1A803B1D0A1C1A800E257B19002263
:102704001A807C193B1D1A88BB1D1B8811001800F8
:1027140000F0A2F8030023807B191B88802B0AD1C8
:102724007C193B1D1A88BB1D1B881100180000F082
:1027340001F9030023800E23FB181B881800BD46F3
:1027440004B0B0BD90B583B000AFFB1D04221A7075
:10275400FC1D144B180000F0EBF903002370FB1D63
:102764001B78042B02D0FB1D1B7817E0FC1D0D4BBE
:102774000021180000F018FA03002370FB1D1B78D9
:10278400042B02D0FB1D1B7808E0FC1D064B18002F
:1027940000F0CEF903002370FB1D1B781800BD4622
:1027A40003B090BD00780008007C000880B584B0B8
:1027B40000AF0200FB1D1A700E217B1806221A803E
:1027C4000C203B1806221A80204A7B1812881A8093
:1027D4001F4A3B1812881A80FB1D1B78002B1FD040
:1027E400012B2DD13B181B88002B08D17B181B888B
:1027F400184A934201D1002323E0012321E00E2350
:10280400FB181B88002B09D10C23FB181B88114AC9
:10281400934201D1012314E0002312E0AB2310E022
:102824000E23FB181B88002B01D1002309E00C2385
:10283400FB181B88002B01D1012302E0AB2300E02D
:1028440000231800BD4604B080BDC04600780008CF
:10285400007C0008EEEE0000B0B586B000AF0200C8
:10286400BB1D1A803B1D0A1C1A801323FB1804226B
:102874001A7010217B1800221A802A4B7B612A4B84
:10288400FB600D007C180120FFF790FF03002380FC
:102894007B191B88AB2B01D1AB233FE01022BB1863
:1028A4001B8822498C4663449B027B61BB181B88AE
:1028B40001339B021E4A94466344FB6029E07B6912
:1028C4001B68013322D113257C193B1D1A887B69AF
:1028D4001100180000F068F9030023707B191B78BD
:1028E400042B03D07B191B789BB217E07B699A1CDD
:1028F40013257C19BB1D1B881900100000F054F926
:10290400030023707B191B789BB207E07B690433B7
:102914007B617A69FB689A42D1D380231800BD4653
:1029240006B0B0BD00000108FF0701081E00020048
:10293400FE770008F0B589B000AF0200BB1D1A8015
:102944003B1D0A1C1A801523FB1804221A70604BC5
:10295400FB61604BBB6112217B1800221A80162395
:10296400FB1800221A801023FB1800221A800E2361
:10297400FB1800221A800D007C180020FFF716FFB8
:10298400030023807B191B88012B04D1524BFB616C
:10299400524BBB610BE01223FB181B88002B04D1A4
:1029A4004E4BFB614C4BBB6101E0AB238BE0152527
:1029B4007C194B4AFB691100180000F0F5F803007C
:1029C40023707B191B78042B03D07B191B789BB2D3
:1029D40079E010257C193B1D1A88BB1D1B8811004A
:1029E4001800FFF739FF030023807B191B88042B91
:1029F40002D07B191B8866E01623FB1800221A807C
:102A040037E016257B191A88364B5200D35ABA1D63
:102A140012889A4227D07B191A88324B5200D35A13
:102A24000E26BC19304A11001800FFF7FBFD030005
:102A34002380BB191B88012B15D07B191A88294BBD
:102A44005200D25A284B1B8810257C1919001000FB
:102A5400FFF702FF030023807B191B88042B02D09D
:102A64007B191B882FE016217B181A887B180132EA
:102A74001A801623FB181B88092BC2D915257C192B
:102A8400BB69180000F054F8030023707B191B780D
:102A9400042B03D07B191B789BB214E015257C19F9
:102AA400FB690021180000F07FF8030023707B19F4
:102AB4001B78042B03D07B191B789BB203E01523EE
:102AC400FB181B789BB21800BD4609B0F0BDC04688
:102AD400FF0301080000010800780008007C0008DA
:102AE400EEEE0000EC010020B802002080B500AF3B
:102AF400064B1B698022134005D0044B044A5A60DC
:102B0400024B044A5A60BD4680BDC04600200240C4
:102B140023016745AB89EFCD80B500AF034B1A693C
:102B2400024B80210A431A61BD4680BD0020024049
:102B3400B0B584B000AF78600F257B1904221A70F9
:102B44007C19B0231B03180000F096F803002370CF
:102B540028003B181B78042B1CD1124B1A69114B0B
:102B640002210A431A610F4B7A685A610D4B1A69A4
:102B74000C4B40210A431A613C18B0231B03180074
:102B840000F07AF803002370064B1A69054B022102
:102B94008A431A610F23FB181B781800BD4604B042
:102BA400B0BDC04600200240B0B584B000AF78602C
:102BB4000A00BB1C1A800F257B1904221A707C1989
:102BC400B0231B03180000F057F8030023702800FB
:102BD4003B181B78042B17D10F4B1A690E4B01219C
:102BE4000A431A617B68BA1C12881A803C18B02305
:102BF4001B03180000F040F803002370064B1A6909
:102C0400054B01218A431A610F23FB181B78180016
:102C1400BD4604B0B0BDC0460020024080B582B0BD
:102C240000AFFB1D04221A70124BDB680122134013
:102C3400012B03D1FB1D01221A7014E00D4BDB683C
:102C44001022134003D0FB1D02221A700BE0094B23
:102C5400DB680422134003D0FB1D03221A7002E038
:102C6400FB1D04221A70FB1D1B781800BD4602B020
:102C740080BDC0460020024090B585B000AF7860AA
:102C84000F217B1804221A707C18FFF7C7FF03007A
:102C9400237008E00F23FC18FFF7C0FF0300237024
:102CA4007B68013B7B600F23FB181B78012B02D14F
:102CB4007B68002BEED17B68002B03D10F23FB181C
:102CC40005221A700F23FB181B781800BD4605B0A7
:102CD40090BD80B500AFFFF7A9FAFEF7A9FCBD4689
:102CE40080BD10B500F001F810BD10B500F002F879
:102CF40010BD000010B5034B0100186800F004F883
:102D040010BDC0462C00002070B50500002910D06D
:102D14000C1F2368002B00DAE418280000F03EF8AA
:102D24001D4A1368002B05D163601460280000F06D
:102D34003DF870BDA34209D9216860188342F3D1DC
:102D440018685B6841182160EEE713005A68002A8E
:102D540001D0A242F9D919685818A0420BD12068B1
:102D64000918581819608242E0D110685268411855
:102D740019605A60DAE7A04202D90C232B60D5E728
:102D840021686018824203D110685268411821609A
:102D940062605C60CAE7C046BC02002010B502480D
:102DA40000F00CF810BDC046C402002010B5024863
:102DB40000F005F810BDC046C402002070477047FB
:102DC40003001218934200D1704719700133F9E7D8
:102DD400002243088B4274D303098B425FD3030A56
:102DE4008B4244D3030B8B4228D3030C8B420DD369
:102DF400FF22090212BA030C8B4202D312120902F7
:102E040065D0030B8B4219D300E0090AC30B8B4234
:102E140001D3CB03C01A5241830B8B4201D38B03E2
:102E2400C01A5241430B8B4201D34B03C01A524187
:102E3400030B8B4201D30B03C01A5241C30A8B42CA
:102E440001D3CB02C01A5241830A8B4201D38B02B5
:102E5400C01A5241430A8B4201D34B02C01A524159
:102E6400030A8B4201D30B02C01A5241CDD2C309CB
:102E74008B4201D3CB01C01A524183098B4201D347
:102E84008B01C01A524143098B4201D34B01C01A32
:102E9400524103098B4201D30B01C01A5241C308AA
:102EA4008B4201D3CB00C01A524183088B4201D319
:102EB4008B00C01A524143088B4201D34B00C01A05
:102EC4005241411A00D20146524110467047FFE771
:102ED40001B5002000F006F802BDC0460029F7D075
:102EE40076E770477047C046313233343536373869
:102EF400393000000000000000000000E91600085E
:102F0400FD1600080B1700081F17000833170008E8
:102F140049170008651700080000000000000000C1
:102F24008B1C0008751C00080B1700085B1C0008AC
:0C2F3400411C0008F91B00081D1C0008CF
:102F4000785634129800002000000000006CDC026B
:102F50000000000000000000010203040607080949
:102F60009C0000207401002001FFFFFF30000020C2
:102F70000000000000000000000000000000000051
:102F80000000000000000000000000000000000041
:102F90000000000000000000000000000000000031
:102FA0000000000000000000000000000000000021
:102FB0000000000000000000000000000000000011
:102FC0000000000000000000000000000000000001
:042FD0003254769869
:04000005080000C52A
:00000001FF
