:020000040800F2
:1000000000200020410200084902000851020008B7
:1000100000000000000000000000000000000000E0
:10002000000000000000000000000000770200084F
:1000300000000000000000007F0200084D350008AD
:10004000870200088702000887020008870200086C
:10005000870200088702000887020008870200085C
:10006000870200088702000887020008870200084C
:10007000870200088702000887020008870200083C
:1000800087020008870200080000000087020008BD
:10009000870200088702000887020008870200081C
:1000A000870200088702000887020008870200080C
:1000B000870200080000000087020008000000001E
:1000C0005FF808F180B58EB000AF00F02FF94A4B11
:1000D0004A4A1A604A4B494A1A604A4B3B634A4BA8
:1000E000FB624A4BBB62FB6A7B6207E03A6B131D03
:1000F0003B637B6A191D796212681A60BA6A7B6A6F
:100100009A42F3D83C4B1B68414A934204D13C4B82
:100110001B68404A934200D0FEE73F4B374A1A60C3
:100120003E4B364A1A603E4B3B623E4BFB613B6A9C
:10013000BB6104E0BB691A1DBA6100221A60FA694A
:10014000BB699A42F6D8344B1B68002B03D1334B62
:100150001B68002B00D0FEE700F0EEF83A003B1DD4
:100160001100180000F0D2F82F4A304BD31A9B1020
:10017000FB600023BB6007E02C4BBA689200D358A9
:100180009847BB680133BB60FA68BB689A42F3DCEE
:10019000274A284BD31A9B10FB600023BB6007E063
:1001A000244BBA689200D3589847BB680133BB60B0
:1001B000FA68BB689A42F3DC7B683A681100180061
:1001C00002F0F0FC03007B631B4A1C4BD31A9B100C
:1001D0007B617B693B6108E03B695A1E174B9200CB
:1001E000D35898473B69013B3B613B69002BF3DCEB
:1001F0007B6B180000F07AF800000020BABADECA63
:1002000098000020D44F0008000000209C0000202F
:1002100078563412325476989C000020C403002093
:100220009C000020C8030020BC020008BC0200089B
:10023000CC020008BC020008D8020008CC0200086A
:1002400080B500AFFFF73EFF80B500AF00BEFEE710
:1002500004207146084202D0EFF3098001E0EFF379
:10026000088071460A4A104780B582B000AF7860B6
:10027000396000BEFEE780B500AF00BEFEE780B586
:1002800000AF00BEFEE780B500AF00BEFEE7000095
:0402900069020008F7
:10029400D44F0008000000209C000020D44F000828
:1002A40000000000000000009C000020C8030020A3
:1002B40000000000000000000D110008E520000807
:1002C4005D2E0008B53F0008FD200008752E0008CB
:0402D400CD3F000812
:1002D80080B582B000AF024B7B6000F009F8C046E1
:1002E8002C4D000880B582B000AF7860FEE70000B2
:1002F80080B582B000AF024B7B600120FFF7F2FFB0
:10030800404D000880B582B000AF786039607B68E6
:1003180001221A603B68024A1A60BD4602B080BDDD
:100328000400002080B500AF00F008F8BD4680BD8D
:1003380080B500AF00F048F8BD4680BD80B500AF7D
:100348001B4B1A681A4B01210A431A60184B5A684A
:10035800174B18490A405A60154B1A68144B16492E
:100368000A401A60124B1A68114B14490A401A6065
:100378000F4B5A680E4B12490A405A600C4BDA6A06
:100388000B4B0F218A43DA62094B1A6B084B0D4954
:100398000A401A63064B5A6B054B01218A435A637C
:1003A800034B00229A6000F07DF8BD4680BDC04630
:1003B800001002400CB8FFF8FFFFF6FEFFFFFBFF3E
:1003C800FFFFC0FFACFEFFFF80B584B000AF002385
:1003D800FB600023BB6000237B6000233B602D4B48
:1003E8005B680C221340FB60FB68042B07D0082BCA
:1003F80009D0002B38D1284B284A1A6037E0264B01
:10040800264A1A6033E0234B5A68F0239B031340B3
:10041800BB60204B5A68C0235B0213407B60BB68FB
:100428009B0C0233BB607B68002B0CD1B9680A00B7
:100438005201521A93019B1ADB005B181B021A0027
:10044800154B1A6013E0134BDB6A0F22134001337C
:100458003B603968114804F0D1FB03001A00BB68FF
:100468005A430D4B1A6002E00B4B0C4A1A60094BB9
:100478005B681B090F221340094AD35CDBB2FB609F
:10048800054B1A68FB68DA40034B1A60BD4604B096
:1004980080BDC046001002400C00002000127A0007
:1004A8001000002080B582B000AF00237B600023DD
:1004B8003B60304B1A682F4B802149020A431A606F
:1004C8002C4B1A6880239B0213403B607B680133E6
:1004D8007B603B68002B04D17A68A023DB019A4239
:1004E800EED1244B1A6880239B02134002D00123CB
:1004F8003B6001E000233B603B68012B36D11E4B7B
:1005080011221A601B4A1B4B52685A60194A194B30
:1005180052685A60174B5A68164B18490A405A6075
:10052800144B5A68134B882149030A435A60114BEC
:100538001A68104B802149040A431A600D4B1A6847
:1005480080239B041340F9D00A4B5A68094B0321B6
:100558008A435A60074B5A68064B02210A435A607D
:10056800044B5B680C221340082BF9D1BD4602B03E
:1005780080BDC0460010024000200240FF7FC0FF3F
:1005880090B583B000AF02003960FB1D1A70FB1DE7
:100598001B785BB2002B36DA314AFB1D1B785BB245
:1005A80019000F230B40083B9B0806339B00D31808
:1005B80004331B68FA1D127852B2110003220A4054
:1005C800D200FF2191400A00D2431A4011003B6833
:1005D8009B01FF221A40FB1D1B785BB21800032306
:1005E8000340DB009A401E48FB1D1B785BB21C00D1
:1005F8000F232340083B9B080A4306339B00C3187C
:1006080004331A6029E0174AFB1D1B785BB29B086C
:10061800C0339B009B58FA1D127852B21100032276
:100628000A40D200FF2191400A00D2431A4011002B
:100638003B689B01FF221A40FB1D1B785BB2180028
:1006480003230340DB009A400648FB1D1B785BB27E
:100658009B080A43C0339B001A50BD4603B090BDA7
:1006680000ED00E000E100E080B582B000AF786006
:100678007B68013B0C4A934201D9012310E00B4BE4
:100688007A68013A5A6001235B4203211800FFF798
:1006980077FF064B00229A60044B07221A6000235A
:1006A8001800BD4602B080BDFFFFFF0010E000E06B
:1006B80080B582B000AF0200FB1D1A70FB1D1B78CD
:1006C800012B02D0022B01D1FEE7C046BD4602B085
:1006D80080BD000080B584B000AF78607B68084AB0
:1006E8009A429B415B42DBB2FB60064BFA681A6098
:1006F800044BFA6810210A431A60BD4604B080BD55
:1007080000366E010020024080B582B000AF7860EC
:100718003960284B1A68274B01210A431A60254B78
:100728001B68022213405A425341DBB2002BF6D118
:10073800204B5A681F4B03218A435A601D4B5B6844
:100748000C2213405A1E9341DBB2002BF6D13B68B2
:100758001800FFF7BFFF174BA02292035A60154BF2
:100768000022DA62134B1A68124B802149040A43AB
:100778001A60104B1A6880239B0413405A42534155
:10078800DBB2002BF5D10B4B5A680A4B02210A4306
:100798005A60084B5B680C221340083B5A1E934171
:1007A800DBB2002BF5D1FFF70FFE01231800BD4681
:1007B80002B080BD0010024080B582B000AF0023B7
:1007C8007B60074B5A69064B802189020A435A61AC
:1007D800034B5B697B607B68BD4602B080BDC04649
:1007E8000010024080B500AFBD4680BD80B500AFA7
:1007F800104A114B11001800FFF786FFFFF7DCFFC6
:100808000E4B1A68FA239900100004F0F7F9030058
:100818001800FFF729FF03005A1E9341DBB2002B93
:1008280002D00220FFF744FFFFF7DCFF00F008F8D2
:10083800BD4680BD0048E80100127A000C00002087
:1008480080B500AFBD4680BD80B582B000AF78608E
:1008580008001100FB1C021C1A70BB1C0A1C1A7031
:100868007B681B68FA1C12785200032191400A0029
:10087800D2431A407B681A607B681A68BB1C1978D7
:10088800FB1C1B785B0099400B001A437B681A60BD
:10089800BD4602B080BD80B582B000AF7860080068
:1008A8001100FB1C021C1A70BB1C0A1C1A707B6806
:1008B8009B68FA1C12785200032191400A00D24327
:1008C8001A407B689A607B689A68BB1C1B78190081
:1008D800FB1C1B785B0099400B001A437B689A60ED
:1008E800BD4602B080BD80B582B000AF7860080018
:1008F8001100FB1C021C1A70BB1C0A1C1A707B68B6
:10090800DB68FA1C12785200032191400A00D24396
:100918001A407B68DA607B68DA68BB1C1978FB1CB4
:100928001B785B0099400B001A437B68DA60BD4670
:1009380002B080BD80B582B000AF786008001100B9
:10094800FB1C021C1A70BB1C0A1C1A707B689B8853
:100958009BB2FA1C1278110001228A4092B2D2434B
:1009680092B213409AB27B689A807B689B889AB24D
:10097800BB1C1B78F91C09788B409BB213439AB2B5
:100988007B689A80BD4602B080BD80B584B000AF58
:1009980078600A00FB1C1A707B681A68FB1C1B78BD
:1009A8005B00DA401300FB60FB68DBB203221340F4
:1009B800DBB21800BD4604B080BD80B584B000AF7E
:1009C80078600A00FB1C1A707B68DA68FB1C1B78CD
:1009D8005B00DA401300FB60FB68DBB203221340C4
:1009E800DBB21800BD4604B080BD80B584B000AF4E
:1009F80078600A00FB1C1A707B689A68FB1C1B78DD
:100A08005B00DA401300FB60FB68DBB20322134093
:100A1800DBB21800BD4604B080BD80B584B000AF1D
:100A280078600A00FB1C1A707B689B889BB21A00CE
:100A3800FB1C1B781A411300FB60FB68DBB2012228
:100A48001340DBB21800BD4604B080BD80B582B04B
:100A580000AF78600A00FB1C1A70FB1C1B7801228F
:100A68009A4013001A007B689A61BD4602B080BDA7
:100A780080B582B000AF78600A00FB1C1A70FB1CBE
:100A88001B78103301229A4013001A007B689A6180
:100A9800BD4602B080BD80B582B000AF7860080066
:100AA8001100FB1C021C1A70BB1C0A1C1A70BB1C10
:100AB8001B78002B07D0FB1C1A787B6811001800E4
:100AC800FFF7C4FF06E0FB1C1A787B6811001800CA
:100AD800FFF7CEFFBD4602B080BD80B582B000AF43
:100AE80078600A00FB1C1A707B689B8A9BB21A000C
:100AF800FB1C1B781A411300012213405A1E934114
:100B0800DBB21800BD4602B080BDB0B584B000AFFE
:100B1800F86008007A6019000B243B19021C1A704F
:100B28000A257B190A1C1A707B191A787B68110030
:100B38001800FFF72AFF03001A003B191978FB6811
:100B48001800FFF781FE7B191A787B6811001800DE
:100B5800FFF763FF03001A003B191978FB681800B8
:100B6800FFF7E8FE7B191A787B6811001800FFF779
:100B780024FF03001A003B191978FB681800FFF7D7
:100B8800B2FE7B191A787B6811001800FFF72DFF59
:100B980003001A003B191978FB681800FFF77BFE61
:100BA800BD4604B0B0BD80B582B000AF78600A0021
:100BB800FB1C1A707B6818687B681979FB1C1B780A
:100BC8001A00FFF741FEBD4602B080BD80B582B075
:100BD80000AF78600A00FB1C1A707B6818687B6895
:100BE8001979FB1C1B781A00FFF755FEBD4602B0A9
:100BF80080BD80B582B000AF78600A00FB1C1A7017
:100C08007B6818687B681979FB1C1B781A00FFF74A
:100C18006AFEBD4602B080BD80B582B000AF786084
:100C28000A00FB1C1A707B6818687B681979FB1C22
:100C38001B781A00FFF77EFEBD4602B080BD80B566
:100C480082B000AF78607B681A687B681B791900EE
:100C58001000FFF7FBFEBD4602B080BD80B582B034
:100C680000AF78607B681A687B681B7919001000F0
:100C7800FFF7FEFEBD4602B080BD80B582B000AF72
:100C880078600A00FB1C1A707B6818687B68197901
:100C9800FB1C1B78013B5A425341DBB21A00FFF799
:100CA800FAFEBD4602B080BD80B582B000AF786064
:100CB8007B681A687B681B7919001000FFF70DFF25
:100CC800031E01D0012300E000231800BD4602B036
:100CD80080BD90B583B000AF78600C00100019009B
:100CE800FB1C221C1A70BB1C021C1A707B1C0A1CE1
:100CF8001A70FB1C1A787B6811001800FFF753FF65
:100D0800BB1C1A787B6811001800FFF785FF7B1C55
:100D18001A787B6811001800FFF76BFF1823FB187F
:100D28001A787B6811001800FFF750FFBD4603B022
:100D380090BD80B582B000AF786039607B68186874
:100D48007B6819793B681A683B681B79FFF7DDFEF9
:100D5800BD4602B080BD80B582B000AF78600A00A1
:100D6800FB1C1A707B685A68FB1C1B78012B01D18D
:100D7800002300E0012319001000FFF77EFFBD46A5
:100D880002B080BD80B582B000AF78600A00FB1C5D
:100D98001A70FB1C1B7801225340DBB2002B08D0D1
:100DA8007B6800221A767B689B681800FFF747FF6C
:100DB80007E07B689B681800FFF750FF7B680122FB
:100DC8001A76BD4602B080BD80B500AF024B1B68E5
:100DD8001800BD4680BDC0462800002080B500AF81
:100DE800FFF7F2FF0300180000F002F8BD4680BDCF
:100DF80080B584B000AF78607B68DB695A425341A4
:100E0800DBB2002B05D07B6800211800FFF7BAFF82
:100E180061E07B681B681800FFF746FF0300013B91
:100E28005A425341DBB2002B36D07B681B68002145
:100E38001800FFF722FF7B68DB692A2B04D97B683F
:100E4800DB692A3B1A0000E000227B68DA617B68D4
:100E58001B6A2A331A007B681A627B68DA697B6826
:100E68001B6A9A4202D27B68DB6901E07B681B6AD5
:100E7800FB60FA68FA239900100003F0BFFE030034
:100E8800BB60BB68092B03D8BB680A22D21A00E0F2
:100E980000227B685A621EE07B685B6A0A229A42DB
:100EA8009B415B42DBB2002B02D07B680A225A626C
:100EB8007B685B6A5A425341DBB2002B06D07B68E1
:100EC8001B6801211800FFF7D8FE04E07B685B6A05
:100ED8005A1E7B685A62BD4604B080BD80B584B096
:100EE80000AF786039607B6800211800FFF74AFF7F
:100EF8003A6813005B019B1A9B009B18DB00FB60A0
:100F08007B6800221A627B68FA68DA617B680121D3
:100F18001800FFF737FF7B681B6801211800FFF7EF
:100F2800ACFE01231800BD4604B080BD80B582B078
:100F380000AF78607B6800211800FFF723FF7B680B
:100F48000022DA617B6800221A6201231800BD467C
:100F580002B080BD80B582B000AF78607B681B7E30
:100F6800DBB201225340DBB2002B05D07B68DB6982
:100F7800002B01D1012300E000231800BD4602B078
:100F880080BD80B584B002AF78607B685868022362
:100F98000093002300220121FFF79BFE7B681A685B
:100FA8007B685B6819001000FFF7C3FE7B689A68CE
:100FB8007B685B6819001000FFF7BBFE7B681A6945
:100FC8007B685B6819001000FFF7B3FE7B685A69FD
:100FD8007B685B6819001000FFF7ABFE7B68DA6876
:100FE8007B685B6819001000FFF7A3FE7B681B682D
:100FF8001800FFF733FE7B685B681800FFF72EFECA
:101008007B689B681800FFF71AFE7B68DB6818008E
:10101800FFF715FE7B680321180000F010F87B68C5
:1010280000211800FFF797FE7B680022DA617B68D1
:1010380000221A6201231800BD4602B080BD80B5A7
:1010480082B000AF78600A00FB1C1A70FB1C1B788A
:10105800012B13D002DC002B05D030E0022B18D076
:10106800032B21D02BE07B681B691800FFF7F6FDE6
:101078007B685B691800FFF7F1FD22E07B681B695C
:101088001800FFF7DCFD7B685B691800FFF7E6FDD9
:1010980017E07B681B691800FFF7E0FD7B685B6958
:1010A8001800FFF7CCFD0CE07B681B691800FFF700
:1010B800C6FD7B685B691800FFF7C1FD01E00023EE
:1010C80000E001231800BD4602B080BD80B582B0A3
:1010D80000AF786039607B68012B09D13B68064A0C
:1010E800934205D1054A06480123022102F0E0F99E
:1010F800BD4602B080BDC046FFFF0000E50D0008F8
:10110800A400002080B500AF034B19000120FFF7B1
:10111800DDFFBD4680BDC046FFFF000080B584B03E
:1011280000AF0200FB1D1A700E23FA18FB1D1B7876
:101138001100180002F0C0FA031E03D00E23FB189A
:101148001B8801E001235B421800BD4604B080BD46
:1011580080B582B000AF78607B685A687B689B680E
:10116800D31A5A425341DBB21800BD4602B080BDC3
:1011780080B582B000AF78607B681800FFF7E8FFA1
:1011880003001A0001235340DBB21800BD4602B029
:1011980080BD80B584B000AF78607B6824331800C8
:1011A800FFF7E6FF031E11D07B682433180001F017
:1011B800B7FE03001A000F217B181A707B181B78E2
:1011C800002BEAD00F23FB181B7800E0002318003F
:1011D800BD4604B080BD80B582B000AF78607B6842
:1011E8001800FFF7D6FF03001800BD4602B080BD07
:1011F80080B582B000AF0200FB1D1A70FB1D1B7882
:101208000C2B1CD89A00104BD3181B689F460A2336
:1012180016E0142314E0002312E0012310E0022357
:101228000EE003230CE004230AE0052308E006236C
:1012380006E0072304E0082302E0092300E01E2358
:101248001800BD4602B080BD944D000880B500AFBF
:1012580002231800BD4680BD80B500AF01231800E9
:10126800BD4680BD80B582B000AF78607B685B68A2
:101278001800BD4602B080BD80B582B000AF78606E
:1012880039603A687B685A60BD4602B080BD80B557
:1012980084B000AF78600A00FB1C1A707B681800E5
:1012A80000F030F802000F23FB181A70FB1C1B78A3
:1012B800092B05D97B685B685A427B685A601DE038
:1012C8000F23FB181B78180000F082F80300BB609E
:1012D8007B685A6813009B009B185B001A00FB1C74
:1012E8001B78D2187B685A607B685B68B9681800FD
:1012F80003F00AFD0B001A007B685A601800BD460F
:1013080004B080BD80B584B000AF78607B683021C0
:10131800180000F020F80300FB607B682321180008
:1013280000F019F80200FB689B18FB60FB681800C6
:10133800BD4604B080BD80B584B000AF78607B68DE
:101348009B68FB60FB68180003F012FC03001800A0
:10135800BD4604B080BD80B584B000AF78600A0097
:10136800FB1C1A707B689B68FB607B689A68FB1C97
:101378001B785BB21100180000F005F80300180094
:10138800BD4604B080BD80B584B000AF02003960AE
:10139800FB1D1A700023FB603B681B785BB2002BB7
:1013A80011D03B685A1C3A601B785BB2FA1D127860
:1013B80052B2D31A5A425341DBB2002BECD0FB682D
:1013C8000133FB60E8E7FB681800BD4604B080BD48
:1013D80080B584B000AF0200FB1D1A700123FB60CA
:1013E800FB1D1B78FA1D591E11705A1E9341DBB262
:1013F800002B06D0FA6813009B009B185B00FB606B
:10140800EEE7FB681800BD4604B080BD80B584B027
:1014180000AF78607B685B68FB607B685A687B68B4
:101428001B691900100003F06FFC0B001A007B68A1
:101438005A607B685B68FA689A4205D07B681B68CB
:101448001B687A6810009847BD4604B080BD80B517
:1014580082B000AF78607B681B681B687A681000F0
:1014680098477B685B685A1C7B685A607B68596838
:101478007B681A69002391425B41DBB2002B02D0E2
:101488007B6800225A60BD4602B080BD80B586B038
:1014980000AFF860B9607A60FB68DB687A689A42E6
:1014A80001D300231DE0FB689B68BA689A4201D308
:1014B800002316E0FB685B687B61FB689B687A68C1
:1014C8005A43BB68D218FB685A60FB685B687A6944
:1014D8009A4205D0FB681B681B68FA681000984799
:1014E80001231800BD4606B080BD80B582B000AFAC
:1014F80078600A00FB1C1A707B681800FFF786FFEB
:101508007B685A697B685B68D318FA1C12781A7072
:101518007B681800FFF79BFF7B681B681B687A686D
:1015280010009847BD4602B080BD80B582B000AFBC
:10153800786039603B681B785BB2002B0AD03B6847
:101548005A1C3A6000229A567B6811001800FFF76F
:10155800CCFFEFE7BD4602B080BDF0B58FB000AF5D
:10156800786239626B467B603B6A1800FFF7E3FEDE
:10157800030001337B637B6B142B01D9002339E013
:101588007B6B013B3B631A0001323A6100227A61AE
:10159800386979690200520F0E00F600FE61FE6993
:1015A8001643FE610200D200BA611A000132BA6025
:1015B8000022FA60B868F9680200520F0E00F500C0
:1015C80015430200D40001330733DB08DB006A4609
:1015D800D31A9D466B460033FB62FA6A3B6A1100D8
:1015E800180001F08FFEFA6A7B6A11001800FFF7F5
:1015F8009CFF01237A6895461800BD460FB0F0BDE0
:1016080080B584B000AFF860B9607A603B607A68F2
:10161800B968FB681800FFF739FF3A68FB681100E2
:101628001800FFF782FFBD4604B080BD80B584B0C6
:1016380000AF78600023FB607B681B69FA689A42F8
:1016480009D87B685A69FB68D31820221A70FB688E
:101658000133FB60F0E77B681B681B687A68100041
:101668009847BD4604B080BDF0B59FB000AFF860A4
:10167800B9607A60BB68180003F07AFA0200632345
:1016880093429B415B42DBB2002B01D0002312E066
:1016980077257C191026BA197968BB68180002F0FA
:1016A800C4F803002370BA19FB6811001800FFF78B
:1016B8003CFF7B191B781800BD461FB0F0BD80B5F4
:1016C80082B000AF78607B68DA69FA23990010006D
:1016D80003F094FA03001800BD4602B080BD80B53F
:1016E80082B000AF78607B6800229A737B68012221
:1016F8001A737B6800221A617B6801225A737B681F
:101708005B6801211800FFF7B8FABD4602B080BD3A
:1017180080B582B000AF78607B681B7B01225340A4
:10172800DBB21800BD4602B080BD80B582B000AF04
:1017380078607B689B7B1800BD4602B080BD0000C6
:1017480080B582B000AF78607B685A68044900238E
:1017580091425B41DBB21800BD4602B080BDC04675
:101768008713000080B582B000AF78607B685B6942
:101778001800BD4602B080BD80B582B000AF786069
:101788007B685B69002B04D07B685B695A1E7B68A9
:101798005A61BD4602B080BD80B582B000AF7860A6
:1017A8000A00FB1C1A707B68FA1C542112785A54E0
:1017B8007B6854229B5C002B05D100F0B5FB03002D
:1017C800180000F0EDFB7B681B6D1800FFF72EFF7B
:1017D8007B68180000F0ACF9BD4602B080BD00007F
:1017E80090B585B000AF78607B6854229B5C002B75
:1017F80011D100F099FB03001800FFF7A1FF0300C7
:101808001A0001235340DBB2002B04D07B6801216E
:101818001800FFF7C1FF7B68180000F089F9C04B7A
:101828001B680F22BC181800FFF7D5FC03002370B3
:101838007B6854229B5C082B00D96EE19A00B94B57
:10184800D3181B689F460F23FB181B780B2B05D159
:101858007B6806211800FFF79FFF4FE10F23FB1855
:101868001B78002B05D07B6801211800FFF794FF37
:1018780044E100F059FB03001800FFF761FF030083
:101888001A0001235340DBB2002B00D136E17B68FC
:1018980001211800FFF780FF3FE10F23FB181B7899
:1018A8000C2B0BD100F040FB0300180000F05CFB90
:1018B8007B6802211800FFF76FFF21E10F23FB1857
:1018C8001B780B2B00D01BE17B6804211800FFF765
:1018D80063FF22E10F23FB181B78002B0BD000F0CD
:1018E80023FB0300180000F05BFB7B680121180054
:1018F800FFF752FF06E18C4B1B681800FFF72AFB25
:10190800031E00D1FEE0894B1B681800FFF7E7FEB5
:101918007B6803211800FFF73FFFFEE00F23FB1849
:101928001B78002B0BD000F0FFFA0300180000F022
:1019380037FB7B6801211800FFF72EFFE4E07B4BA3
:101948001B681800FFF7E4FE031E00D1DCE0774BAC
:101958001B681800FFF7E9FE031E05D07B68072106
:101968001800FFF719FFD8E000F0DEFA03001800AE
:10197800FFF702FF00F0D8FA0300180000F02EFB72
:10198800031E05D07B6801211800FFF705FFBBE0A7
:1019980000F0CAFA0300180000F0E6FA7B6802219A
:1019A8001800FFF7F9FEB8E00F23FB181B780C2B83
:1019B8000FD17B681800FFF755FC03009BB2190094
:1019C800032001F023FE7B6805211800FFF7E4FEE1
:1019D8009CE00F23FB181B780B2B05D17B6801219A
:1019E8001800FFF7D9FE91E00F23FB181B78002B96
:1019F80000D18BE07C680F23FB181B781800FFF7D9
:101A0800F7FB030019002000FFF741FC85E00F23D6
:101A1800FB181B780C2B10D17B6810331800FFF7CC
:101A280021FC03009BB21900042001F0EFFD7B6844
:101A380001211800FFF7B0FE6AE00F23FB181B789E
:101A48000B2B05D17B6801211800FFF7A5FE5FE08D
:101A58000F23FB181B78002B5AD07B6810331C000F
:101A68000F23FB181B781800FFF7C2FB03001900AF
:101A78002000FFF70CFC50E00F23FB181B780C2B01
:101A880010D17B6820331800FFF7ECFB03009BB2F2
:101A98001900052001F0BAFD7B6801211800FFF745
:101AA8007BFE37E00F23FB181B780B2B05D17B68D7
:101AB80001211800FFF770FE2CE00F23FB181B789C
:101AC800002B27D07B6820331C000F23FB181B78C2
:101AD8001800FFF78DFB030019002000FFF7D7FB64
:101AE8001BE00F23FB181B78002B15D07B68012106
:101AF8001800FFF751FE10E0C0460EE0C0460CE0AB
:101B0800C0460AE0C04608E0C04606E0C04604E019
:101B1800C04602E0C04600E0C046BD4605B090BDE4
:101B280024000020C84D0008280000202C000020B8
:101B380090B583B000AF78607B6854229B5C082B1B
:101B480000D92BE19A00974BD3181B689F467B68F6
:101B5800186D954B00220021FFF752FD7B681B6D25
:101B6800012200211800FFF791FC7B681C6DFFF72C
:101B78006DFB03001A008D4B19002000FFF774FD60
:101B88007B681C6DFFF768FB03001A00884B19007F
:101B98002000FFF769FD01E17C680320FFF7BEFA2A
:101BA800030019002000FFF767FB7B6810331C0057
:101BB8000420FFF7B3FA030019002000FFF75CFBCD
:101BC8007B681B6D002200211800FFF75FFC7B6813
:101BD8001B6D7A6811001800FFF7BFFC7B681B6D4E
:101BE800012200211800FFF751FC7B681A6D7B6801
:101BF800103319001000FFF7B0FCCFE07B68186DB8
:101C08006C4B00220021FFF7FBFC7B6830331C0083
:101C1800694B1B681800FFF752FD030019002000EC
:101C2800FFF72AFB7B6840331C0000F07DF90300B6
:101C38001800FFF797FD030019002000FFF71CFBB1
:101C48007B681A6D7B68303319001000FFF785FC3C
:101C58007B681A6D7B68403319001000FFF77DFC24
:101C68009CE07B68186D554B00220021FFF7C8FCEB
:101C78007B681B6D012200211800FFF707FC7B68B9
:101C880040331C0000F050F903001800FFF76AFD0C
:101C9800030019002000FFF7EFFA7B681B6D484A24
:101CA80011001800FFF741FC7B681A6D7B68403310
:101CB80019001000FFF751FC70E07B68186D414B6C
:101CC80000220021FFF79CFC7B681B6D012200218C
:101CD8001800FFF7DBFB7B681B6D7A6811001800A2
:101CE800FFF73BFC5AE07B68186D374B0022002158
:101CF800FFF786FC7B681B6D012200211800FFF7A7
:101D0800C5FB7B681A6D7B68103319001000FFF75C
:101D180024FC43E07B68186D2C4B00220021FFF760
:101D28006FFC7B681B6D012200211800FFF7AEFBDA
:101D38007B681A6D7B68203319001000FFF70DFCD3
:101D48002CE07B68186D224B00220021FFF758FC1D
:101D58007B681B6D012200211800FFF797FB7B6849
:101D680040331C0000F0E0F803001800FFF7FAFC0D
:101D7800030019002000FFF77FFA7B681B6D104AEB
:101D880011001800FFF7D1FB7B681A6D7B684033A0
:101D980019001000FFF7E1FB00E0C046BD4603B0A4
:101DA80090BDC046904E0008EC4D0008004E00085B
:101DB800104E0008184E000828000020284E000881
:101DC800384E0008404E0008544E0008684E00087F
:101DD8007C4E000890B583B000AF786039607B68AE
:101DE8003A681A657B685422002199547C6803205C
:101DF800FFF794F9030019002000FFF73DFA7B680C
:101E080010331C000420FFF789F903001900200093
:101E1800FFF732FA7B6820331C000520FFF77EF9B4
:101E2800030019002000FFF727FA7B6830331C00F5
:101E38000320FFF773F9030019002000FFF71CFACD
:101E48007B6840331C000420FFF768F90300190081
:101E58002000FFF711FABD4603B090BD80B582B0EF
:101E680000AF78600B4A7B681A607B6800225A6072
:101E78007B6800229A607B680022DA607B68002217
:101E88001A617B6800225A617B681800BD4602B05F
:101E980080BDC046BC4E000880B582B000AF7860F7
:101EA800034A7B681A607B681800BD4602B080BD93
:101EB800BC4E000880B582B000AF78607B6818001F
:101EC800FFF7EAFF7B681821180002F0D8FD7B684D
:101ED8001800BD4602B080BD80B582B000AF786002
:101EE8007B685B7F1800BD4602B080BD80B582B0BC
:101EF80000AF78600A00FB1C1A707B68FA1C127825
:101F08009A76BD4602B080BD80B582B000AF7860D9
:101F18007B685B6800211800FEF7AFFE7B68002233
:101F28001A73BD4602B080BD80B500AF014B1800E2
:101F3800BD4680BDB800002080B500AFFFF7F4FFB4
:101F48000300180000F05EF8BD4680BD80B582B081
:101F580000AF78607B68180000F022F803001800D2
:101F6800BD4602B080BD000090B583B000AF786078
:101F7800094B1B681800FFF7C7FF084B1C680320B4
:101F8800FFF7CCF8030019002000FEF7A7FF012394
:101F98001800BD4603B090BD2C000020280000208A
:101FA80080B582B000AF78600A4B1B681800FEF756
:101FB800BDFF094B1B681800FFF7A6FF0420FFF7B9
:101FC800ADF802007B685A6101231800BD4602B0D3
:101FD80080BDC046280000202C00002080B582B0BB
:101FE80000AF78607B685B69002B01D0002304E0B8
:101FF8007B681800FFF7D4FF01231800BD4602B024
:1020080080BD000080B582B000AF78607B681800A2
:10201800FFF796FB031E05D07B685B6879331A00CF
:102028007B685A60144B1B681800FFF755FF0300C4
:102038005A1E9341DBB2002B02D07B6800229A60C3
:102048007B689B680D4A93420CD87B689B68793300
:102058001A007B689A600A4B1B6801211800FFF779
:1020680045FF05E0064B1B6800211800FFF73EFFFF
:10207800BD4602B080BDC04624000020BFD4010088
:10208800F401002080B582B000AF786039607B68C9
:10209800012B0DD13B680D4A934209D10C4B180016
:1020A800FFF7DCFE0B4A0C487923022101F000FA05
:1020B8007B68002B07D13B68044A934203D1044B49
:1020C8001800FFF7E9FEBD4602B080BDFFFF000023
:1020D800B8000020411F0008D000002080B500AFE4
:1020E800034B19000120FFF7CDFFBD4680BDC04658
:1020F800FFFF000080B500AF034B19000020FFF779
:10210800C1FFBD4680BDC046FFFF000080B582B05C
:1021180000AF0200FB1D1A70034BFA1D12781A70EB
:10212800BD4602B080BDC0463000002080B582B0F8
:1021380000AF78600A00FB1C1A707B681B8A9BB290
:102148001A00FB1C1B781A411300012213405A1E67
:102158009341DBB21800BD4602B080BD80B582B0A5
:1021680000AF78607B681A687B681B7919001000DB
:10217800FFF7DCFF031E01D0012300E00023180055
:10218800BD4602B080BD80B586B002AFF860B960C8
:10219800FB1D1A70FB68BA681A60FB68FA1D127892
:1021A8001A71F86800230093002301220321FEF727
:1021B80090FDFB681800BD4604B080BD80B582B0B4
:1021C80000AF78600A00FB1C1A70FB1C1B78002B00
:1021D80008D07B6824331A00FB1C1B7819001000F8
:1021E80000F067FEBD4602B080BD80B582B000AF8A
:1021F80078600A00FB1C1A707B681B6801211800B4
:10220800FEF73BFD7B685B6801211800FEF735FD92
:102218007B689B6801211800FEF72FFDFB1C1B78CB
:10222800022B0AD0032B0FD0012B13D17B681B681C
:1022380000211800FEF721FD0CE07B685B68002197
:102248001800FEF71AFD05E07B689B68002118005E
:10225800FEF713FDBD4602B080BD80B582B000AF69
:1022680078607B68DB681800FFF778FF03005A4244
:102278005341DBB2002B01D0012327E07B681B69A7
:102288001800FFF76BFF03005A425341DBB2002BE3
:1022980001D002231AE07B685B691800FFF75EFF34
:1022A80003005A425341DBB2002B01D003230DE057
:1022B8007B689B691800FFF751FF03005A4253419E
:1022C800DBB2002B01D0042300E000231800BD4638
:1022D80002B080BD80B582B000AF0200FB1D1A704D
:1022E800BB1D0A1C1A70FB1D1B78022B18D0032B70
:1022F8002BD0012B3ED1BB1D1B78022B0AD002DC50
:10230800012B05D036E0032B06D0042B06D031E094
:10231800012330E004232EE007232CE00B232AE0DE
:10232800BB1D1B78022B0AD002DC012B05D021E053
:10233800032B06D0042B06D01CE002231BE0052348
:1023480019E0082317E00A2315E0BB1D1B78022BB0
:102358000AD002DC012B05D00CE0032B06D0042B9D
:1023680006D007E0032306E0062304E0092302E081
:102378000C2300E000231800BD4602B080BDB0B5B4
:1023880084B000AF78600F23FB1801221A700F2366
:10239800FB181B78032B2BD80F23FB181A787B68A4
:1023A80011001800FFF721FF0E257C197B68180023
:1023B800FFF753FF030023707B191B78002B06D10E
:1023C8000F217B181A787B1801321A70DFE70E2369
:1023D800FB181A780F23FB181B7811001800FFF759
:1023E80079FF03001A007B685A777B685B7F04E0FB
:1023F8007B6800225A777B685B7F1800BD4604B073
:10240800B0BD80B586B000AFF860B9607A603B6057
:10241800FB68BA681A60FB687A685A60FB683A68B1
:102428009A60FB683A6ADA60FB687A6A1A61FB6844
:10243800BA6A5A61FB68FA6A9A61FB6800221A77DD
:10244800FB6800225A77FB6824331800FB681E33A8
:102458000422190000F016FD1623FB1800221A802A
:102468001623FB181B88032B0CD816217B181B88F6
:10247800FA68D31800229A777B181A887B180132D9
:102488001A80EDE7FB681800BD4606B080BD80B530
:1024980084B002AF78607B68186802230093002339
:1024A80000220121FEF715FC7B685A687B681B68CF
:1024B80019001000FEF73DFC7B689A687B681B6872
:1024C80019001000FEF735FC7B68D86802230093DA
:1024D800012301220021FEF7FCFB7B681A697B6857
:1024E800DB6819001000FEF724FC7B685A697B68DA
:1024F800DB6819001000FEF71CFC7B689A697B6892
:10250800DB6819001000FEF714FCBD4602B080BD60
:10251800B0B584B000AF78600F257C197B681800CF
:10252800FFF72DFF030023707B681B7F7A19127851
:102538009A4210D07B680F217A1812781A777B1884
:102548001B78002B07D00F23FB181A787B68110023
:102558001800FFF733FEBD4604B0B0BD80B582B0A9
:1025680000AF78603960084A7B681A607B6800228F
:102578005A603A687B6811001800FEF77DFE7B6898
:102588001800BD4602B080BD544F000880B582B027
:1025980000AF7860034A7B681A607B681800BD4604
:1025A80002B080BD544F000880B582B000AF78609B
:1025B8007B681800FFF7EAFF7B680821180002F023
:1025C8005EFA7B681800BD4602B080BD80B582B057
:1025D80000AF786039607B685B683A681100180062
:1025E80000F003F8BD4602B080BD80B582B000AFF0
:1025F8007860396039687B680A22180002F05FFA4F
:10260800BD4602B080BD000080B584B000AFF86060
:10261800B9607A60FB687A6811001800FFF79EFFBE
:10262800094AFB681A60FB68084A9A60FB6800223E
:102638001A73BA68FB681100180000F02DF8FB68DF
:102648001800BD4604B080BD384F0008344E00085D
:1026580080B582B000AF7860054A7B681A607B68F5
:102668001800FFF793FF7B681800BD4602B080BDD5
:10267800384F000880B582B000AF78607B681800DA
:10268800FFF7E6FF7B681021180002F0F8F97B6875
:102698001800BD4602B080BD80B582B000AF78603A
:1026A80039607B683A689A60BD4602B080BD80B5E3
:1026B80082B000AF78607B681B681B687A6810007E
:1026C8009847BD4602B080BD80B582B000AF786043
:1026D8007B685B68002B05D07B681B681B687A6881
:1026E800100098477B6800225A60BD4602B080BD42
:1026F80080B584B000AF7860064B5A69054B9C21C1
:10270800C9030A435A61034B5B69FB60FB68BD461A
:1027180004B080BD0010024080B584B000AFF860FE
:10272800B9607A603B60FB68BA681A60FB687A68CF
:102738005A60FB683A689A60FB68BA69DA60FB68B5
:10274800FA691A61FB683A6A5A61FB6800221A76CC
:10275800FB680022DA61FB6800221A62FB6800222B
:102768005A62FB681800BD4604B080BD80B582B0CF
:1027780000AF78607B689B681800FFF7EFFC0300E8
:10278800013B5A425341DBB21800BD4602B080BD3E
:1027980080B584B000AFF860B9607A603B600E4ADB
:1027A800FB681A60FB68BA685A60FB687A689A60C6
:1027B800FB6800221A73FB6801225A73FB68002227
:1027C8009A73FB6800221A61FB683A685A61FB68D1
:1027D8001800BD4604B080BD284F000880B582B0FF
:1027E80000AF7860034A7B681A607B681800BD46B2
:1027F80002B080BD284F000880B582B000AF786075
:102808007B681800FFF7EAFF7B681821180002F0C0
:1028180036F97B681800BD4602B080BD80B584B02B
:1028280002AF78607B685868022300930023002277
:102838000121FEF74EFA7B68986802230093002373
:1028480000220021FEF745FABD4602B080BD000017
:1028580080B582B000AF78607B681B7B002B3AD0D4
:102868007B681B691F4A934207D87B681A697B6893
:102878005B69D2187B681A6106E07B681800FFF76D
:1028880043FB7B6801229A737B685B7B002B11D02A
:102898007B681800FFF76AFF03001A000123534002
:1028A800DBB2002B1BD07B6800221A617B680022F8
:1028B8005A7314E07B681800FFF758FF031E0ED008
:1028C8007B6800221A617B6801225A737B681800B2
:1028D800FFF71AFB03E07B681800FFF715FBBD46FE
:1028E80002B080BD9F0F000080B582B000AF786055
:1028F80078689023DB050C221900FFF744FC7B68FD
:102908000833684906221800FFF73DFC7B6810333E
:10291800644907221800FFF736FC7B6818336249C0
:102928000D221800FFF72FFC7B6820331800902336
:10293800DB050F221900FFF726FC7B6828335B496B
:1029480003221800FFF71FFC7B6830335749042225
:102958001800FFF718FC7B68383354490522180023
:10296800FFF711FC7B684033504906221800FFF737
:102978000AFC7B6848334D4907221800FFF703FC1F
:102988007B685033494908221800FFF7FCFB7B6835
:102998005833464909221800FFF7F5FB7B68603376
:1029A80042490C221800FFF7EEFB7B6868333F4969
:1029B8000D221800FFF7E7FB7B6870333B490E22B6
:1029C8001800FFF7E0FB7B68783338490F221800BE
:1029D800FFF7D9FB7B68803318009023DB050822BA
:1029E8001900FFF7D0FB7B68883318009023DB05BC
:1029F80009221900FFF7C7FB7B6890331800902362
:102A0800DB050A221900FFF7BEFB7B689833180024
:102A18009023DB0500221900FFF7B5FB7B68A03384
:102A280018009023DB0501221900FFF7ACFB7B6837
:102A3800A83318009023DB0502221900FFF7A3FB37
:102A48007B68B03318009023DB0503221900FFF7D9
:102A58009AFB7B68B83318009023DB050422190021
:102A6800FFF791FB7B68C03318009023DB05052234
:102A78001900FFF788FB7B68C83318009023DB0533
:102A880006221900FFF77FFB7B68D03318009023DC
:102A9800DB0507221900FFF776FB7B681800BD46A7
:102AA80002B080BD00140048000800480004004837
:102AB80080B500AF034B1B681800FFF729FDBD4622
:102AC80080BDC0462400002080B582B000AF786089
:102AD8007B68134901221800FFF796FD7B681033C5
:102AE800104901221800FFF78FFD7B6820330E493B
:102AF80001221800FFF788FD7B6830330B4901225B
:102B08001800FFF781FD7B6840330949012218004E
:102B1800FFF77AFD7B681800BD4602B080BDC0464D
:102B2800C44E0008D84E0008EC4E0008004F0008BC
:102B3800084F000880B582B000AF78607B684033EA
:102B48001800FFF785FD7B6830331800FFF780FD1C
:102B58007B6820331800FFF77BFD7B681033180073
:102B6800FFF776FD7B681800FFF772FD7B68180099
:102B7800BD4602B080BD000080B500AF054B18000F
:102B8800FEF72EFE044B1B681800FFF761FEBD46DA
:102B980080BDC0466C0200202C00002090B585B096
:102BA80002AF78603960FDF721FE0120FFF7AEFA29
:102BB80000F0D6FC264B1B681800FFF799FD254B43
:102BC8001868234B1B6810331900214B1B68083306
:102BD8001A001F4B1B681C001D4B1B681833019300
:102BE8001D4B0093230001F011F81C4B1B681800C3
:102BF800FFF74DFCFFF798F903001800FFF7A6F957
:102C0800174B1B681800FEF7BCF9164B1B68180019
:102C1800FFF704FE0020FFF779FA134B1868134BEF
:102C280000220021FEF7ECFC0F4B1B681800FFF791
:102C38004BFD0D4B1B681800FFF739FD0A4B1A684E
:102C48000B4B11001800FFF7C5F800F0FDFBFCE77F
:102C580020000020F001002038020020240000207D
:102C6800280000202C000020F4010020144F000848
:102C78006C020020F0B587B004AF786039607B68DB
:102C8800012B00D0B8E03B68644A934200D0B3E01F
:102C9800634B1800D8231A00002102F03BF8604B60
:102CA8001800FFF721FE5F4B1B6880331D005D4B4A
:102CB8001B6888331E005B4B1B68902294469C441B
:102CC800584B1B6860331A00564B1B686833190051
:102CD800544B1B6870331800524B1B687833524CA6
:102CE800039302900191009263463200290020006C
:102CF800FFF787FB00F060FF02004C4B1A604B4B5C
:102D08001B68180000F06AFF0200494B1A60454B27
:102D18001B68C8331C00434B1B68D0331D00414B54
:102D28001B68A8331E003F4B1B68C0331A003D4B7D
:102D38001B68B03319003B4B1B68B8333D480293FE
:102D48000191009233002A002100FFF7E5FC354B82
:102D58001B6898331900334B1B68A0331A00A9234A
:102D68005B003548FFF714FD2E4B1B6820331A0013
:102D7800324B1A602B4B1B6828331A002F4B5A60B2
:102D8800284B1B6830331A002C4B9A60254B1B6864
:102D980038331A00294BDA60224B1B6840331A007B
:102DA800264B1A611F4B1B6848331A00234B5A6184
:102DB8001C4B1B6850331A00204B9A61194B1B6837
:102DC80058331A001D4BDA611D4A1E48052302219B
:102DD80000F06EFB1C4B180058231A00002101F06C
:102DE80099FF194B1800FFF76FFEA9235B00174ADC
:102DF8001748022100F05CFB7B68002B0BD13B6875
:102E0800064A934207D1104B1800FFF793FE0A4B6E
:102E18001800FFF7E3FCBD4603B0F0BDFFFF00005C
:102E2800E400002020000020BC010020F001002068
:102E3800F4010020F80100202002002038020020C0
:102E4800B92A0008580200206C020020812B0008D3
:102E5800C402002080B500AF034B19000120FFF722
:102E680009FFBD4680BDC046FFFF000080B500AF2A
:102E7800034B19000020FFF7FDFEBD4680BDC0468C
:102E8800FFFF000080B584B000AFF860B9607A60D9
:102E9800FB687A681A60FB68BA68DA60FB68002227
:102EA8009A60FB6800225A60FB681800BD4604B0AF
:102EB80080BD80B584B000AF78600A00FB1C1A7032
:102EC8007B685B68FB607B689B68BB60FB68013361
:102ED800BA689A4201D100231EE0BB68002B07D1D3
:102EE8007B681B68013BFA689A4201D1002313E012
:102EF8007B68DA68FB68591CF960D318FA1C1278E9
:102F08001A707B681B68FA689A4201D2FA6800E076
:102F180000227B685A6001231800BD4604B080BDBA
:102F280080B586B000AF78607B689B687B617B6802
:102F38005B683B617A693B699A4202D1FF231B02B5
:102F480017E07B68DA687B69591C7961D2180F230E
:102F5800FB1812781A707B681B687A699A4201D24A
:102F68007A6900E000227B689A600F23FB181B78BF
:102F78009BB21800BD4606B080BD80B582B000AFD8
:102F880078607B6801225A76BD4602B080BD80B564
:102F980082B000AF78607B685B7EDBB21800BD460C
:102FA80002B080BD80B582B000AF78607B685B6995
:102FB8001800BD4602B080BD80B582B000AF786011
:102FC800034A7B681A607B681800BD4602B080BD62
:102FD800704F000880B582B000AF78607B685B688E
:102FE800180000F005F803001800BD4602B080BDC7
:102FF80080B584B000AF78607A6880231B069A4257
:1030080001D10B238DE00F23FB1801221A707B6876
:10301800002B08DA0F217B181A787B1801321A70F6
:103028007B685B427B607B68092B03DC0F23FB1802
:103038001B7876E00F217B181A787B1801321A70FA
:103048007B68632B03DC0F23FB181B7869E00F21D7
:103058007B181A787B1801321A707B68334A9342BE
:1030680003DC0F23FB181B785BE00F217B181A7811
:103078007B1801321A707B682D4A934203DC0F23B8
:10308800FB181B784DE00F217B181A787B1801324A
:103098001A707B68274A934203DC0F23FB181B78BE
:1030A8003FE00F217B181A787B1801321A707B6871
:1030B800214A934203DC0F23FB181B7831E00F21D0
:1030C8007B181A787B1801321A707B681B4A934266
:1030D80003DC0F23FB181B7823E00F217B181A78D9
:1030E8007B1801321A707B68154A934203DC0F2360
:1030F800FB181B7815E00F217B181A787B18013212
:103108001A707B680F4A934203DC0F23FB181B7865
:1031180007E00F217B187A18127801321A707B1891
:103128001B781800BD4604B080BDC046E703000008
:103138000F2700009F8601003F420F007F969800EE
:10314800FFE0F505FFC99A3B80B584B000AFF86091
:103158007A600B23FB180A1C1A707B685A1E7A6067
:103168005A1E9341DBB2002B08D0FB680B22BA1819
:1031780012781A70FB680133FB60EEE7BD4604B0B5
:1031880080BD000080B582B000AF78607B685B6866
:103198001A00054B1900100000F094F803001800FD
:1031A800BD4602B080BDC046D8020020B0B584B08C
:1031B80000AF78600A00FB1C1A70FB1C1B780B2BF5
:1031C80002D9FB1C0B221A707B680F257C1918008A
:1031D800FFF700FF030023707A19FB1C12781B7895
:1031E8009A4222D90A23BB60FB1CFA1C1278013AC6
:1031F8001A70FB1C1B785A1E9341DBB2002B06D0B9
:10320800BA6813009B009B185B00BB60ECE77B6807
:103218005B681A00BB681900100001F075FD0B000F
:103228001A007B685A60012300E000231800BD469D
:1032380004B0B0BDB0B584B000AF78600A00FB1C24
:103248001A70FB1C1B780B2B02D9FB1C0B221A7063
:103258000F23FC18FB1C1A787B6811001800FFF775
:10326800A5FF030023707B680E257C191800FFF763
:10327800B1FE030023700D203B18F91C7A19097858
:1032880012788A1A1A703B181B78002B10D00D245C
:103298003B191A780A4B20211800FFF755FF7B6865
:1032A80058683B191A78064BD3181900FFF79DF98F
:1032B8000F23FB181B781800BD4604B0B0BDC046EC
:1032C800D8020020B0B584B000AF786039607B6860
:1032D8000F257C191800FFF78BFE030023707B680D
:1032E8003A6811001800FFF780F97B191B783A68D3
:1032F800D31800221A707B191B781800BD4604B039
:10330800B0BD000090B589B000AF786039607B68C7
:1033180030211800FEF71FF803007B617B6823212A
:103328001800FEF718F803003B610F23FC187B68B0
:103338001800FFF727FF030023707B69DAB23B69A7
:10334800DBB2D318DAB27B6811001800FFF772FFFE
:103358007B689B68FB610023BB61FB691B785BB2E0
:10336800002B31D0FB691B785BB2232B07D1BB69DB
:103378005A1CBA61184AD2563B681A701DE0FB699C
:103388001B785BB2302B13D1134ABB69D3181B7857
:103398005BB2202B05D0104ABB69D31800229A567D
:1033A80000E030223B681A70BB690133BB6104E05E
:1033B800FB6900229A563B681A70FB690133FB616E
:1033C8003B6801333B60C8E73B6800221A70012361
:1033D8001800BD4609B090BDD802002080B584B061
:1033E80000AF7860164B1A687B68D218144B1A60C5
:1033F800144B1B68FB60FB68002B1DD0FB685B7CD3
:10340800022B15D1FB681B687A689A429B415B4284
:10341800DBB2002B06D0FB681A687B68D21AFB68FF
:103428001A6005E0FB6801225A74FB6800221A60E2
:10343800FB689B68FB60DEE7BD4604B080BDC04604
:10344800E8020020E402002080B582B000AF164BED
:103458001B78DBB2002B24D1144B1B687B607B6884
:10346800002B1ED07B685B7C012B16D17B681B7CF4
:10347800012B0CD0022B10D17B685A687B681A602C
:103488007B6802225A747B68DB68984705E07B6892
:1034980000225A747B68DB6898477B689B687B606E
:1034A800DDE7BD4602B080BD30000020E402002008
:1034B80080B586B000AFF8607A603B600B203B189F
:1034C8000A1C1A70FB6800225A74FB683A181278B2
:1034D8001A74FB687A68DA60FB683A685A60184BB5
:1034E8001B68002B0AD1164BFA681A60144B1B682C
:1034F80000229A60FB6802225A741BE0104B1B687A
:103508007B617B699B68002B07D07A69FB689A42CC
:1035180010D07B699B687B61F3E77A69FB689A4204
:1035280008D0FB6800229A607B69FA689A60FB6899
:1035380002225A74FB681800BD4606B080BDC0461A
:10354800E402002080B500AF0120FFF747FFBD4629
:1035580080BD80B500AF01231800BD4680BD0000C6
:1035680090B583B000AF01F097F9FB1D01221A70E6
:1035780000F034FD03001A00FB1D043A51424A4191
:103588001A7001F09FF93B1D00221A803B1D1B8811
:10359800062B33D8BB1C00221A803B1D1B885A00FF
:1035A800194BD218BC1C3B1D1B881100180000F0D9
:1035B800FFFE03002380BB1C1B88012B11D13B1D80
:1035C8001B88DBB20021180000F020F803001A0065
:1035D80001235340DBB2002B0AD0FB1D00221A70D6
:1035E80006E0BB1C1B88012B02D9FB1D00221A70A8
:1035F8003B1D1A883B1D01321A80C7E7FB1D1B784B
:103608001800BD4603B090BD0003002080B584B00B
:1036180000AF0200FB1D1A703B1D0A1C1A80FB1D1F
:103628001B780A2B01D9002340E0FB1D1B78072BD0
:1036380001D900233AE0FB1D1A781E4B5200D35AD9
:103648003A1D12889A4201D101232FE00F23FB185B
:1036580001221A70FFF77DFF031E20D001F01CF92C
:10366800FB1D1B789AB23B1D1B881900100000F047
:1036780003FF0300043B5A1E9341DBB2002B04D026
:103688000F23FB1800221A7006E0FB1D1A78094B5D
:103698005200391D0988D15201F014F903E00F23B3
:1036A800FB1800221A700F23FB181B781800BD4660
:1036B80004B080BD0003002080B582B000AF0200D6
:1036C8003960FB1D1A70FB1D1B780A2B01D90023DA
:1036D8000DE0FB1D1B78072B01D9002307E0FB1D1C
:1036E8001A78054B5200D25A3B681A8001231800F9
:1036F800BD4602B080BDC0460003002090B585B02D
:1037080000AF786039600B23FB1830221A700A2347
:10371800FB1823221A707B68FB6002E0FB68013308
:10372800FB60FB681B785BB2002BF7D143E0FB68BA
:10373800013BFB60FB681B785BB20B22BA1812785E
:1037480052B29A4208D0FB681B785BB20A22BA18B8
:10375800127852B29A422ED13B680A21180001F021
:10376800D3FA0B001A0009243B191A703B680A2186
:10377800180001F043FA03003B603B191B78002B4B
:103788000FD13B68002B0CD1FB681B785BB20A2277
:10379800BA18127852B29A420CD1FB6820221A70D9
:1037A80009E00923FB181B783033DBB25AB2FB68F7
:1037B8001A7000E0C046FA687B689A42B7D83B683E
:1037C8005A425341DBB21800BD4605B090BD80B5E2
:1037D80086B000AFF860B960FB1D1A70BB685A1C50
:1037E800BA6000229A5617217B181A707B181B782A
:1037F800002B0DD1FB1D1B78002B07D0FB685A1C32
:10380800FA601722BA18127852B21A70FB6808E0E8
:10381800FB685A1CFA601722BA18127852B21A704A
:10382800DCE71800BD4606B080BD80B584B000AFA7
:10383800F860B9607A60F9687B6801221800FFF7C0
:10384800C6FFBA687B6811001800FFF757FF03002E
:103858001800BD4604B080BD80B582B000AF786066
:103868000A00FB1C1A707B6818687B681979FB1CB6
:103878001B781A00FDF70FF9BD4602B080BD0000A5
:1038880080B584B000AFF860B9607A603B60144AD4
:10389800FB681A60FB6800229A76FB68BA689A602F
:1038A800FB687A68DA60FB683A685A61FB68DA682C
:1038B800FB689B685A43FB681A61FB6800225A60E0
:1038C800FB6800221A76FB681800FDF7AFFEFB685C
:1038D80001225A76FB681800BD4604B080BDC04678
:1038E800704F000880B584B000AFF860B9607A60A6
:1038F8003B60F8683B687A68B968FFF7C1FF044A1B
:10390800FB681A60FB681800BD4604B080BDC0465D
:10391800904F000880B582B000AF7860054A7B6898
:103928001A607B681800FFF747FB7B681800BD46E4
:1039380002B080BD904F000880B582B000AF7860BB
:103948007B681800FFF7E6FF7B681C21180001F070
:1039580096F87B681800BD4602B080BD80B582B07D
:1039680000AF78607B681800FFF71CFB03001800A5
:10397800BD4602B080BD80B582B000AF78607B687C
:103988001800FFF704FB03001800BD4602B080BD15
:1039980080B582B000AF78607B6800225A76BD4659
:1039A80002B080BD80B582B000AF78607B689B7E36
:1039B8001800BD4602B080BD90B585B000AF7860F4
:1039C8000A00FB1C1A700F23FB1800221A700F2321
:1039D800FB181B78072B1BD87B68DB680F243A1968
:1039E80012789200D058FB1C1B78012213405A1EF3
:1039F8009341DBB21900FFF72FFFFB1C1B785A100D
:103A0800FB1C1A703B191A783B1901321A70DEE751
:103A1800BD4605B090BD80B582B000AF78600A00A1
:103A2800FB1C1A70FB1C1A787B6811001800FFF742
:103A3800C3FF7B689B6800211800FFF70DFF7B68B8
:103A48005B6800211800FFF707FFBD4602B080BD84
:103A580080B582B000AF78600A00FB1C1A70FB1CAE
:103A68001A787B6811001800FFF7A6FF7B689B682F
:103A780001211800FFF7F0FE7B685B680021180041
:103A8800FFF7EAFEBD4602B080BD80B582B000AF48
:103A980078607B6800221A607B6800225A607B6825
:103AA80000229A607B680022DA607B6800221A6133
:103AB8007B6800225A617B6801221A767B680022A3
:103AC8005A767B680022DA617B681800BD4602B02E
:103AD80080BD80B582B000AF78600A00FB1C1A7008
:103AE8007B681A69FB1C1B7819001000FFF7B4FEED
:103AF800BD4602B080BD80B584B000AF78600800D4
:103B08001100FB1C021C1A70BB1C0A1C1A70FB1C3F
:103B18001B78102B01D900231EE00023FB60BB1C7F
:103B28001B78022B06D0032B07D0012B08D140238A
:103B3800FB6007E01023FB6004E05023FB6001E01A
:103B48000023FB60FB68DAB2FB1C1B781343DBB273
:103B5800802252421343DBB21800BD4604B080BD38
:103B680080B500AF024B1B681800BD4680BDC0463B
:103B7800E802002080B584B000AF7860FFF7F0FF5E
:103B88000300FB60FFF7ECFF0200FB68D21A7B68BA
:103B98009A429B415B42DBB2002BF3D1BD4604B095
:103BA80080BD80B582B000AF78607B681800FFF7F1
:103BB800E1FFBD4602B080BD80B500AF014B1800E3
:103BC800BD4680BD1403002080B500AFFFF7F4FFA9
:103BD8000300180000F0F8F8BD4680BD80B582B03B
:103BE80000AF7860024B1800BD4602B080BDC046E9
:103BF8006C03002080B582B000AF786039603B6804
:103C08001800FFF7CEFFBD4602B080BD80B584B076
:103C180000AFF860B9607A603B60FB68BA681A6008
:103C2800FB687A685A60FB683A689A60FB68BA6908
:103C3800DA60FB68FA691A61FB68180000F005F899
:103C480003001800BD4604B080BD90B587B002AF30
:103C580078607B6818680223009300230022012102
:103C6800FDF737F87B685A687B681B6819001000F5
:103C7800FDF75FF87B681A697B681B6819001000FC
:103C8800FDF757F87B689A687B681B681900100075
:103C9800FDF74FF80F23FB1800221A700F23FB18AB
:103CA8001B78072B12D87B68DB680F243A19127827
:103CB8009200D2587B681B6819001000FDF739F88C
:103CC8003B191A783B1901321A70E7E77B68012122
:103CD8001800FFF7FEFE7B6832211800FFF78AFF05
:103CE8007B6864211800FFF785FF96235A007B68DC
:103CF8003821180000F03BF896235A007B683921D8
:103D0800180000F034F87B6864221421180000F0D1
:103D18002EF87B681E227421180000F028F87B68B2
:103D28001E225421180000F022F87B681E226F2101
:103D3800180000F01CF87B6864220C21180000F0C1
:103D480016F87B6864220121180000F010F87B68DF
:103D580064223821180000F00AF87B680021180056
:103D6800FFF7B7FE01231800BD4605B090BD80B52A
:103D780084B000AFF8607A600B203B180A1C1A70F8
:103D88003B181A78FB6811001800FFF744FEFB681F
:103D98001B6801211800FFF75FFDFB68022118006E
:103DA800FFF728FFFB681B6800211800FFF754FD88
:103DB8007A68FB6811001800FFF71CFF0123180040
:103DC800BD4604B080BD0000B0B586B000AF7860D5
:103DD8007B681C69534B1800FFF7E4FD031E01D0F4
:103DE800012300E0002319002000FCF746FF7B6850
:103DF8001B681800FCF758FF0300013B5A42534167
:103E0800DBB2002B05D07B681B681800FCF726FF87
:103E180085E07B68DB699A1C7B68DA61414B180096
:103E2800FFF7A9FD03001A0001235340DBB2002B62
:103E38000DD07B685B7E01225340DBB2002B06D09D
:103E48007B68DB69384A934201D8012300E00023EC
:103E5800002B64D17B680022DA617B685B690F22E2
:103E680013402ED17B681B7E002B2AD07B685B69B0
:103E7800002B06D17B6801225A762A4B1800FFF7DF
:103E880087FD7B685B691A0917217B181A7016254C
:103E98007C197B181A787B6800211800FFF72BFE25
:103EA800030023707B191B78802252421343DAB235
:103EB8007B6811001800FFF7AEFD7B6800221A76B8
:103EC80028E0184B1800FFF749FD03003B617B68A9
:103ED8005B693A69D2180F23FB1812781A707B684D
:103EE8005B695A1C7B685A617B685B691F2B05D923
:103EF8007B6800225A617B6800225A760F23FB18E0
:103F080000229A567B6811001800FFF7A1FD7B6814
:103F180001221A767B681B681800FCF790FEBD46E4
:103F280006B0B0BD6C0300201209000080B582B055
:103F380000AF786039607B68012B19D13B68134A60
:103F4800934215D1124B1800FFF79FFD114A1248F2
:103F580002230221FFF7ACFA104B1148022210216C
:103F6800FFF7C0FC0F49104B21221800FEF78AFF0B
:103F78007B68002B07D13B68044A934203D1084B66
:103F88001800FFF7C7FCBD4602B080BDFFFF000068
:103F980014030020D13B000834030020480300200C
:103FA8006C03002088030020AC03002080B500AF1C
:103FB800034B19000120FFF7B9FFBD4680BDC0467D
:103FC800FFFF000080B500AF034B19000020FFF78A
:103FD800ADFFBD4680BDC046FFFF000090B585B06F
:103FE80000AF0A217B1806221A8008203B180622F7
:103FF8001A800E23FB1800221A80BB1D00221A808B
:104008003B1D00221A800C23FB18012252421A8001
:10401800BC4A7B1812881A80BB4A3B1812881A803F
:104028007B181B88B94A93424FD0B94A934203D0B0
:10403800002B00D1F5E09FE10823FB181B88002B1B
:104048000FD1B04B180000F049FC03001A00BB1C4C
:104058001A80BB1C1B88042B00D19AE1BB1C1B884F
:104068009DE10823FB181B88A84A93421FD1A54B42
:10407800180000F033FC03001A00BB1C1A80BB1C9C
:104088001B88042B02D0BB1C1B8888E19E4B002197
:10409800180000F05FFC03001A00BB1C1A80BB1C50
:1040A8001B88042B00D174E1BB1C1B8877E100F04E
:1040B80013FA03001A00BB1C1A80BB1C1B88042BB4
:1040C80000D166E1BB1C1B8869E10823FB181B882B
:1040D800002B00D071E00E23FB1800221A8047E065
:1040E8008C4B1B889AB20E23FB1819888A4B4900FF
:1040F800CB5A9A4205D10C23FB180E22BA18128803
:104108001A800E23FB181A880C23FB1800215B5E0B
:104118009A4227D00E23FB181A887F4B5200D35A95
:104128003C1D7E4A1100180000F042F9030023806C
:104138003B1D1B88012B15D00E23FB181A88764BC4
:104148005200D25A754B1B88BC1D1900100000F094
:104158004FFA03002380BB1D1B88042B02D0BB1D14
:104168001B881CE10E217B181A887B1801321A80E3
:104178000E23FB181B88092BB2D9624B00211800AB
:1041880000F0E8FB03001A00BB1C1A80BB1C1B884C
:10419800042B02D0BB1C1B8801E15B4B180000F00C
:1041A8009DFB03001A00BB1C1A80BB1C1B88042B38
:1041B80000D1F0E0BB1C1B88F1E00823FB181B882A
:1041C800534A93421FD1504B180000F087FB03005D
:1041D8001A00BB1C1A80BB1C1B88042B02D0BB1CFA
:1041E8001B88DCE0474B0021180000F0B3FB0300FC
:1041F8001A00BB1C1A80BB1C1B88042B00D1CAE008
:10420800BB1C1B88CBE000F067F903001A00BB1C3D
:104218001A80BB1C1B88042B00D1BCE0BB1C1B886C
:10422800BDE00823FB181B88002B0DD100F054F9C2
:1042380003001A00BB1C1A80BB1C1B88042B00D16E
:10424800ABE0BB1C1B88AAE00823FB181B88304A7C
:1042580093420FD12C4B180000F040FB03001A00CA
:10426800BB1C1A80BB1C1B88042B00D195E0BB1C0F
:104278001B8894E00E23FB1800221A8058E0284B74
:104288001B889AB20E23FB181988234B4900CB5A76
:104298009A4205D10C23FB180E22BA1812881A80EC
:1042A8000E23FB181A880C23FB1800215B5E9A4228
:1042B80038D00E23FB181A88174B5200D35A3C1DCE
:1042C800164A1100180000F073F8030023803B1D04
:1042D8001B88012B26D00E23FB181A880E4B520080
:1042E800D25A0E4B1B88BC1D1900100000F080F933
:1042F80003002380BB1D1B88042B13D0BB1D1B8808
:104308004DE0C04600780008007C0008EEEE000092
:10431800FFFF000006780008EC020020BC03002024
:10432800067C00080E217B181A887B1801321A8037
:104338000E23FB181B88092BA1D91B4B0021180041
:1043480000F008FB03001A00BB1C1A80BB1C1B886A
:10435800042B02D0BB1C1B8821E0144B180000F072
:10436800BDFA03001A00BB1C1A80BB1C1B88042B57
:1043780013D0BB1C1B8812E000F0AEF803001A0033
:10438800BB1C1A80BB1C1B88042B07D0BB1C1B88BA
:1043980005E0C04602E0C04600E0C046042318001D
:1043A800BD4605B090BDC046007C000800780008F6
:1043B800B0B586B000AF02003960BB1D1A800E216F
:1043C8007B1800221A800C23FB18274A1A80162310
:1043D800FB1801221A80254B3B61244BBB600D0062
:1043E8007C18002000F0ACF80300238029007B181B
:1043F8001B88AB2B01D1AB2331E00E22BB181B88E5
:104408001B498C4663449B02BB60BB181B88013365
:104418009B02184A944663443B6118E03A690C21B0
:104428007B1812881A807A18BB1D12881B889A423A
:104438000AD13B69023B1B889AB23B681A80162353
:10444800FB1800221A8007E03B69043B3B61BB680C
:1044580002333A699A42E1D81623FB181B881800E0
:10446800BD4606B0B0BDC046555500000000010865
:104478001E000200FE770008B0B584B000AF02004D
:10448800BB1D1A803B1D0A1C1A800E257B190022B1
:104498001A807C193B1D1A88BB1D1B881100180047
:1044A80000F0A6F8030023807B191B88802B0BD112
:1044B8000E23FC183B1D1A88BB1D1B881100180011
:1044C80000F006F9030023800E23FB181B88180050
:1044D800BD4604B0B0BD000090B583B000AFFB1D71
:1044E80004221A70FC1D144B180000F0F7F90300A1
:1044F8002370FB1D1B78042B02D0FB1D1B7817E0D3
:10450800FC1D0D4B0021180000F024FA0300237055
:10451800FB1D1B78042B02D0FB1D1B7808E0FC1D3B
:10452800064B180000F0DAF903002370FB1D1B7816
:104538001800BD4603B090BD00780008007C000854
:1045480080B584B000AF0200FB1D1A700E217B18E5
:1045580006221A800C203B1806221A80214A7B1852
:1045680012881A80204A3B1812881A80FB1D1B7873
:10457800002B21D0012B2FD10C23FB181B88002BDB
:1045880009D10E23FB181B88184A934201D1002336
:1045980023E0012321E00E23FB181B88002B09D1FF
:1045A8000C23FB181B88114A934201D1012314E004
:1045B800002312E0AB2310E00E23FB181B88002B0E
:1045C80001D1002309E00C23FB181B88002B01D123
:1045D800012302E0AB2300E000231800BD4604B02D
:1045E80080BDC04600780008007C0008EEEE0000A0
:1045F800B0B586B000AF0200BB1D1A803B1D0A1C77
:104608001A801323FB1804221A7010217B18002229
:104618001A802B4B7B612B4BFB600D007C18012013
:10462800FFF78EFF0300238029007B181B88AB2B24
:1046380001D1AB2340E01022BB181B8822498C46CD
:1046480063449B027B61BB181B8801339B021F4A92
:1046580094466344FB602AE07B691B68013323D1DD
:1046680013257C193B1D1A887B691100180000F07E
:1046780071F9030023707B191B78042B04D01323D2
:10468800FB181B789BB217E07B699A1C13257C19D1
:10469800BB1D1B881900100000F05CF90300237093
:1046A8007B191B789BB207E07B6904337B617A69CD
:1046B800FB689A42D0D380231800BD4606B0B0BD2F
:1046C80000000108FF0701081E000200FE7700082D
:1046D800B0B588B000AF0200BB1D1A803B1D0A1C94
:1046E8001A801523FB1804221A70644BFB61644B73
:1046F800BB6112217B1800221A801623FB180022A6
:104708001A801023FB1800221A800E23FB1800229F
:104718001A800D007C180020FFF712FF0300238089
:1047280029007B181B88012B04D1564BFB61564B83
:10473800BB610BE01223FB181B88002B04D1524BE2
:10474800FB61504BBB6101E0AB2392E015257C195E
:104758004E4AFB691100180000F0FCF803002370B2
:104768007B191B78042B04D01523FB181B789BB2EC
:104778007FE010257C193B1D1A88BB1D1B88110082
:104788001800FFF735FF030023807B191B88042BD3
:1047980003D01023FB181B886BE01623FB1800229C
:1047A8001A803AE01623FB181A88394B5200D35A5C
:1047B800BA1D12889A422AD01623FB181A88344B3D
:1047C8005200D35A0E257C19324A11001800FFF7FF
:1047D800EFFD030023807B191B88012B17D01623BC
:1047E800FB181A882A4B5200D25A2A4B1B881025CC
:1047F8007C1919001000FFF7FBFE030023807B19CA
:104808001B88042B03D01023FB181B8831E01621CA
:104818007B181A887B1801321A801623FB181B880C
:10482800092BBFD915257C19BB69180000F056F86B
:10483800030023707B191B78042B04D01523FB1865
:104848001B789BB215E015257C19FB69002118001F
:1048580000F080F8030023707B191B78042B04D028
:104868001523FB181B789BB203E01523FB181B7854
:104878009BB21800BD4608B0B0BDC046FF03010892
:104888000000010800780008007C0008EEEE000037
:10489800EC020020BC03002080B500AF064B1B696A
:1048A8008022134005D0044B044A5A60024B044A44
:1048B8005A60BD4680BDC0460020024023016745BE
:1048C800AB89EFCD80B500AF034B1A69024B80214D
:1048D8000A431A61BD4680BD00200240B0B584B0CD
:1048E80000AF78600F257B1904221A707C19B02359
:1048F8001B03180000F096F8030023707B191B783F
:10490800042B1DD1124B1A69114B02210A431A615B
:104918000F4B7A685A610E4B1A690D4B40210A43B6
:104928001A610F23FC18B0231B03180000F07AF853
:1049380003002370064B1A69054B02218A431A614A
:104948000F23FB181B781800BD4604B0B0BDC04645
:1049580000200240B0B584B000AF78600A00BB1CEC
:104968001A800F257B1904221A707C19B0231B03A7
:10497800180000F057F8030023707B191B78042BEC
:1049880018D1104B1A690F4B01210A431A617B6831
:10499800BA1C12881A800F23FC18B0231B031800B6
:1049A80000F040F803002370064B1A69054B0121FB
:1049B8008A431A610F23FB181B781800BD4604B000
:1049C800B0BDC0460020024080B582B000AFFB1DDC
:1049D80004221A70124BDB6801221340012B03D109
:1049E800FB1D01221A7014E00D4BDB6810221340E6
:1049F80003D0FB1D02221A700BE0094BDB6804226E
:104A0800134003D0FB1D03221A7002E0FB1D042291
:104A18001A70FB1D1B781800BD4602B080BDC04649
:104A28000020024090B585B000AF78600F217B1858
:104A380004221A707C18FFF7C7FF0300237008E0F0
:104A48000F23FC18FFF7C0FF030023707B68013BAE
:104A58007B600F23FB181B78012B02D17B68002B8E
:104A6800EED17B68002B03D10F23FB1805221A70A7
:104A78000F23FB181B781800BD4605B090BD10B574
:104A880000F001F810BD10B500F01EF810BD931E1F
:104A980010B50C00222B04D900231C000B70200039
:104AA80010BD0A2A09D1002807DA2D230B7001212D
:104AB8004042611800F064F8F1E70021F9E710B509
:104AC800FFF7E5FF10BD000010B5034B01001868A3
:104AD80000F004F810BDC0463400002070B5050091
:104AE800002910D00C1F2368002B00DAE4182800D6
:104AF80000F081F81D4A1368002B05D1636014602B
:104B0800280000F079F870BDA34209D9216860181F
:104B18008342F3D118685B6841182160EEE71300FF
:104B28005A68002A01D0A242F9D919685818A04237
:104B38000BD120680918581819608242E0D1106812
:104B48005268411819605A60DAE7A04202D90C236A
:104B58002B60D5E721686018824203D1106852683B
:104B68004118216062605C60CAE7C046C00300204B
:104B78000023C25C0133002AFBD1581E7047000095
:104B8800F0B517008DB0252206000D0002A81449C3
:104B980000F028F802AABB1E00240192222B05D996
:104BA8002C70250028000DB0F0BD1400300039002D
:104BB80000F0AAF884460198621CAB18415C5E1E9E
:104BC80031706646002EF0D11E702B005A1B94429D
:104BD800E8DD1A78295D19702A550133013CF5E79B
:104BE800AC4F0008002310B59A4200D110BDCC5C30
:104BF800C4540133F8E770477047000000224308A7
:104C08008B4274D303098B425FD3030A8B4244D38C
:104C1800030B8B4228D3030C8B420DD3FF220902CE
:104C280012BA030C8B4202D31212090265D0030B8D
:104C38008B4219D300E0090AC30B8B4201D3CB0383
:104C4800C01A5241830B8B4201D38B03C01A5241C5
:104C5800430B8B4201D34B03C01A5241030B8B42C7
:104C680001D30B03C01A5241C30A8B4201D3CB02B2
:104C7800C01A5241830A8B4201D38B02C01A524197
:104C8800430A8B4201D34B02C01A5241030A8B429A
:104C980001D30B02C01A5241CDD2C3098B4201D3B2
:104CA800CB01C01A524183098B4201D38B01C01A30
:104CB800524143098B4201D34B01C01A52410309A7
:104CC8008B4201D30B01C01A5241C3088B4201D356
:104CD800CB00C01A524183088B4201D38B00C01A03
:104CE800524143088B4201D34B00C01A5241411A2A
:104CF80000D20146524110467047FFE701B5002037
:104D080000F006F802BDC0460029F7D076E77047E4
:104D18007047C04603001218934200D170471970BB
:104D28000133F9E75F5F6378615F707572655F767D
:104D380069727475616C000061626F727428292C45
:104D48002065786974696E672E2E2E002C20667592
:104D58006E6374696F6E3A200000000061737365BA
:104D68007274696F6E2022257322206661696C65F2
:104D7800643A2066696C6520222573222C206C69B0
:104D88006E65202564257325730A00004612000805
:104D980022120008261200082A1200082E12000803
:104DA80032120008361200083A1200083E120008B3
:104DB800421200081E120008161200081A120008F3
:104DC8004E180008A2180008DC180008241900086A
:104DD800B0190008161A0008801A0008EA1A000814
:104DE800001B00082047494C4F54594E4B41204B5B
:104DF8004142452000000000574552534A413A209D
:104E08003030302E0000000030303020000000002C
:104E18002020202050525A4553555720202020004A
:104E28002020204349454349452020200000000018
:104E38005A6F7374616C6F00205553544157204466
:104E48004C55474F53432020000000002020205598
:104E58005354415720494C4F534320200000000031
:104E680020205553544157204B414C4942522E2043
:104E7800000000002A2A20424C4144204E4F5A414B
:104E880021202A2A00000000561B0008A01B000849
:104E9800041C00086A1C0008C21C0008EE1C00085C
:104EA8001C1D00084A1D0008A21D00080000000083
:104EB80000000000A11E0008BD1E0008444C554714
:104EC8004F53433A2323232330206D6D0000000005
:104ED800494C4F53433A232323233020737A742EAB
:104EE800000000004B414C49425241432E3A2323D3
:104EF80030206D6D00000000205B2323305D200012
:104F08003C23232323303E20000000003132333479
:104F18003536373839300000000000000000000046
:104F2800E527000801280008000000000000000034
:104F3800592600087D2600086D1200088112000815
:104F4800D525000800000000000000009525000895
:104F5800B12500086D12000881120008D525000847
:104F68000000000000000000832F0008972F0008B1
:104F7800AD2F00080000000000000000D902000862
:104F88000000000000000000832F00087F3900089F
:104F9800653900081D39000841390008AD39000895
:104FA800993900083031323334353637383961624F
:104FB800636465666768696A6B6C6D6E6F70717241
:094FC800737475767778797A002C
:104FD40078563412A000002000000000006CDC02AF
:104FE4000000000000000000010203040607080995
:104FF400E4000020BC010020F80100202002002071
:1050040001FFFFFF38000020000000000000000046
:10501400000000000000000000000000000000008C
:10502400000000000000000000000000000000007C
:10503400000000000000000000000000000000006C
:10504400000000000000000000000000000000005C
:10505400000000000000000000000000000000004C
:0C506400000000000000000032547698AC
:04000005080000C52A
:00000001FF
