:020000040800F2
:1000000000200020E5010008EB000008D3000008F4
:1000100000000000000000000000000000000000E0
:10002000000000000000000000000000CF000008F9
:100030000000000000000000CB000008C90000081C
:10004000C5000008C5000008C5000008C50000087C
:10005000C5000008C5000008C5000008C50000086C
:10006000C5000008C5000008C5000008C50000085C
:10007000C5000008C5000008C5000008C50000084C
:10008000C5000008C500000800000000C500000809
:10009000C5000008C5000008C5000008C50000082C
:1000A000C5000008C5000008C5000008C50000081C
:1000B000C500000800000000C500000800000000A6
:1000C0005FF808F100BEFEE7704700BEFEE700BE25
:1000D000FEE704207146084202D0EFF3098001E0F8
:1000E000EFF308807146414A104700BEFEE700BEAC
:1000F000FEE730B583B000F06BF92A4B2A4A136053
:100100002A4A13602A4B2B4A2B498B4204D211688E
:10011000196004330432F7E7234B1A68274B9A42DD
:1001200000D0FEE7214B1A68254B9A42F9D11D4BAE
:10013000244A1360244A1360244B02E000221A6010
:100140000433234A9342F9D31E4B1B68002B03D17F
:100150001D4B1B68002B00D0FEE700F035F9694607
:1001600001A800F039F91B4C1B4BE41AA410002520
:10017000AC420ADC194C1A4BE41AA4100025AC421C
:1001800009DC0099019800F047F8AA00124BD358F7
:1001900098470135ECE7AA00114BD3589847013531
:1001A000EDE7C046BABADECA0000002020000020F9
:1001B00000000020000500082400002078563412BA
:1001C00032547698240000202C00002024000020C7
:1001D0003000002018020008180200081802000869
:1001E0001802000810B5FFF784FF0000EF000008B8
:1001F0000005000800000020240000200005000881
:10020000000000000000000024000020300000205A
:080210000000000000000000E6
:10021800FEE7000082B0002301930093274A11688B
:1002280080235B020B431360244B1B6880229202DD
:1002380013400093019B01330193009B002B04D1D1
:10024800019AA023DB019A42EED11C4B1B689B0349
:1002580006D501230093009B012B04D002B0704700
:1002680000230093F7E7164B11221A60134B5A68C4
:100278005A605A685A605A6812490A405A6059685E
:10028800882252030A435A601968802252040A439A
:100298001A600A4B1B689B01FBD5084B5A6803215F
:1002A8008A435A60596802220A435A60034B5A68C3
:1002B8000C231340082BF9D1D0E7C04600100240A8
:1002C80000200240FF7FC0FF10B51F4B5B680C2267
:1002D8001340042B13D0082B15D0002B2FD11B4B08
:1002E8001B4A1A60184B5B681B090F221340194AF6
:1002F800D35CDBB2154A1168D940116010BD134BAD
:10030800134A1A60EEE7104B5C685A68C0235B0218
:10031800A40C0F20044002341A4204D10E4844436E
:100328000A4B1C60DEE7084BD96A0F2319400131DC
:10033800074800F055F84443044B1C60D2E7034BD0
:10034800034A1A60CEE7C04600100240140000209D
:1003580000127A000400002000093D0010B5124B7D
:100368001A6801210A431A605A68104802405A6004
:100378001A680F4802401A601A680E4802401A604C
:100388005A680D4802405A60DA6A0F208243DA62DE
:100398001A6B0A4802401A635A6B8A435A6300224E
:1003A8009A60FFF737FF10BD001002400CB8FFF845
:1003B800FFFFF6FEFFFFFBFFFFFFC0FFACFEFFFFE6
:1003C80010B5FFF781FF10BD10B5FFF7C7FF10BDCF
:1003D80001230360014B0B607047C04618000020E2
:1003E800002243088B4274D303098B425FD3030A6C
:1003F8008B4244D3030B8B4228D3030C8B420DD37F
:10040800FF22090212BA030C8B4202D3121209020C
:1004180065D0030B8B4219D300E0090AC30B8B424A
:1004280001D3CB03C01A5241830B8B4201D38B03F8
:10043800C01A5241430B8B4201D34B03C01A52419D
:10044800030B8B4201D30B03C01A5241C30A8B42E0
:1004580001D3CB02C01A5241830A8B4201D38B02CB
:10046800C01A5241430A8B4201D34B02C01A52416F
:10047800030A8B4201D30B02C01A5241CDD2C309E1
:100488008B4201D3CB01C01A524183098B4201D35D
:100498008B01C01A524143098B4201D34B01C01A48
:1004A800524103098B4201D30B01C01A5241C308C0
:1004B8008B4201D3CB00C01A524183088B4201D32F
:1004C8008B00C01A524143088B4201D34B00C01A1B
:1004D8005241411A00D20146524110467047FFE787
:1004E80001B5002000F006F802BDC0460029F7D08B
:0804F80076E770477047C0462B
:1005000078563412000000000000000001020304CD
:1005100006070809006CDC0228000020000000002B
:040520003254769843
:04000005080000F3FC
:00000001FF
