:020000040800F2
:1000000000200020410200084902000851020008B7
:1000100000000000000000000000000000000000E0
:10002000000000000000000000000000770200084F
:1000300000000000000000007F0200082906000800
:10004000870200088702000887020008870200086C
:10005000870200088702000887020008870200085C
:10006000870200088702000887020008870200084C
:10007000870200088702000887020008870200083C
:1000800087020008870200080000000087020008BD
:10009000870200088702000887020008870200081C
:1000A000870200088702000887020008870200080C
:1000B000870200080000000087020008000000001E
:1000C0005FF808F180B58EB000AF00F00DF94A4B33
:1000D0004A4A1A604A4B494A1A604A4B3B634A4BA8
:1000E000FB624A4BBB62FB6A7B6207E03A6B131D03
:1000F0003B637B6A191D796212681A60BA6A7B6A6F
:100100009A42F3D83C4B1B68414A934204D13C4B82
:100110001B68404A934200D0FEE73F4B374A1A60C3
:100120003E4B364A1A603E4B3B623E4BFB613B6A9C
:10013000BB6104E0BB691A1DBA6100221A60FA694A
:10014000BB699A42F6D8344B1B68002B03D1334B62
:100150001B68002B00D0FEE700F0CCF83A003B1DF6
:100160001100180000F0B0F82F4A304BD31A9B1042
:10017000FB600023BB6007E02C4BBA689200D358A9
:100180009847BB680133BB60FA68BB689A42F3DCEE
:10019000274A284BD31A9B10FB600023BB6007E063
:1001A000244BBA689200D3589847BB680133BB60B0
:1001B000FA68BB689A42F3DC7B683A681100180061
:1001C00000F0C0F903007B631B4A1C4BD31A9B1041
:1001D0007B617B693B6108E03B695A1E174B9200CB
:1001E000D35898473B69013B3B613B69002BF3DCEB
:1001F0007B6B180000F062F800000020BABADECA7B
:1002000024000020500700080000002028000020E3
:100210007856341232547698280000203800002096
:10022000280000203C000020BC020008BC0200089E
:10023000BC020008BC020008BC020008BC020008A6
:1002400080B500AFFFF73EFF80B500AF00BEFEE710
:1002500004207146084202D0EFF3098001E0EFF379
:10026000088071460A4A104780B582B000AF7860B6
:10027000396000BEFEE780B500AF00BEFEE780B586
:1002800000AF00BEFEE780B500AF00BEFEE7000095
:0402900069020008F7
:100294005007000800000020280000205007000834
:1002A4000000000000000000280000203C000020A6
:0802B400000000000000000042
:1002BC0080B582B000AF7860FEE7000080B582B0F8
:1002CC0000AF786039607B6801221A603B68024A93
:1002DC001A60BD4602B080BD0400002080B500AF9E
:1002EC0000F008F8BD4680BD80B500AF00F048F8BE
:1002FC00BD4680BD80B500AF1B4B1A681A4B01215F
:10030C000A431A60184B5A68174B18490A405A602E
:10031C00154B1A68144B16490A401A60124B1A688E
:10032C00114B14490A401A600F4B5A680E4B124974
:10033C000A405A600C4BDA6A0B4B0F218A43DA6283
:10034C00094B1A6B084B0D490A401A63064B5A6B42
:10035C00054B01218A435A63034B00229A6000F03B
:10036C007DF8BD4680BDC046001002400CB8FFF8B9
:10037C00FFFFF6FEFFFFFBFFFFFFC0FFACFEFFFF22
:10038C0080B584B000AF0023FB600023BB6000236A
:10039C007B6000233B602D4B5B680C221340FB60A1
:1003AC00FB68042B07D0082B09D0002B38D1284B25
:1003BC00284A1A6037E0264B264A1A6033E0234B52
:1003CC005A68F0239B031340BB60204B5A68C02330
:1003DC005B0213407B60BB689B0C0233BB607B6889
:1003EC00002B0CD1B9680A005201521A93019B1AC6
:1003FC00DB005B181B021A00154B1A6013E0134B41
:10040C00DB6A0F22134001333B603968114800F05E
:10041C000DF903001A00BB685A430D4B1A6002E039
:10042C000B4B0C4A1A60094B5B681B090F221340DB
:10043C00094AD35CDBB2FB60054B1A68FB68DA40F7
:10044C00034B1A60BD4604B080BDC046001002408C
:10045C000C00002000127A001000002080B582B041
:10046C0000AF00237B6000233B60304B1A682F4B9E
:10047C00802149020A431A602C4B1A6880239B0284
:10048C0013403B607B6801337B603B68002B04D1DD
:10049C007A68A023DB019A42EED1244B1A688023A0
:1004AC009B02134002D001233B6001E000233B6020
:1004BC003B68012B36D11E4B11221A601B4A1B4B79
:1004CC0052685A60194A194B52685A60174B5A684D
:1004DC00164B18490A405A60144B5A68134B882122
:1004EC0049030A435A60114B1A68104B8021490486
:1004FC000A431A600D4B1A6880239B041340F9D0F1
:10050C000A4B5A68094B03218A435A60074B5A68B5
:10051C00064B02210A435A60044B5B680C221340C1
:10052C00082BF9D1BD4602B080BDC0460010024078
:10053C0000200240FF7FC0FF80B582B000AF786022
:10054C00396000F037F8FCE780B584B000AF786014
:10055C00164B1A687B68D218144B1A60144B1B6824
:10056C00FB60FB68002B1DD0FB685B7C022B15D15C
:10057C00FB681B687A689A429B415B42DBB2002B9A
:10058C0006D0FB681A687B68D21AFB681A6005E013
:10059C00FB6801225A74FB6800221A60FB689B6896
:1005AC00FB60DEE7BD4604B080BDC04634000020D1
:1005BC003000002080B582B000AF164B1B78DBB248
:1005CC00002B24D1144B1B687B607B68002B1ED046
:1005DC007B685B7C012B16D17B681B7C012B0CD0C0
:1005EC00022B10D17B685A687B681A607B680222E8
:1005FC005A747B68DB68984705E07B6800225A7464
:10060C007B68DB6898477B689B687B60DDE7BD4651
:10061C0002B080BD200000203000002080B500AF6B
:10062C000120FFF791FFBD4680BD0000002243086A
:10063C008B4274D303098B425FD3030A8B4244D39E
:10064C00030B8B4228D3030C8B420DD3FF220902E0
:10065C0012BA030C8B4202D31212090265D0030B9F
:10066C008B4219D300E0090AC30B8B4201D3CB0395
:10067C00C01A5241830B8B4201D38B03C01A5241D7
:10068C00430B8B4201D34B03C01A5241030B8B42D9
:10069C0001D30B03C01A5241C30A8B4201D3CB02C4
:1006AC00C01A5241830A8B4201D38B02C01A5241A9
:1006BC00430A8B4201D34B02C01A5241030A8B42AC
:1006CC0001D30B02C01A5241CDD2C3098B4201D3C4
:1006DC00CB01C01A524183098B4201D38B01C01A42
:1006EC00524143098B4201D34B01C01A52410309B9
:1006FC008B4201D30B01C01A5241C3088B4201D368
:10070C00CB00C01A524183088B4201D38B00C01A14
:10071C00524143088B4201D34B00C01A5241411A3B
:10072C0000D20146524110467047FFE701B5002048
:10073C0000F006F802BDC0460029F7D076E77047F6
:04074C007047C046EC
:10075000785634122C00002000000000006CDC02EF
:100760000000000000000000010203040607080961
:0807700001FFFFFF32547698EF
:04000005080000C52A
:00000001FF
