:020000040800F2
:1000000000200020410200084902000851020008B7
:1000100000000000000000000000000000000000E0
:10002000000000000000000000000000770200084F
:1000300000000000000000007F0200086D190008A9
:10004000870200088702000887020008870200086C
:10005000870200088702000887020008870200085C
:10006000870200088702000887020008870200084C
:10007000870200088702000887020008870200083C
:1000800087020008870200080000000087020008BD
:10009000870200088702000887020008870200081C
:1000A000870200088702000887020008870200080C
:1000B000870200080000000087020008000000001E
:1000C0005FF808F180B58EB000AF00F013F94A4B2D
:1000D0004A4A1A604A4B494A1A604A4B3B634A4BA8
:1000E000FB624A4BBB62FB6A7B6207E03A6B131D03
:1000F0003B637B6A191D796212681A60BA6A7B6A6F
:100100009A42F3D83C4B1B68414A934204D13C4B82
:100110001B68404A934200D0FEE73F4B374A1A60C3
:100120003E4B364A1A603E4B3B623E4BFB613B6A9C
:10013000BB6104E0BB691A1DBA6100221A60FA694A
:10014000BB699A42F6D8344B1B68002B03D1334B62
:100150001B68002B00D0FEE700F0D2F83A003B1DF0
:100160001100180000F0B6F82F4A304BD31A9B103C
:10017000FB600023BB6007E02C4BBA689200D358A9
:100180009847BB680133BB60FA68BB689A42F3DCEE
:10019000274A284BD31A9B10FB600023BB6007E063
:1001A000244BBA689200D3589847BB680133BB60B0
:1001B000FA68BB689A42F3DC7B683A681100180061
:1001C00001F0CEF903007B631B4A1C4BD31A9B1032
:1001D0007B617B693B6108E03B695A1E174B9200CB
:1001E000D35898473B69013B3B613B69002BF3DCEB
:1001F0007B6B180000F068F800000020BABADECA75
:1002000090000020E42D0008000000209400002051
:10021000785634123254769894000020D802002088
:1002200094000020DC020020BC020008BC02000890
:10023000C4020008BC020008C8020008C40200088A
:1002400080B500AFFFF73EFF80B500AF00BEFEE710
:1002500004207146084202D0EFF3098001E0EFF379
:10026000088071460A4A104780B582B000AF7860B6
:10027000396000BEFEE780B500AF00BEFEE780B586
:1002800000AF00BEFEE780B500AF00BEFEE7000095
:0402900069020008F7
:10029400E42D00080000002094000020E42D000854
:1002A400000000000000000094000020DC02002098
:1002B40000000000000000001117000811210008D0
:0402C40029210008E4
:1002C80080B582B000AF7860FEE7000080B582B0EC
:1002D80000AF786039607B6801221A603B68024A87
:1002E8001A60BD4602B080BD0400002080B500AF92
:1002F80000F008F8BD4680BD80B500AF00F048F8B2
:10030800BD4680BD80B500AF1B4B1A681A4B012152
:100318000A431A60184B5A68174B18490A405A6022
:10032800154B1A68144B16490A401A60124B1A6882
:10033800114B14490A401A600F4B5A680E4B124968
:100348000A405A600C4BDA6A0B4B0F218A43DA6277
:10035800094B1A6B084B0D490A401A63064B5A6B36
:10036800054B01218A435A63034B00229A6000F02F
:100378007DF8BD4680BDC046001002400CB8FFF8AD
:10038800FFFFF6FEFFFFFBFFFFFFC0FFACFEFFFF16
:1003980080B584B000AF0023FB600023BB6000235E
:1003A8007B6000233B602D4B5B680C221340FB6095
:1003B800FB68042B07D0082B09D0002B38D1284B19
:1003C800284A1A6037E0264B264A1A6033E0234B46
:1003D8005A68F0239B031340BB60204B5A68C02324
:1003E8005B0213407B60BB689B0C0233BB607B687D
:1003F800002B0CD1B9680A005201521A93019B1ABA
:10040800DB005B181B021A00154B1A6013E0134B34
:10041800DB6A0F22134001333B603968114802F050
:100428003BFC03001A00BB685A430D4B1A6002E0FC
:100438000B4B0C4A1A60094B5B681B090F221340CF
:10044800094AD35CDBB2FB60054B1A68FB68DA40EB
:10045800034B1A60BD4604B080BDC0460010024080
:100468000C00002000127A001000002080B582B035
:1004780000AF00237B6000233B60304B1A682F4B92
:10048800802149020A431A602C4B1A6880239B0278
:1004980013403B607B6801337B603B68002B04D1D1
:1004A8007A68A023DB019A42EED1244B1A68802394
:1004B8009B02134002D001233B6001E000233B6014
:1004C8003B68012B36D11E4B11221A601B4A1B4B6D
:1004D80052685A60194A194B52685A60174B5A6841
:1004E800164B18490A405A60144B5A68134B882116
:1004F80049030A435A60114B1A68104B802149047A
:100508000A431A600D4B1A6880239B041340F9D0E4
:100518000A4B5A68094B03218A435A60074B5A68A9
:10052800064B02210A435A60044B5B680C221340B5
:10053800082BF9D1BD4602B080BDC046001002406C
:1005480000200240FF7FC0FF90B583B000AF0200DB
:100558003960FB1D1A70FB1D1B785BB2002B36DA65
:10056800314AFB1D1B785BB219000F230B40083B77
:100578009B0806339B00D31804331B68FA1D1278B6
:1005880052B2110003220A40D200FF2191400A0012
:10059800D2431A4011003B689B01FF221A40FB1D01
:1005A8001B785BB2180003230340DB009A401E4807
:1005B800FB1D1B785BB21C000F232340083B9B08E4
:1005C8000A4306339B00C31804331A6029E0174A0C
:1005D800FB1D1B785BB29B08C0339B009B58FA1D20
:1005E800127852B2110003220A40D200FF21914032
:1005F8000A00D2431A4011003B689B01FF221A40AF
:10060800FB1D1B785BB2180003230340DB009A40F4
:100618000648FB1D1B785BB29B080A43C0339B004E
:100628001A50BD4603B090BD00ED00E000E100E0C7
:1006380080B582B000AF78607B68013B0C4A93427A
:1006480001D9012310E00B4B7A68013A5A60012363
:100658005B4203211800FFF777FF064B00229A60E0
:10066800044B07221A6000231800BD4602B080BD63
:10067800FFFFFF0010E000E080B582B000AF02008D
:10068800FB1D1A70FB1D1B78012B02D0022B01D118
:10069800FEE7C046BD4602B080BD000080B584B00C
:1006A80000AF78607B68084A9A429B415B42DBB2A4
:1006B800FB60064BFA681A60044BFA6810210A437B
:1006C8001A60BD4604B080BD00366E0100200240AD
:1006D80080B582B000AF78603960284B1A68274B24
:1006E80001210A431A60254B1B68022213405A4213
:1006F8005341DBB2002BF6D1204B5A681F4B032124
:100708008A435A601D4B5B680C2213405A1E934162
:10071800DBB2002BF6D13B681800FFF7BFFF174B81
:10072800A02292035A60154B0022DA62134B1A6812
:10073800124B802149040A431A60104B1A6880231F
:100748009B0413405A425341DBB2002BF5D10B4BAB
:100758005A680A4B02210A435A60084B5B680C220C
:100768001340083B5A1E9341DBB2002BF5D1FFF72B
:100778000FFE01231800BD4602B080BD00100240E4
:1007880080B582B000AF00237B60074B5A69064BE7
:10079800802189020A435A61034B5B697B607B684D
:1007A800BD4602B080BDC0460010024080B500AF13
:1007B800BD4680BD80B500AF104A114B110018002E
:1007C800FFF786FFFFF7DCFF0E4B1A68FA23990044
:1007D800100002F061FA03001800FFF729FF030078
:1007E8005A1E9341DBB2002B02D00220FFF744FFD0
:1007F800FFF7DCFF00F008F8BD4680BD0048E801BF
:1008080000127A000C00002080B500AFBD4680BD04
:1008180080B582B000AF0200FB1D1A70034BFA1DB1
:1008280012781A70BD4602B080BDC046280000206C
:1008380080B582B000AF786008001100FB1C021C74
:100848001A70BB1C0A1C1A707B681B68FA1C127889
:100858005200032191400A00D2431A407B681A6073
:100868007B681A68BB1C1978FB1C1B785B009940D5
:100878000B001A437B681A60BD4602B080BD80B584
:1008880082B000AF786008001100FB1C021C1A70CF
:10089800BB1C0A1C1A707B689B68FA1C12785200F1
:1008A800032191400A00D2431A407B689A607B6812
:1008B8009A68BB1C1B781900FB1C1B785B009940CD
:1008C8000B001A437B689A60BD4602B080BD80B5B4
:1008D80082B000AF786008001100FB1C021C1A707F
:1008E800BB1C0A1C1A707B68DB68FA1C1278520061
:1008F800032191400A00D2431A407B68DA607B6882
:10090800DA68BB1C1978FB1C1B785B0099400B004C
:100918001A437B68DA60BD4602B080BD80B582B0FC
:1009280000AF786008001100FB1C021C1A70BB1C89
:100938000A1C1A707B689B889BB2FA1C12781100FB
:1009480001228A4092B2D24392B213409AB27B6893
:100958009A807B689B889AB2BB1C1B78F91C097823
:100968008B409BB213439AB27B689A80BD4602B013
:1009780080BD80B584B000AF78600A00FB1C1A7097
:100988007B681A68FB1C1B785B00DA401300FB606D
:10099800FB68DBB203221340DBB21800BD4604B08B
:1009A80080BD80B584B000AF78600A00FB1C1A7067
:1009B8007B68DA68FB1C1B785B00DA401300FB607D
:1009C800FB68DBB203221340DBB21800BD4604B05B
:1009D80080BD80B584B000AF78600A00FB1C1A7037
:1009E8007B689A68FB1C1B785B00DA401300FB608D
:1009F800FB68DBB203221340DBB21800BD4604B02B
:100A080080BD80B584B000AF78600A00FB1C1A7006
:100A18007B689B889BB21A00FB1C1B781A41130049
:100A2800FB60FB68DBB201221340DBB21800BD4655
:100A380004B080BD80B582B000AF78600A00FB1CAE
:100A48001A70FB1C1B7801229A4013001A007B685D
:100A58009A61BD4602B080BD80B582B000AF7860B3
:100A68000A00FB1C1A70FB1C1B78103301229A40E9
:100A780013001A007B689A61BD4602B080BD80B53C
:100A880082B000AF786008001100FB1C021C1A70CD
:100A9800BB1C0A1C1A70BB1C1B78002B07D0FB1C44
:100AA8001A787B6811001800FFF7C4FF06E0FB1CEA
:100AB8001A787B6811001800FFF7CEFFBD4602B018
:100AC80080BD80B582B000AF78600A00FB1C1A7048
:100AD8007B689B8A9BB21A00FB1C1B781A41130087
:100AE800012213405A1E9341DBB21800BD4602B0E2
:100AF80080BD80B582B000AF78600A00FB1C1A7018
:100B08007B681B8A9BB21A00FB1C1B781A411300D6
:100B1800012213405A1E9341DBB21800BD4602B0B1
:100B280080BDB0B584B000AFF86008007A601900E5
:100B38000B243B19021C1A700A257B190A1C1A700F
:100B48007B191A787B6811001800FFF712FF030061
:100B58001A003B191978FB681800FFF769FE7B1922
:100B68001A787B6811001800FFF74BFF03001A0082
:100B78003B191978FB681800FFF7D0FE7B191A7823
:100B88007B6811001800FFF70CFF03001A003B19DF
:100B98001978FB681800FFF79AFE7B191A787B68AA
:100BA80011001800FFF715FF03001A003B19197808
:100BB800FB681800FFF763FEBD4604B0B0BD80B502
:100BC80082B000AF78600A00FB1C1A707B68186856
:100BD8007B681979FB1C1B781A00FFF729FEBD46B4
:100BE80002B080BD80B582B000AF78600A00FB1CFF
:100BF8001A707B6818687B681979FB1C1B781A00C7
:100C0800FFF73DFEBD4602B080BD80B582B000AFA3
:100C180078600A00FB1C1A707B6818687B68197971
:100C2800FB1C1B781A00FFF752FEBD4602B080BDC0
:100C380080B582B000AF78600A00FB1C1A707B6830
:100C480018687B681979FB1C1B781A00FFF766FE89
:100C5800BD4602B080BD80B582B000AF78600A00A2
:100C6800FB1C1A707B6818687B681979FB1C1B7859
:100C7800013B5A425341DBB21A00FFF700FFBD4661
:100C880002B080BD80B582B000AF78607B681A681A
:100C98007B681B7919001000FFF713FF031E01D0B2
:100CA800012300E000231800BD4602B080BD80B5D6
:100CB80082B000AF78607B681A687B681B7919007E
:100CC8001000FFF716FF031E01D0012300E00023E8
:100CD8001800BD4602B080BD90B583B000AF786003
:100CE8000C0010001900FB1C221C1A70BB1C021CF3
:100CF8001A707B1C0A1C1A70FB1C1A787B6811007E
:100D08001800FFF75CFFBB1C1A787B6811001800FD
:100D1800FFF78EFF7B1C1A787B6811001800FFF71D
:100D280074FF1823FB181A787B6811001800FFF766
:100D380059FFBD4603B090BD80B582B000AF786062
:100D480039607B6818687B6819793B681A683B6862
:100D58001B79FFF7E6FEBD4602B080BD80B586B0C0
:100D680002AFF860B960FB1D1A70FB68BA681A60B8
:100D7800FB68FA1D12781A71F868002300930023A3
:100D880001220321FFF7A8FFFB681800BD4604B045
:100D980080BD000080B586B002AF7860104B5A69FC
:100DA8000F4B9C21C9030A435A610D4B5B69FB60D9
:100DB800FB687B6898331A007B68103319001000B1
:100DC800FFF7BAFF7B68A0331800002300930123C4
:100DD80001220021FFF780FFBD4604B080BDC04658
:100DE8000010024080B582B000AF78600A00FB1C9A
:100DF8001A70FB1C1B78002B08D07B6824331A0060
:100E0800FB1C1B781900100000F0A1FCBD4602B0C5
:100E180080BD80B582B000AF78600A00FB1C1A70F4
:100E28007B681B6801211800FFF715FF7B685B686A
:100E380001211800FFF70FFF7B689B68012118004C
:100E4800FFF709FFFB1C1B78022B15D0032B25D0BD
:100E5800012B34D17B681B6800211800FFF7FBFECB
:100E68007B681B681800FFF70DFF03005A425341C7
:100E7800DBB2002BF4D122E07B685B68002118000C
:100E8800FFF7E9FE7B685B681800FFF7FBFE0300CD
:100E98005A425341DBB2002BF4D110E07B689B68C7
:100EA80000211800FFF7D7FE7B689B681800FFF742
:100EB800E9FE03005A425341DBB2002BF4D1BD4690
:100EC80002B080BD80B582B000AF78607B68DB6817
:100ED8001800FFF7ECFE03005A425341DBB2002B27
:100EE80001D0012327E07B681B691800FFF7DFFEAC
:100EF80003005A425341DBB2002B01D002231AE00F
:100F08007B685B691800FFF7D2FE03005A42534121
:100F1800DBB2002B01D003230DE07B689B6918002E
:100F2800FFF7C5FE03005A425341DBB2002B01D044
:100F3800042300E000231800BD4602B080BD80B540
:100F480082B000AF0200FB1D1A70BB1D0A1C1A708C
:100F5800FB1D1B78022B18D0032B2BD0012B3ED165
:100F6800BB1D1B78022B0AD002DC012B05D036E012
:100F7800032B06D0042B06D031E0012330E00423F4
:100F88002EE007232CE00B232AE0BB1D1B78022B45
:100F98000AD002DC012B05D021E0032B06D0042B5C
:100FA80006D01CE002231BE0052319E0082317E004
:100FB8000A2315E0BB1D1B78022B0AD002DC012B8B
:100FC80005D00CE0032B06D0042B06D007E0032342
:100FD80006E0062304E0092302E00C2300E00023D6
:100FE8001800BD4602B080BDB0B584B000AF7860CF
:100FF8000123FB60FB68032B21DCFB68DAB27B680A
:1010080011001800FFF705FF0B257C197B681800F5
:10101800FFF758FF030023707B191B78002B03D1BF
:10102800FB680133FB60E5E7FB68DAB20B23FB18CA
:101038001B7819001000FFF782FF030000E000236F
:101048001800BD4604B0B0BD80B586B000AFF860EA
:10105800B9607A603B60FB68BA681A60FB687A68B6
:101068005A60FB683A689A60FB683A6ADA60FB681B
:101078007A6A1A61FB68BA6A5A61FB68FA6A9A6105
:10108800FB6800221A77FB6824331800FB681D33BD
:101098000422190000F044FB1623FB1800221A80D2
:1010A8001623FB181B88032B0CD816217B181B88CA
:1010B800FA68D31800225A777B181A887B180132ED
:1010C8001A80EDE7FB681800BD4606B080BD80B504
:1010D80084B002AF78607B6818680223009300230D
:1010E80000220121FFF7F8FD7B685A687B681B68BE
:1010F80019001000FFF720FE7B689A687B681B6860
:1011080019001000FFF718FE7B68D86802230093C7
:10111800012301220021FFF7DFFD7B681A697B6844
:10112800DB6819001000FFF707FE7B685A697B68C7
:10113800DB6819001000FFF7FFFD7B689A697B6880
:10114800DB6819001000FFF7F7FDBD4602B080BD4F
:10115800B0B584B000AF78600F257C197B681800A3
:1011680000F01CF8030023707B681B7F7A19127843
:101178009A4210D07B680F217A1812781A777B1858
:101188001B78002B07D00F23FB181A787B681100F7
:101198001800FFF727FEBD4604B0B0BD80B582B089
:1011A80000AF78607B681800FFF71EFF0300180087
:1011B800BD4602B080BD80B582B000AF78607B6864
:1011C80001225A76BD4602B080BD80B584B000AF1A
:1011D80078607B685B68FB607B685A687B681B6922
:1011E8001900100001F0DEFD0B001A007B685A6040
:1011F8007B685B68FA689A4203D07B681800FFF73F
:10120800DAFFBD4604B080BD80B582B000AF78601B
:101218007B681800FFF7CFFF7B685B685A1C7B6808
:101228005A607B6859687B681A69002391425B4160
:10123800DBB2002B02D07B6800225A60BD4602B0A8
:1012480080BD80B586B000AFF860B9607A60FB6891
:10125800DB687A689A4201D300231BE0FB689B682D
:10126800BA689A4201D3002314E0FB685B687B618B
:10127800FB689B687A685A43BB68D218FB685A6057
:10128800FB685B687A699A4203D0FB681800FFF72D
:1012980092FF01231800BD4606B080BD80B582B01C
:1012A80000AF78600A00FB1C1A707B681800FFF713
:1012B8008CFF7B685A697B685B68D318FA1C1278C4
:1012C8001A707B681800FFF79FFF7B681800FFF70C
:1012D80072FFBD4602B080BD80B582B000AF7860B5
:1012E80039603B681B785BB2002B0AD03B685A1CFC
:1012F8003A6000229A567B6811001800FFF7CEFF6B
:10130800EFE7BD4602B080BD80B584B000AFF8609D
:10131800B9607A603B607A68B968FB681800FFF7C3
:1013280090FF3A68FB6811001800FFF7D5FFBD462B
:1013380004B080BD80B582B000AF78607B680022C1
:101348001A607B6800225A607B6800229A607B687A
:101358000022DA607B6800221A617B6800225A61E9
:101368007B6800221A767B6801225A767B6818000F
:10137800BD4602B080BD000080B582B000AF786085
:1013880078689023DB050C221900FFF7E7FC7B68DF
:101398000833684906221800FFF7E0FC7B68103321
:1013A800644907221800FFF7D9FC7B6818336249A3
:1013B8000D221800FFF7D2FC7B6820331800902319
:1013C800DB050F221900FFF7C9FC7B6828335B494E
:1013D80003221800FFF7C2FC7B6830335749042208
:1013E8001800FFF7BBFC7B68383354490522180006
:1013F800FFF7B4FC7B684033504906221800FFF71A
:10140800ADFC7B6848334D4907221800FFF7A6FC5E
:101418007B685033494908221800FFF79FFC7B6816
:101428005833464909221800FFF798FC7B68603357
:1014380042490C221800FFF791FC7B6868333F494A
:101448000D221800FFF78AFC7B6870333B490E2297
:101458001800FFF783FC7B68783338490F2218009F
:10146800FFF77CFC7B68803318009023DB0508229B
:101478001900FFF773FC7B68883318009023DB059D
:1014880009221900FFF76AFC7B6890331800902343
:10149800DB050A221900FFF761FC7B689833180006
:1014A8009023DB0500221900FFF758FC7B68A03366
:1014B80018009023DB0501221900FFF74FFC7B6819
:1014C800A83318009023DB0502221900FFF746FC19
:1014D8007B68B03318009023DB0503221900FFF75F
:1014E8003DFC7B68B83318009023DB050422190003
:1014F800FFF734FC7B68C03318009023DB05052216
:101508001900FFF72BFC7B68C83318009023DB0514
:1015180006221900FFF722FC7B68D03318009023BD
:10152800DB0507221900FFF719FC7B681800BD4688
:1015380002B080BD001400480008004800040048BC
:1015480080B500AF034B1B681800FFF701FEBD46CE
:1015580080BDC0462400002090B585B002AF7860F9
:101568003960FFF727F90120FFF752F900F008FA70
:10157800154B1B681800FFF70DFC134B1B68103345
:101588001900114B1B6808331A000F4B1B681C000D
:101598000D4B1B6818330D4801930D4B0093230026
:1015A80000F006FC0B4B1B681800FFF790FD0020AD
:1015B800FFF72EF9084B1868084B00220021FFF7A7
:1015C800A3FE00F051F9FCE720000020A80100204C
:1015D800C801002024000020C4010020C82D0008F4
:1015E800F0B587B004AF786039607B68012B76D19D
:1015F8003B683C4A934272D13B4B1800D8231A00EF
:10160800002101F0D5FB384B1800FFF7B5FE374B2A
:101618001B6860331D00354B1B6868331E00334B55
:101628001B68702294469C44304B1B6878331A0020
:101638002E4B1B68803319002C4B1B68883318000D
:101648002A4B1B6890332A4C039302900191009215
:101658006346320029002000FFF7F6FC254B1800EE
:10166800FFF768FE234B180000F08AFB0200224BAC
:101678001A601E4B1B6820331A00204B1A601B4B44
:101688001B6828331A001D4B5A60184B1B683033EF
:101698001A001A4B9A60154B1B6838331A00174BFF
:1016A800DA60124B1B6840331A00144B1A610F4B57
:1016B8001B6848331A00114B5A610C4B1B68503396
:1016C8001A000E4B9A61094B1B6858331A000B4BD2
:1016D800DA610B4A0B480A23022100F0F9F8BD46EB
:1016E80003B0F0BDFFFF00009C0000202000002098
:1016F80074010020A8010020C4010020C8010020B6
:1017080049150008E801002080B500AF034B190017
:101718000120FFF765FFBD4680BDC046FFFF000002
:1017280080B584B000AFF860B9607A60FB687A6809
:101738001A60FB68BA68DA60FB6800229A60FB6886
:1017480000225A60FB681800BD4604B080BD80B511
:1017580084B000AF78600A00FB1C1A707B685B6875
:10176800FB607B689B68BB60FB680133BA689A4280
:1017780001D100231EE0BB68002B07D17B681B68E2
:10178800013BFA689A4201D1002313E07B68DA68CA
:10179800FB68591CF960D318FA1C12781A707B6818
:1017A8001B68FA689A4201D2FA6800E000227B6856
:1017B8005A6001231800BD4604B080BD80B582B0D0
:1017C80000AF7860034A7B681A607B681800BD46E2
:1017D80002B080BDDC2D000880B582B000AF786013
:1017E8007B681800FFF7EAFF7B681C21180001F0EE
:1017F800F4F97B681800BD4602B080BD80B584B09E
:1018080000AF7860164B1A687B68D218144B1A60C0
:10181800144B1B68FB60FB68002B1DD0FB685B7CCE
:10182800022B15D1FB681B687A689A429B415B4280
:10183800DBB2002B06D0FB681A687B68D21AFB68FB
:101848001A6005E0FB6801225A74FB6800221A60DE
:10185800FB689B68FB60DEE7BD4604B080BDC04600
:1018680000020020FC01002080B582B000AF164BBA
:101878001B78DBB2002B24D1144B1B687B607B6880
:10188800002B1ED07B685B7C012B16D17B681B7CF0
:10189800012B0CD0022B10D17B685A687B681A6028
:1018A8007B6802225A747B68DB68984705E07B688E
:1018B80000225A747B68DB6898477B689B687B606A
:1018C800DDE7BD4602B080BD28000020FC010020F5
:1018D80080B586B000AFF8607A603B600B203B189B
:1018E8000A1C1A70FB6800225A74FB683A181278AE
:1018F8001A74FB687A68DA60FB683A685A60184BB1
:101908001B68002B0AD1164BFA681A60144B1B6827
:1019180000229A60FB6802225A741BE0104B1B6875
:101928007B617B699B68002B07D07A69FB689A42C8
:1019380010D07B699B687B61F3E77A69FB689A4200
:1019480008D0FB6800229A607B69FA689A60FB6895
:1019580002225A74FB681800BD4606B080BDC04616
:10196800FC01002080B500AF0120FFF747FFBD460E
:1019780080BD80B500AF01231800BD4680BD0000C2
:1019880090B583B000AF01F035F8FB1D01221A7045
:1019980000F0D2FB03001A00FB1D043A51424A41F1
:1019A8001A7001F03DF83B1D00221A803B1D1B8870
:1019B800062B33D8BB1C00221A803B1D1B885A00FB
:1019C800194BD218BC1C3B1D1B881100180000F0D5
:1019D8009DFD03002380BB1C1B88012B11D13B1DDF
:1019E8001B88DBB20021180000F020F803001A0061
:1019F80001235340DBB2002B0AD0FB1D00221A70D2
:101A080006E0BB1C1B88012B02D9FB1D00221A70A3
:101A18003B1D1A883B1D01321A80C7E7FB1D1B7846
:101A28001800BD4603B090BD1802002080B584B0F0
:101A380000AF0200FB1D1A703B1D0A1C1A80FB1D1B
:101A48001B780A2B01D9002340E0FB1D1B78072BCC
:101A580001D900233AE0FB1D1A781E4B5200D35AD5
:101A68003A1D12889A4201D101232FE00F23FB1857
:101A780001221A70FFF77DFF031E20D000F0BAFF85
:101A8800FB1D1B789AB23B1D1B881900100000F043
:101A9800A1FD0300043B5A1E9341DBB2002B04D086
:101AA8000F23FB1800221A7006E0FB1D1A78094B59
:101AB8005200391D0988D15200F0B2FF03E00F230C
:101AC800FB1800221A700F23FB181B781800BD465C
:101AD80004B080BD1802002080B582B000AF7860E5
:101AE8007B681A687B681B7919001000FEF7A2FF53
:101AF800BD4602B080BD80B582B000AF78607B681B
:101B08001A687B681B7919001000FEF7A5FFBD460F
:101B180002B080BD80B582B000AF78600A00FB1CBF
:101B28001A707B6818687B681979FB1C1B781A0087
:101B3800FEF7A5FFBD4602B080BD000080B584B0A9
:101B480000AFF860B9607A603B60104AFB681A60C1
:101B5800FB68BA689A60FB687A68DA60FB683A687A
:101B68005A61FB68DA68FB689B685A43FB681A612C
:101B7800FB6800225A60FB6800221A76FB68002284
:101B88005A76FB681800BD4604B080BDDC2D0008FD
:101B980080B582B000AF78607B685B691800BD468D
:101BA80002B080BD90B585B000AF78600A00FB1C1C
:101BB8001A700F23FB1800221A700F23FB181B78CA
:101BC800072B1BD87B68DB680F243A191278920020
:101BD800D058FB1C1B78012213405A1E9341DBB2DC
:101BE8001900FFF797FFFB1C1B785A10FB1C1A7093
:101BF8003B191A783B1901321A70DEE7BD4605B069
:101C080090BD80B582B000AF78600A00FB1C1A70E6
:101C1800FB1C1A787B6811001800FFF7C3FF7B686C
:101C28009B6800211800FFF775FF7B685B6800213F
:101C38001800FFF76FFFBD4602B080BD80B582B0C7
:101C480000AF78600A00FB1C1A70FB1C1A787B68CE
:101C580011001800FFF7A6FF7B689B680121180098
:101C6800FFF758FF7B685B6800211800FFF752FFF9
:101C7800BD4602B080BD80B582B000AF78600A0072
:101C8800FB1C1A707B681A69FB1C1B781900100072
:101C9800FFF740FFBD4602B080BD80B584B000AFFD
:101CA800786008001100FB1C021C1A70BB1C0A1C7F
:101CB8001A70FB1C1B78102B01D900231EE000238F
:101CC800FB60BB1C1B78022B06D0032B07D0012B13
:101CD80008D14023FB6007E01023FB6004E0502399
:101CE800FB6001E00023FB60FB68DAB2FB1C1B7899
:101CF8001343DBB2802252421343DBB21800BD46C5
:101D080004B080BD80B500AF024B1B681800BD460B
:101D180080BDC0460002002080B584B000AF786066
:101D2800FFF7F0FF0300FB60FFF7ECFF0200FB6822
:101D3800D21A7B689A429B415B42DBB2002BF3D1FB
:101D4800BD4604B080BD80B582B000AF78607B68C6
:101D58001800FFF7E1FFBD4602B080BD80B500AFB7
:101D6800014B1800BD4680BD2C02002080B500AF95
:101D7800FFF7F4FF0300180000F025F9BD4680BD09
:101D880080B582B000AF7860024B1800BD4602B043
:101D980080BDC0468002002080B582B000AF786068
:101DA80039603B681800FFF7CEFFBD4602B080BD22
:101DB80080B584B000AFF860B9607A603B60FB68BA
:101DC800BA681A60FB687A685A60FB683A689A6071
:101DD800FB68BA69DA60FB68FA691A61FB6818007F
:101DE80000F005F803001800BD4604B080BD90B5AA
:101DF80087B002AF78607B681868022300930023DD
:101E080000220121FEF768FF7B685A687B681B681F
:101E180019001000FEF790FF7B681A697B681B6841
:101E280019001000FEF788FF7B689A687B681B68BA
:101E380019001000FEF780FF0F23FB1800221A700C
:101E48000F23FB181B78072B12D87B68DB680F243D
:101E58003A1912789200D2587B681B681900100052
:101E6800FEF76AFF3B191A783B1901321A70E7E747
:101E78007B6800221A767B6801211800FFF7FBFEB9
:101E88007B6832211800FFF787FF7B686421180000
:101E9800FFF782FF96235A007B683821180000F06C
:101EA8003BF896235A007B683921180000F034F873
:101EB8007B6864221421180000F02EF87B681E222B
:101EC8007421180000F028F87B681E22542118009D
:101ED80000F022F87B681E226F21180000F01CF821
:101EE8007B6864220C21180000F016F87B686422D5
:101EF8000121180000F010F87B68642238211800CE
:101F080000F00AF87B6800211800FFF7B4FE0123EF
:101F18001800BD4605B090BD80B584B000AFF8602C
:101F28007A600B203B180A1C1A703B181A78FB6859
:101F380011001800FFF765FEFB681B6801211800F7
:101F4800FFF7E8FDFB6802211800FFF725FFFB6893
:101F58001B6800211800FFF7DDFD7A68FB68110097
:101F68001800FFF719FF01231800BD4604B080BD13
:101F780080B586B000AF78607B681800FFF700FF77
:101F880003007B617B691800FFF702FE03003B61D9
:101F98007B685B691F2B02D97B6800225A617B68CA
:101FA8005B693A69D2180F217B1812781A707B681E
:101FB8005B695A1C7B685A617B181B785BB21800F6
:101FC800BD4606B080BDB0B584B000AF78607B6810
:101FD8001B681800FEF756FE03005A1E9341DBB239
:101FE800002B05D07B681B681800FFF784FD48E0CC
:101FF8007B685B690F22134024D17B685B691A09EF
:102008000E217B181A700D23FC187B181A787B6830
:1020180000211800FFF741FE030023707B685B7EF8
:10202800002B23D00D23FB181B7880225242134328
:10203800DAB27B6811001800FFF7E3FD7B68002225
:102048005A7614E00F257C197B681800FFF790FF7B
:10205800030023707B1900229A567B681100180030
:10206800FFF7ECFD7B6801225A7600E0C0467B68EA
:102078001B681800FFF730FD0C23FB187A68127EE6
:102088001A70BD4604B0B0BD80B582B000AF7860AC
:1020980039607B68012B19D13B68134A934215D1EB
:1020A800124B1800FFF746F9114A124896230221ED
:1020B800FFF70EFC104B114802221021FFF73EFDDE
:1020C8000F49104B21221800FFF72AFB7B68002BD1
:1020D80007D13B68044A934203D1084B1800FFF725
:1020E8006DFBBD4602B080BDFFFF00002C02002042
:1020F800751D0008480200205C02002080020020B4
:102108009C020020C002002080B500AF034B1900DC
:102118000120FFF7B9FFBD4680BDC046FFFF0000A4
:1021280080B500AF034B19000020FFF7ADFFBD4697
:1021380080BDC046FFFF000090B585B000AF0A2102
:102148007B1806221A8008203B1806221A800E23C4
:10215800FB1800221A80BB1D00221A803B1D00229A
:102168001A800C23FB18012252421A80BC4A7B18A1
:1021780012881A80BB4A3B1812881A807B181B8861
:10218800B94A93424FD0B94A934203D0002B00D1A9
:10219800F5E09FE10823FB181B88002B0FD1B04BFB
:1021A800180000F049FC03001A00BB1C1A80BB1C75
:1021B8001B88042B00D19AE1BB1C1B889DE10823D6
:1021C800FB181B88A84A93421FD1A54B180000F0A2
:1021D80033FC03001A00BB1C1A80BB1C1B88042B91
:1021E80002D0BB1C1B8888E19E4B0021180000F020
:1021F8005FFC03001A00BB1C1A80BB1C1B88042B45
:1022080000D174E1BB1C1B8877E100F013FA0300CE
:102218001A00BB1C1A80BB1C1B88042B00D166E16A
:10222800BB1C1B8869E10823FB181B88002B00D006
:1022380071E00E23FB1800221A8047E08C4B1B88A4
:102248009AB20E23FB1819888A4B4900CB5A9A4236
:1022580005D10C23FB180E22BA1812881A800E23F7
:10226800FB181A880C23FB1800215B5E9A4227D0C2
:102278000E23FB181A887F4B5200D35A3C1D7E4A06
:102288001100180000F042F9030023803B1D1B8851
:10229800012B15D00E23FB181A88764B5200D25A00
:1022A800754B1B88BC1D1900100000F04FFA030085
:1022B8002380BB1D1B88042B02D0BB1D1B881CE17F
:1022C8000E217B181A887B1801321A800E23FB18FE
:1022D8001B88092BB2D9624B0021180000F0E8FBDB
:1022E80003001A00BB1C1A80BB1C1B88042B02D0DD
:1022F800BB1C1B8801E15B4B180000F09DFB030031
:102308001A00BB1C1A80BB1C1B88042B00D1F0E0F0
:10231800BB1C1B88F1E00823FB181B88534A934217
:102328001FD1504B180000F087FB03001A00BB1C9C
:102338001A80BB1C1B88042B02D0BB1C1B88DCE04A
:10234800474B0021180000F0B3FB03001A00BB1C28
:102358001A80BB1C1B88042B00D1CAE0BB1C1B883D
:10236800CBE000F067F903001A00BB1C1A80BB1C05
:102378001B88042B00D1BCE0BB1C1B88BDE00823D4
:10238800FB181B88002B0DD100F054F903001A002C
:10239800BB1C1A80BB1C1B88042B00D1ABE0BB1CE8
:1023A8001B88AAE00823FB181B88304A93420FD1E8
:1023B8002C4B180000F040FB03001A00BB1C1A80CD
:1023C800BB1C1B88042B00D195E0BB1C1B8894E028
:1023D8000E23FB1800221A8058E0284B1B889AB25B
:1023E8000E23FB181988234B4900CB5A9A4205D172
:1023F8000C23FB180E22BA1812881A800E23FB1819
:102408001A880C23FB1800215B5E9A4238D00E23F1
:10241800FB181A88174B5200D35A3C1D164A110054
:10242800180000F073F8030023803B1D1B88012B64
:1024380026D00E23FB181A880E4B5200D25A0E4B88
:102448001B88BC1D1900100000F080F903002380D0
:10245800BB1D1B88042B13D0BB1D1B884DE0C04639
:1024680000780008007C0008EEEE0000FFFF000086
:102478000678000804020020D0020020067C00082C
:102488000E217B181A887B1801321A800E23FB183C
:102498001B88092BA1D91B4B0021180000F008FB51
:1024A80003001A00BB1C1A80BB1C1B88042B02D01B
:1024B800BB1C1B8821E0144B180000F0BDFA030078
:1024C8001A00BB1C1A80BB1C1B88042B13D0BB1C16
:1024D8001B8812E000F0AEF803001A00BB1C1A803B
:1024E800BB1C1B88042B07D0BB1C1B8805E0C046FF
:1024F80002E0C04600E0C04604231800BD4605B00F
:1025080090BDC046007C000800780008B0B586B0D1
:1025180000AF02003960BB1D1A800E217B18002213
:102528001A800C23FB18274A1A801623FB1801224D
:102538001A80254B3B61244BBB600D007C180020A2
:1025480000F0ACF80300238029007B181B88AB2B14
:1025580001D1AB2331E00E22BB181B881B498C46E6
:1025680063449B02BB60BB181B8801339B02184A5B
:10257800944663443B6118E03A690C217B18128841
:102588001A807A18BB1D12881B889A420AD13B69A7
:10259800023B1B889AB23B681A801623FB1800225C
:1025A8001A8007E03B69043B3B61BB6802333A6928
:1025B8009A42E1D81623FB181B881800BD4606B0BE
:1025C800B0BDC04655550000000001081E000200BD
:1025D800FE770008B0B584B000AF0200BB1D1A80BA
:1025E8003B1D0A1C1A800E257B1900221A807C19B3
:1025F8003B1D1A88BB1D1B881100180000F0A6F8A7
:10260800030023807B191B88802B0BD10E23FC1819
:102618003B1D1A88BB1D1B881100180000F006F925
:10262800030023800E23FB181B881800BD4604B046
:10263800B0BD000090B583B000AFFB1D04221A7036
:10264800FC1D144B180000F0F7F903002370FB1D64
:102658001B78042B02D0FB1D1B7817E0FC1D0D4BCB
:102668000021180000F024FA03002370FB1D1B78DA
:10267800042B02D0FB1D1B7808E0FC1D064B18003C
:1026880000F0DAF903002370FB1D1B781800BD4623
:1026980003B090BD00780008007C000880B584B0C5
:1026A80000AF0200FB1D1A700E217B1806221A804B
:1026B8000C203B1806221A80214A7B1812881A809F
:1026C800204A3B1812881A80FB1D1B78002B21D04A
:1026D800012B2FD10C23FB181B88002B09D10E23AB
:1026E800FB181B88184A934201D1002323E00123D9
:1026F80021E00E23FB181B88002B09D10C23FB18A3
:102708001B88114A934201D1012314E0002312E0EF
:10271800AB2310E00E23FB181B88002B01D10023EC
:1027280009E00C23FB181B88002B01D1012302E0D0
:10273800AB2300E000231800BD4604B080BDC046AE
:1027480000780008007C0008EEEE0000B0B586B006
:1027580000AF0200BB1D1A803B1D0A1C1A80132300
:10276800FB1804221A7010217B1800221A802B4BA8
:102778007B612B4BFB600D007C180120FFF78EFF5F
:102788000300238029007B181B88AB2B01D1AB23C6
:1027980040E01022BB181B8822498C4663449B02E8
:1027A8007B61BB181B8801339B021F4A9446634414
:1027B800FB602AE07B691B68013323D113257C1950
:1027C8003B1D1A887B691100180000F071F903009D
:1027D80023707B191B78042B04D01323FB181B7858
:1027E8009BB217E07B699A1C13257C19BB1D1B88BB
:1027F8001900100000F05CF9030023707B191B78A6
:102808009BB207E07B6904337B617A69FB689A4273
:10281800D0D380231800BD4606B0B0BD0000010823
:10282800FF0701081E000200FE770008B0B588B057
:1028380000AF0200BB1D1A803B1D0A1C1A8015231D
:10284800FB1804221A70644BFB61644BBB611221B4
:102858007B1800221A801623FB1800221A801023E6
:10286800FB1800221A800E23FB1800221A800D0084
:102878007C180020FFF712FF0300238029007B1833
:102888001B88012B04D1564BFB61564BBB610BE0F7
:102898001223FB181B88002B04D1524BFB61504BB1
:1028A800BB6101E0AB2392E015257C194E4AFB6918
:1028B8001100180000F0FCF8030023707B191B7846
:1028C800042B04D01523FB181B789BB27FE010253E
:1028D8007C193B1D1A88BB1D1B8811001800FFF7C7
:1028E80035FF030023807B191B88042B03D010239A
:1028F800FB181B886BE01623FB1800221A803AE0AD
:102908001623FB181A88394B5200D35ABA1D12885D
:102918009A422AD01623FB181A88344B5200D35AED
:102928000E257C19324A11001800FFF7EFFD03004D
:1029380023807B191B88012B17D01623FB181A88B4
:102948002A4B5200D25A2A4B1B8810257C19190091
:102958001000FFF7FBFE030023807B191B88042B64
:1029680003D01023FB181B8831E016217B181A8826
:102978007B1801321A801623FB181B88092BBFD934
:1029880015257C19BB69180000F056F80300237060
:102998007B191B78042B04D01523FB181B789BB2DA
:1029A80015E015257C19FB690021180000F080F856
:1029B800030023707B191B78042B04D01523FB1804
:1029C8001B789BB203E01523FB181B789BB21800F9
:1029D800BD4608B0B0BDC046FF03010800000108AD
:1029E80000780008007C0008EEEE000004020020D9
:1029F800D002002080B500AF064B1B69802213402F
:102A080005D0044B044A5A60024B044A5A60BD463A
:102A180080BDC0460020024023016745AB89EFCD49
:102A280080B500AF034B1A69024B80210A431A6133
:102A3800BD4680BD00200240B0B584B000AF7860CC
:102A48000F257B1904221A707C19B0231B03180068
:102A580000F096F8030023707B191B78042B1DD116
:102A6800124B1A69114B02210A431A610F4B7A68FB
:102A78005A610E4B1A690D4B40210A431A610F2304
:102A8800FC18B0231B03180000F07AF80300237029
:102A9800064B1A69054B02218A431A610F23FB185A
:102AA8001B781800BD4604B0B0BDC04600200240E7
:102AB800B0B584B000AF78600A00BB1C1A800F253F
:102AC8007B1904221A707C19B0231B03180000F02C
:102AD80057F8030023707B191B78042B18D1104B6F
:102AE8001A690F4B01210A431A617B68BA1C1288C4
:102AF8001A800F23FC18B0231B03180000F040F8BD
:102B080003002370064B1A69054B01218A431A6199
:102B18000F23FB181B781800BD4604B0B0BDC04693
:102B28000020024080B582B000AFFB1D04221A705D
:102B3800124BDB6801221340012B03D1FB1D01223C
:102B48001A7014E00D4BDB681022134003D0FB1DF4
:102B580002221A700BE0094BDB680422134003D0F1
:102B6800FB1D03221A7002E0FB1D04221A70FB1DD4
:102B78001B781800BD4602B080BDC0460020024048
:102B880090B585B000AF78600F217B1804221A70C9
:102B98007C18FFF7C7FF0300237008E00F23FC1819
:102BA800FFF7C0FF030023707B68013B7B600F23A6
:102BB800FB181B78012B02D17B68002BEED17B68B8
:102BC800002B03D10F23FB1805221A700F23FB18C3
:102BD8001B781800BD4605B090BD10B500F001F88F
:102BE80010BD10B500F002F810BD000010B5034B81
:102BF8000100186800F004F810BDC0462C00002041
:102C080070B50500002910D00C1F2368002B00DACE
:102C1800E418280000F03EF81D4A1368002B05D17F
:102C280063601460280000F036F870BDA34209D92B
:102C3800216860188342F3D118685B6841182160E5
:102C4800EEE713005A68002A01D0A242F9D91968A0
:102C58005818A0420BD120680918581819608242E8
:102C6800E0D110685268411819605A60DAE7A0424A
:102C780002D90C232B60D5E721686018824203D162
:102C8800106852684118216062605C60CAE7C046FB
:102C9800D402002070477047002243088B4274D347
:102CA80003098B425FD3030A8B4244D3030B8B4245
:102CB80028D3030C8B420DD3FF22090212BA030C4E
:102CC8008B4202D31212090265D0030B8B4219D32F
:102CD80000E0090AC30B8B4201D3CB03C01A52414F
:102CE800830B8B4201D38B03C01A5241430B8B4297
:102CF80001D34B03C01A5241030B8B4201D30B0380
:102D0800C01A5241C30A8B4201D3CB02C01A5241A6
:102D1800830A8B4201D38B02C01A5241430A8B4269
:102D280001D34B02C01A5241030A8B4201D30B0252
:102D3800C01A5241CDD2C3098B4201D3CB01C01A6C
:102D4800524183098B4201D38B01C01A5241430976
:102D58008B4201D34B01C01A524103098B4201D364
:102D68000B01C01A5241C3088B4201D3CB00C01AD1
:102D7800524183088B4201D38B00C01A5241430849
:102D88008B4201D34B00C01A5241411A00D201466E
:102D9800524110467047FFE701B5002000F006F8E1
:102DA80002BDC0460029F7D076E770477047C04695
:102DB80003001218934200D1704719700133F9E7E4
:102DC80031323334353637383930000000000000EE
:0C2DD80000000000C5170008E11700080B
:102DE400785634129800002000000000006CDC02C9
:102DF40000000000000000000102030406070809A7
:102E04009C0000207401002001FFFFFF300000201F
:102E140000000000000000000000000000000000AE
:102E2400000000000000000000000000000000009E
:102E3400000000000000000000000000000000008E
:102E4400000000000000000000000000000000007E
:102E5400000000000000000000000000000000006E
:102E6400000000000000000000000000000000005E
:042E740032547698C6
:04000005080000C52A
:00000001FF
